{"contracts/EWasteProcessing.sol":{"EWasteProcessing":{"abi":[{"inputs":[],"stateMutability":"nonpayable","type":"constructor"},{"anonymous":false,"inputs":[{"indexed":false,"internalType":"string","name":"deviceType","type":"string"},{"indexed":false,"internalType":"uint256","name":"amountKg","type":"uint256"}],"name":"EWasteBatchAdded","type":"event"},{"anonymous":false,"inputs":[{"indexed":false,"internalType":"string","name":"deviceType","type":"string"},{"indexed":false,"internalType":"string","name":"name","type":"string"},{"indexed":false,"internalType":"uint256","name":"contentMgPerKg","type":"uint256"},{"indexed":false,"internalType":"uint256","name":"marketPriceCentsPerMg","type":"uint256"}],"name":"MetalAdded","type":"event"},{"inputs":[{"internalType":"string","name":"_deviceType","type":"string"},{"internalType":"uint256","name":"_amountKg","type":"uint256"}],"name":"addEWasteBatch","outputs":[],"stateMutability":"nonpayable","type":"function"},{"inputs":[{"internalType":"string","name":"_deviceType","type":"string"},{"internalType":"string","name":"_name","type":"string"},{"internalType":"uint256","name":"_contentMgPerKg","type":"uint256"},{"internalType":"uint256","name":"_recoveryEfficiencyPercent","type":"uint256"},{"internalType":"uint256","name":"_marketPriceCentsPerMg","type":"uint256"},{"internalType":"uint256","name":"_recoveryCostPercent","type":"uint256"}],"name":"addMetal","outputs":[],"stateMutability":"nonpayable","type":"function"},{"inputs":[{"internalType":"string","name":"_deviceType","type":"string"},{"internalType":"uint256","name":"_amountKg","type":"uint256"}],"name":"calculateNetValueForDevice","outputs":[{"internalType":"uint256","name":"totalNetValueCents","type":"uint256"}],"stateMutability":"view","type":"function"},{"inputs":[{"internalType":"uint256","name":"","type":"uint256"}],"name":"eWasteBatches","outputs":[{"internalType":"string","name":"deviceType","type":"string"},{"internalType":"uint256","name":"amountKg","type":"uint256"}],"stateMutability":"view","type":"function"},{"inputs":[],"name":"getMetalsCount","outputs":[{"internalType":"uint256","name":"","type":"uint256"}],"stateMutability":"view","type":"function"},{"inputs":[{"internalType":"string","name":"_deviceType","type":"string"}],"name":"getMetalsForDevice","outputs":[{"internalType":"string[]","name":"metalNames","type":"string[]"}],"stateMutability":"view","type":"function"},{"inputs":[{"internalType":"uint256","name":"","type":"uint256"}],"name":"metals","outputs":[{"internalType":"string","name":"name","type":"string"},{"internalType":"string","name":"deviceType","type":"string"},{"internalType":"uint256","name":"contentMgPerKg","type":"uint256"},{"internalType":"uint256","name":"recoveryEfficiencyPercent","type":"uint256"},{"internalType":"uint256","name":"marketPriceCentsPerMg","type":"uint256"},{"internalType":"uint256","name":"recoveryCostPercent","type":"uint256"}],"stateMutability":"view","type":"function"}],"evm":{"bytecode":{"linkReferences":{},"object":"608060405234801561001057600080fd5b506100966040518060400160405280600c81526020017f4d6f62696c652050686f6e6500000000000000000000000000000000000000008152506040518060400160405280600481526020017f476f6c640000000000000000000000000000000000000000000000000000000081525061012c605f628151786008610bf260201b60201c565b61011b6040518060400160405280600c81526020017f4d6f62696c652050686f6e6500000000000000000000000000000000000000008152506040518060400160405280600681526020017f53696c76657200000000000000000000000000000000000000000000000000008152506103e8605a6201782c6008610bf260201b60201c565b6101a06040518060400160405280600c81526020017f4d6f62696c652050686f6e6500000000000000000000000000000000000000008152506040518060400160405280600681526020017f436f707065720000000000000000000000000000000000000000000000000000815250620249f0605561038b6014610bf260201b60201c565b6102246040518060400160405280600c81526020017f4d6f62696c652050686f6e6500000000000000000000000000000000000000008152506040518060400160405280600981526020017f50616c6c616469756d00000000000000000000000000000000000000000000008152506014605a622bf2006008610bf260201b60201c565b6102a76040518060400160405280600c81526020017f4d6f62696c652050686f6e6500000000000000000000000000000000000000008152506040518060400160405280600981526020017f416c756d696e69756d0000000000000000000000000000000000000000000000815250619c40605560f96014610bf260201b60201c565b61032b6040518060400160405280600c81526020017f4d6f62696c652050686f6e6500000000000000000000000000000000000000008152506040518060400160405280600481526020017f49726f6e0000000000000000000000000000000000000000000000000000000081525062030d40605a600a6014610bf260201b60201c565b6103af6040518060400160405280600c81526020017f4d6f62696c652050686f6e6500000000000000000000000000000000000000008152506040518060400160405280600681526020017f4e69636b656c000000000000000000000000000000000000000000000000000081525061138860506105f16014610bf260201b60201c565b6104336040518060400160405280600c81526020017f4d6f62696c652050686f6e6500000000000000000000000000000000000000008152506040518060400160405280600481526020017f5a696e6300000000000000000000000000000000000000000000000000000000815250610bb860506101226014610bf260201b60201c565b6104b66040518060400160405280600c81526020017f4d6f62696c652050686f6e6500000000000000000000000000000000000000008152506040518060400160405280600481526020017f4c656164000000000000000000000000000000000000000000000000000000008152506107d0604b60c26014610bf260201b60201c565b61053a6040518060400160405280600c81526020017f4d6f62696c652050686f6e6500000000000000000000000000000000000000008152506040518060400160405280600381526020017f54696e00000000000000000000000000000000000000000000000000000000008152506103e86046610bb26014610bf260201b60201c565b6105be6040518060400160405280600681526020017f4c6170746f7000000000000000000000000000000000000000000000000000008152506040518060400160405280600481526020017f476f6c6400000000000000000000000000000000000000000000000000000000815250605a603f628151786008610bf260201b60201c565b6106426040518060400160405280600681526020017f4c6170746f7000000000000000000000000000000000000000000000000000008152506040518060400160405280600681526020017f53696c766572000000000000000000000000000000000000000000000000000081525060c8603f6201782c6008610bf260201b60201c565b6106c76040518060400160405280600681526020017f4c6170746f7000000000000000000000000000000000000000000000000000008152506040518060400160405280600681526020017f436f70706572000000000000000000000000000000000000000000000000000081525062010b94605561038b6014610bf260201b60201c565b61074b6040518060400160405280600681526020017f4c6170746f7000000000000000000000000000000000000000000000000000008152506040518060400160405280600981526020017f50616c6c616469756d00000000000000000000000000000000000000000000008152506032603f622bf2006008610bf260201b60201c565b6107cf6040518060400160405280600681526020017f4c6170746f7000000000000000000000000000000000000000000000000000008152506040518060400160405280600981526020017f416c756d696e69756d0000000000000000000000000000000000000000000000815250620149b0604b60f96014610bf260201b60201c565b6108536040518060400160405280600681526020017f4c6170746f7000000000000000000000000000000000000000000000000000008152506040518060400160405280600481526020017f49726f6e0000000000000000000000000000000000000000000000000000000081525062022ab06056600a6014610bf260201b60201c565b6108d76040518060400160405280600681526020017f4c6170746f7000000000000000000000000000000000000000000000000000008152506040518060400160405280600681526020017f4e69636b656c00000000000000000000000000000000000000000000000000008152506161a8605a6105f16014610bf260201b60201c565b61095b6040518060400160405280600681526020017f4c6170746f7000000000000000000000000000000000000000000000000000008152506040518060400160405280600481526020017f5a696e6300000000000000000000000000000000000000000000000000000000815250610fa0605a6101226014610bf260201b60201c565b6109de6040518060400160405280600681526020017f4c6170746f7000000000000000000000000000000000000000000000000000008152506040518060400160405280600481526020017f4c65616400000000000000000000000000000000000000000000000000000000815250611388605a60c26014610bf260201b60201c565b610a626040518060400160405280600681526020017f4c6170746f7000000000000000000000000000000000000000000000000000008152506040518060400160405280600381526020017f54696e0000000000000000000000000000000000000000000000000000000000815250611f40605a610bb26014610bf260201b60201c565b610ae66040518060400160405280600681526020017f4c6170746f7000000000000000000000000000000000000000000000000000008152506040518060400160405280600681526020017f436f62616c740000000000000000000000000000000000000000000000000000815250614e20605a6105f16014610bf260201b60201c565b610b6a6040518060400160405280600681526020017f4c6170746f7000000000000000000000000000000000000000000000000000008152506040518060400160405280600881526020017f4368726f6d69756d0000000000000000000000000000000000000000000000008152506107d0605a6105f16014610bf260201b60201c565b610bed6040518060400160405280600681526020017f4c6170746f7000000000000000000000000000000000000000000000000000008152506040518060400160405280600981526020017f4d61676e657369756d0000000000000000000000000000000000000000000000815250612710605a60f96014610bf260201b60201c565b6110ee565b60006040518060c001604052808781526020018881526020018681526020018581526020018481526020018381525090806001815401808255809150506001900390600052602060002090600602016000909190919091506000820151816000019081610c5f9190610f35565b506020820151816001019081610c759190610f35565b5060408201518160020155606082015181600301556080820151816004015560a0820151816005015550507fd3fc49c979da257b3d58b4d31ff673185ef4383e57dcc8cb9ac754e7bcc8c61886868685604051610cd5949392919061109b565b60405180910390a1505050505050565b600081519050919050565b7f4e487b7100000000000000000000000000000000000000000000000000000000600052604160045260246000fd5b7f4e487b7100000000000000000000000000000000000000000000000000000000600052602260045260246000fd5b60006002820490506001821680610d6657607f821691505b602082108103610d7957610d78610d1f565b5b50919050565b60008190508160005260206000209050919050565b60006020601f8301049050919050565b600082821b905092915050565b600060088302610de17fffffffffffffffffffffffffffffffffffffffffffffffffffffffffffffffff82610da4565b610deb8683610da4565b95508019841693508086168417925050509392505050565b6000819050919050565b6000819050919050565b6000610e32610e2d610e2884610e03565b610e0d565b610e03565b9050919050565b6000819050919050565b610e4c83610e17565b610e60610e5882610e39565b848454610db1565b825550505050565b600090565b610e75610e68565b610e80818484610e43565b505050565b5b81811015610ea457610e99600082610e6d565b600181019050610e86565b5050565b601f821115610ee957610eba81610d7f565b610ec384610d94565b81016020851015610ed2578190505b610ee6610ede85610d94565b830182610e85565b50505b505050565b600082821c905092915050565b6000610f0c60001984600802610eee565b1980831691505092915050565b6000610f258383610efb565b9150826002028217905092915050565b610f3e82610ce5565b67ffffffffffffffff811115610f5757610f56610cf0565b5b610f618254610d4e565b610f6c828285610ea8565b600060209050601f831160018114610f9f5760008415610f8d578287015190505b610f978582610f19565b865550610fff565b601f198416610fad86610d7f565b60005b82811015610fd557848901518255600182019150602085019450602081019050610fb0565b86831015610ff25784890151610fee601f891682610efb565b8355505b6001600288020188555050505b505050505050565b600082825260208201905092915050565b60005b8381101561103657808201518184015260208101905061101b565b60008484015250505050565b6000601f19601f8301169050919050565b600061105e82610ce5565b6110688185611007565b9350611078818560208601611018565b61108181611042565b840191505092915050565b61109581610e03565b82525050565b600060808201905081810360008301526110b58187611053565b905081810360208301526110c98186611053565b90506110d8604083018561108c565b6110e5606083018461108c565b95945050505050565b61173e806110fd6000396000f3fe608060405234801561001057600080fd5b506004361061007d5760003560e01c806332d8db6e1161005b57806332d8db6e146100ff5780638af85f9114610134578063ae65e32714610150578063f359bc23146101805761007d565b80630261ec32146100825780630417d997146100b257806316c0e2d9146100e3575b600080fd5b61009c60048036038101906100979190610d78565b61019e565b6040516100a99190610f02565b60405180910390f35b6100cc60048036038101906100c79190610f5a565b6105a2565b6040516100da929190610fe0565b60405180910390f35b6100fd60048036038101906100f89190611010565b61065e565b005b61011960048036038101906101149190610f5a565b610751565b60405161012b969594939291906110d5565b60405180910390f35b61014e60048036038101906101499190611144565b6108ad565b005b61016a60048036038101906101659190611144565b61098e565b60405161017791906111a0565b60405180910390f35b610188610c12565b60405161019591906111a0565b60405180910390f35b60606000805b6000805490508110156103635760008082815481106101c6576101c56111bb565b5b90600052602060002090600602016040518060c00160405290816000820180546101ef90611219565b80601f016020809104026020016040519081016040528092919081815260200182805461021b90611219565b80156102685780601f1061023d57610100808354040283529160200191610268565b820191906000526020600020905b81548152906001019060200180831161024b57829003601f168201915b5050505050815260200160018201805461028190611219565b80601f01602080910402602001604051908101604052809291908181526020018280546102ad90611219565b80156102fa5780601f106102cf576101008083540402835291602001916102fa565b820191906000526020600020905b8154815290600101906020018083116102dd57829003601f168201915b50505050508152602001600282015481526020016003820154815260200160048201548152602001600582015481525050905084805190602001208160200151805190602001200361035557828061035190611279565b9350505b5080806001019150506101a4565b508067ffffffffffffffff81111561037e5761037d610c4d565b5b6040519080825280602002602001820160405280156103b157816020015b606081526020019060019003908161039c5790505b5091506000805b60008054905081101561059a5760008082815481106103da576103d96111bb565b5b90600052602060002090600602016040518060c001604052908160008201805461040390611219565b80601f016020809104026020016040519081016040528092919081815260200182805461042f90611219565b801561047c5780601f106104515761010080835404028352916020019161047c565b820191906000526020600020905b81548152906001019060200180831161045f57829003601f168201915b5050505050815260200160018201805461049590611219565b80601f01602080910402602001604051908101604052809291908181526020018280546104c190611219565b801561050e5780601f106104e35761010080835404028352916020019161050e565b820191906000526020600020905b8154815290600101906020018083116104f157829003601f168201915b50505050508152602001600282015481526020016003820154815260200160048201548152602001600582015481525050905085805190602001208160200151805190602001200361058c578060000151858481518110610572576105716111bb565b5b6020026020010181905250828061058890611279565b9350505b5080806001019150506103b8565b505050919050565b600181815481106105b257600080fd5b90600052602060002090600202016000915090508060000180546105d590611219565b80601f016020809104026020016040519081016040528092919081815260200182805461060190611219565b801561064e5780601f106106235761010080835404028352916020019161064e565b820191906000526020600020905b81548152906001019060200180831161063157829003601f168201915b5050505050908060010154905082565b60006040518060c0016040528087815260200188815260200186815260200185815260200184815260200183815250908060018154018082558091505060019003906000526020600020906006020160009091909190915060008201518160000190816106cb919061146d565b5060208201518160010190816106e1919061146d565b5060408201518160020155606082015181600301556080820151816004015560a0820151816005015550507fd3fc49c979da257b3d58b4d31ff673185ef4383e57dcc8cb9ac754e7bcc8c61886868685604051610741949392919061153f565b60405180910390a1505050505050565b6000818154811061076157600080fd5b906000526020600020906006020160009150905080600001805461078490611219565b80601f01602080910402602001604051908101604052809291908181526020018280546107b090611219565b80156107fd5780601f106107d2576101008083540402835291602001916107fd565b820191906000526020600020905b8154815290600101906020018083116107e057829003601f168201915b50505050509080600101805461081290611219565b80601f016020809104026020016040519081016040528092919081815260200182805461083e90611219565b801561088b5780601f106108605761010080835404028352916020019161088b565b820191906000526020600020905b81548152906001019060200180831161086e57829003601f168201915b5050505050908060020154908060030154908060040154908060050154905086565b600081116108f0576040517f08c379a00000000000000000000000000000000000000000000000000000000081526004016108e7906115de565b60405180910390fd5b600160405180604001604052808481526020018381525090806001815401808255809150506001900390600052602060002090600202016000909190919091506000820151816000019081610945919061146d565b506020820151816001015550507e9e153f5209863356300c774fe4b7b1e96b4ded6e3db316e37aa6e6a0bd6e048282604051610982929190610fe0565b60405180910390a15050565b60006103e882116109d4576040517f08c379a00000000000000000000000000000000000000000000000000000000081526004016109cb906115de565b60405180910390fd5b6000905060005b600080549050811015610c0b5760008082815481106109fd576109fc6111bb565b5b90600052602060002090600602016040518060c0016040529081600082018054610a2690611219565b80601f0160208091040260200160405190810160405280929190818152602001828054610a5290611219565b8015610a9f5780601f10610a7457610100808354040283529160200191610a9f565b820191906000526020600020905b815481529060010190602001808311610a8257829003601f168201915b50505050508152602001600182018054610ab890611219565b80601f0160208091040260200160405190810160405280929190818152602001828054610ae490611219565b8015610b315780601f10610b0657610100808354040283529160200191610b31565b820191906000526020600020905b815481529060010190602001808311610b1457829003601f168201915b505050505081526020016002820154815260200160038201548152602001600482015481526020016005820154815250509050848051906020012081602001518051906020012003610bfd57600060648260600151836040015187610b9691906115fe565b610ba091906115fe565b610baa919061166f565b90506000826080015182610bbe91906115fe565b9050600060648460a0015183610bd491906115fe565b610bde919061166f565b90508082610bec91906116a0565b86610bf791906116d4565b95505050505b5080806001019150506109db565b5092915050565b60008080549050905090565b6000604051905090565b600080fd5b600080fd5b600080fd5b600080fd5b6000601f19601f8301169050919050565b7f4e487b7100000000000000000000000000000000000000000000000000000000600052604160045260246000fd5b610c8582610c3c565b810181811067ffffffffffffffff82111715610ca457610ca3610c4d565b5b80604052505050565b6000610cb7610c1e565b9050610cc38282610c7c565b919050565b600067ffffffffffffffff821115610ce357610ce2610c4d565b5b610cec82610c3c565b9050602081019050919050565b82818337600083830152505050565b6000610d1b610d1684610cc8565b610cad565b905082815260208101848484011115610d3757610d36610c37565b5b610d42848285610cf9565b509392505050565b600082601f830112610d5f57610d5e610c32565b5b8135610d6f848260208601610d08565b91505092915050565b600060208284031215610d8e57610d8d610c28565b5b600082013567ffffffffffffffff811115610dac57610dab610c2d565b5b610db884828501610d4a565b91505092915050565b600081519050919050565b600082825260208201905092915050565b6000819050602082019050919050565b600081519050919050565b600082825260208201905092915050565b60005b83811015610e27578082015181840152602081019050610e0c565b60008484015250505050565b6000610e3e82610ded565b610e488185610df8565b9350610e58818560208601610e09565b610e6181610c3c565b840191505092915050565b6000610e788383610e33565b905092915050565b6000602082019050919050565b6000610e9882610dc1565b610ea28185610dcc565b935083602082028501610eb485610ddd565b8060005b85811015610ef05784840389528151610ed18582610e6c565b9450610edc83610e80565b925060208a01995050600181019050610eb8565b50829750879550505050505092915050565b60006020820190508181036000830152610f1c8184610e8d565b905092915050565b6000819050919050565b610f3781610f24565b8114610f4257600080fd5b50565b600081359050610f5481610f2e565b92915050565b600060208284031215610f7057610f6f610c28565b5b6000610f7e84828501610f45565b91505092915050565b600082825260208201905092915050565b6000610fa382610ded565b610fad8185610f87565b9350610fbd818560208601610e09565b610fc681610c3c565b840191505092915050565b610fda81610f24565b82525050565b60006040820190508181036000830152610ffa8185610f98565b90506110096020830184610fd1565b9392505050565b60008060008060008060c0878903121561102d5761102c610c28565b5b600087013567ffffffffffffffff81111561104b5761104a610c2d565b5b61105789828a01610d4a565b965050602087013567ffffffffffffffff81111561107857611077610c2d565b5b61108489828a01610d4a565b955050604061109589828a01610f45565b94505060606110a689828a01610f45565b93505060806110b789828a01610f45565b92505060a06110c889828a01610f45565b9150509295509295509295565b600060c08201905081810360008301526110ef8189610f98565b905081810360208301526111038188610f98565b90506111126040830187610fd1565b61111f6060830186610fd1565b61112c6080830185610fd1565b61113960a0830184610fd1565b979650505050505050565b6000806040838503121561115b5761115a610c28565b5b600083013567ffffffffffffffff81111561117957611178610c2d565b5b61118585828601610d4a565b925050602061119685828601610f45565b9150509250929050565b60006020820190506111b56000830184610fd1565b92915050565b7f4e487b7100000000000000000000000000000000000000000000000000000000600052603260045260246000fd5b7f4e487b7100000000000000000000000000000000000000000000000000000000600052602260045260246000fd5b6000600282049050600182168061123157607f821691505b602082108103611244576112436111ea565b5b50919050565b7f4e487b7100000000000000000000000000000000000000000000000000000000600052601160045260246000fd5b600061128482610f24565b91507fffffffffffffffffffffffffffffffffffffffffffffffffffffffffffffffff82036112b6576112b561124a565b5b600182019050919050565b60008190508160005260206000209050919050565b60006020601f8301049050919050565b600082821b905092915050565b6000600883026113237fffffffffffffffffffffffffffffffffffffffffffffffffffffffffffffffff826112e6565b61132d86836112e6565b95508019841693508086168417925050509392505050565b6000819050919050565b600061136a61136561136084610f24565b611345565b610f24565b9050919050565b6000819050919050565b6113848361134f565b61139861139082611371565b8484546112f3565b825550505050565b600090565b6113ad6113a0565b6113b881848461137b565b505050565b5b818110156113dc576113d16000826113a5565b6001810190506113be565b5050565b601f821115611421576113f2816112c1565b6113fb846112d6565b8101602085101561140a578190505b61141e611416856112d6565b8301826113bd565b50505b505050565b600082821c905092915050565b600061144460001984600802611426565b1980831691505092915050565b600061145d8383611433565b9150826002028217905092915050565b61147682610ded565b67ffffffffffffffff81111561148f5761148e610c4d565b5b6114998254611219565b6114a48282856113e0565b600060209050601f8311600181146114d757600084156114c5578287015190505b6114cf8582611451565b865550611537565b601f1984166114e5866112c1565b60005b8281101561150d578489015182556001820191506020850194506020810190506114e8565b8683101561152a5784890151611526601f891682611433565b8355505b6001600288020188555050505b505050505050565b600060808201905081810360008301526115598187610f98565b9050818103602083015261156d8186610f98565b905061157c6040830185610fd1565b6115896060830184610fd1565b95945050505050565b7f416d6f756e74206d7573742062652067726561746572207468616e207a65726f600082015250565b60006115c8602083610f87565b91506115d382611592565b602082019050919050565b600060208201905081810360008301526115f7816115bb565b9050919050565b600061160982610f24565b915061161483610f24565b925082820261162281610f24565b915082820484148315176116395761163861124a565b5b5092915050565b7f4e487b7100000000000000000000000000000000000000000000000000000000600052601260045260246000fd5b600061167a82610f24565b915061168583610f24565b92508261169557611694611640565b5b828204905092915050565b60006116ab82610f24565b91506116b683610f24565b92508282039050818111156116ce576116cd61124a565b5b92915050565b60006116df82610f24565b91506116ea83610f24565b92508282019050808211156117025761170161124a565b5b9291505056fea2646970667358221220dbc03fd4b5aa37e901778a5419d9d7f98fffe2cfda769d75a07fe35e013bad0c64736f6c634300081c0033","opcodes":"PUSH1 0x80 PUSH1 0x40 MSTORE CALLVALUE DUP1 ISZERO PUSH2 0x10 JUMPI PUSH1 0x0 DUP1 REVERT JUMPDEST POP PUSH2 0x96 PUSH1 0x40 MLOAD DUP1 PUSH1 0x40 ADD PUSH1 0x40 MSTORE DUP1 PUSH1 0xC DUP2 MSTORE PUSH1 0x20 ADD PUSH32 0x4D6F62696C652050686F6E650000000000000000000000000000000000000000 DUP2 MSTORE POP PUSH1 0x40 MLOAD DUP1 PUSH1 0x40 ADD PUSH1 0x40 MSTORE DUP1 PUSH1 0x4 DUP2 MSTORE PUSH1 0x20 ADD PUSH32 0x476F6C6400000000000000000000000000000000000000000000000000000000 DUP2 MSTORE POP PUSH2 0x12C PUSH1 0x5F PUSH3 0x815178 PUSH1 0x8 PUSH2 0xBF2 PUSH1 0x20 SHL PUSH1 0x20 SHR JUMP JUMPDEST PUSH2 0x11B PUSH1 0x40 MLOAD DUP1 PUSH1 0x40 ADD PUSH1 0x40 MSTORE DUP1 PUSH1 0xC DUP2 MSTORE PUSH1 0x20 ADD PUSH32 0x4D6F62696C652050686F6E650000000000000000000000000000000000000000 DUP2 MSTORE POP PUSH1 0x40 MLOAD DUP1 PUSH1 0x40 ADD PUSH1 0x40 MSTORE DUP1 PUSH1 0x6 DUP2 MSTORE PUSH1 0x20 ADD PUSH32 0x53696C7665720000000000000000000000000000000000000000000000000000 DUP2 MSTORE POP PUSH2 0x3E8 PUSH1 0x5A PUSH3 0x1782C PUSH1 0x8 PUSH2 0xBF2 PUSH1 0x20 SHL PUSH1 0x20 SHR JUMP JUMPDEST PUSH2 0x1A0 PUSH1 0x40 MLOAD DUP1 PUSH1 0x40 ADD PUSH1 0x40 MSTORE DUP1 PUSH1 0xC DUP2 MSTORE PUSH1 0x20 ADD PUSH32 0x4D6F62696C652050686F6E650000000000000000000000000000000000000000 DUP2 MSTORE POP PUSH1 0x40 MLOAD DUP1 PUSH1 0x40 ADD PUSH1 0x40 MSTORE DUP1 PUSH1 0x6 DUP2 MSTORE PUSH1 0x20 ADD PUSH32 0x436F707065720000000000000000000000000000000000000000000000000000 DUP2 MSTORE POP PUSH3 0x249F0 PUSH1 0x55 PUSH2 0x38B PUSH1 0x14 PUSH2 0xBF2 PUSH1 0x20 SHL PUSH1 0x20 SHR JUMP JUMPDEST PUSH2 0x224 PUSH1 0x40 MLOAD DUP1 PUSH1 0x40 ADD PUSH1 0x40 MSTORE DUP1 PUSH1 0xC DUP2 MSTORE PUSH1 0x20 ADD PUSH32 0x4D6F62696C652050686F6E650000000000000000000000000000000000000000 DUP2 MSTORE POP PUSH1 0x40 MLOAD DUP1 PUSH1 0x40 ADD PUSH1 0x40 MSTORE DUP1 PUSH1 0x9 DUP2 MSTORE PUSH1 0x20 ADD PUSH32 0x50616C6C616469756D0000000000000000000000000000000000000000000000 DUP2 MSTORE POP PUSH1 0x14 PUSH1 0x5A PUSH3 0x2BF200 PUSH1 0x8 PUSH2 0xBF2 PUSH1 0x20 SHL PUSH1 0x20 SHR JUMP JUMPDEST PUSH2 0x2A7 PUSH1 0x40 MLOAD DUP1 PUSH1 0x40 ADD PUSH1 0x40 MSTORE DUP1 PUSH1 0xC DUP2 MSTORE PUSH1 0x20 ADD PUSH32 0x4D6F62696C652050686F6E650000000000000000000000000000000000000000 DUP2 MSTORE POP PUSH1 0x40 MLOAD DUP1 PUSH1 0x40 ADD PUSH1 0x40 MSTORE DUP1 PUSH1 0x9 DUP2 MSTORE PUSH1 0x20 ADD PUSH32 0x416C756D696E69756D0000000000000000000000000000000000000000000000 DUP2 MSTORE POP PUSH2 0x9C40 PUSH1 0x55 PUSH1 0xF9 PUSH1 0x14 PUSH2 0xBF2 PUSH1 0x20 SHL PUSH1 0x20 SHR JUMP JUMPDEST PUSH2 0x32B PUSH1 0x40 MLOAD DUP1 PUSH1 0x40 ADD PUSH1 0x40 MSTORE DUP1 PUSH1 0xC DUP2 MSTORE PUSH1 0x20 ADD PUSH32 0x4D6F62696C652050686F6E650000000000000000000000000000000000000000 DUP2 MSTORE POP PUSH1 0x40 MLOAD DUP1 PUSH1 0x40 ADD PUSH1 0x40 MSTORE DUP1 PUSH1 0x4 DUP2 MSTORE PUSH1 0x20 ADD PUSH32 0x49726F6E00000000000000000000000000000000000000000000000000000000 DUP2 MSTORE POP PUSH3 0x30D40 PUSH1 0x5A PUSH1 0xA PUSH1 0x14 PUSH2 0xBF2 PUSH1 0x20 SHL PUSH1 0x20 SHR JUMP JUMPDEST PUSH2 0x3AF PUSH1 0x40 MLOAD DUP1 PUSH1 0x40 ADD PUSH1 0x40 MSTORE DUP1 PUSH1 0xC DUP2 MSTORE PUSH1 0x20 ADD PUSH32 0x4D6F62696C652050686F6E650000000000000000000000000000000000000000 DUP2 MSTORE POP PUSH1 0x40 MLOAD DUP1 PUSH1 0x40 ADD PUSH1 0x40 MSTORE DUP1 PUSH1 0x6 DUP2 MSTORE PUSH1 0x20 ADD PUSH32 0x4E69636B656C0000000000000000000000000000000000000000000000000000 DUP2 MSTORE POP PUSH2 0x1388 PUSH1 0x50 PUSH2 0x5F1 PUSH1 0x14 PUSH2 0xBF2 PUSH1 0x20 SHL PUSH1 0x20 SHR JUMP JUMPDEST PUSH2 0x433 PUSH1 0x40 MLOAD DUP1 PUSH1 0x40 ADD PUSH1 0x40 MSTORE DUP1 PUSH1 0xC DUP2 MSTORE PUSH1 0x20 ADD PUSH32 0x4D6F62696C652050686F6E650000000000000000000000000000000000000000 DUP2 MSTORE POP PUSH1 0x40 MLOAD DUP1 PUSH1 0x40 ADD PUSH1 0x40 MSTORE DUP1 PUSH1 0x4 DUP2 MSTORE PUSH1 0x20 ADD PUSH32 0x5A696E6300000000000000000000000000000000000000000000000000000000 DUP2 MSTORE POP PUSH2 0xBB8 PUSH1 0x50 PUSH2 0x122 PUSH1 0x14 PUSH2 0xBF2 PUSH1 0x20 SHL PUSH1 0x20 SHR JUMP JUMPDEST PUSH2 0x4B6 PUSH1 0x40 MLOAD DUP1 PUSH1 0x40 ADD PUSH1 0x40 MSTORE DUP1 PUSH1 0xC DUP2 MSTORE PUSH1 0x20 ADD PUSH32 0x4D6F62696C652050686F6E650000000000000000000000000000000000000000 DUP2 MSTORE POP PUSH1 0x40 MLOAD DUP1 PUSH1 0x40 ADD PUSH1 0x40 MSTORE DUP1 PUSH1 0x4 DUP2 MSTORE PUSH1 0x20 ADD PUSH32 0x4C65616400000000000000000000000000000000000000000000000000000000 DUP2 MSTORE POP PUSH2 0x7D0 PUSH1 0x4B PUSH1 0xC2 PUSH1 0x14 PUSH2 0xBF2 PUSH1 0x20 SHL PUSH1 0x20 SHR JUMP JUMPDEST PUSH2 0x53A PUSH1 0x40 MLOAD DUP1 PUSH1 0x40 ADD PUSH1 0x40 MSTORE DUP1 PUSH1 0xC DUP2 MSTORE PUSH1 0x20 ADD PUSH32 0x4D6F62696C652050686F6E650000000000000000000000000000000000000000 DUP2 MSTORE POP PUSH1 0x40 MLOAD DUP1 PUSH1 0x40 ADD PUSH1 0x40 MSTORE DUP1 PUSH1 0x3 DUP2 MSTORE PUSH1 0x20 ADD PUSH32 0x54696E0000000000000000000000000000000000000000000000000000000000 DUP2 MSTORE POP PUSH2 0x3E8 PUSH1 0x46 PUSH2 0xBB2 PUSH1 0x14 PUSH2 0xBF2 PUSH1 0x20 SHL PUSH1 0x20 SHR JUMP JUMPDEST PUSH2 0x5BE PUSH1 0x40 MLOAD DUP1 PUSH1 0x40 ADD PUSH1 0x40 MSTORE DUP1 PUSH1 0x6 DUP2 MSTORE PUSH1 0x20 ADD PUSH32 0x4C6170746F700000000000000000000000000000000000000000000000000000 DUP2 MSTORE POP PUSH1 0x40 MLOAD DUP1 PUSH1 0x40 ADD PUSH1 0x40 MSTORE DUP1 PUSH1 0x4 DUP2 MSTORE PUSH1 0x20 ADD PUSH32 0x476F6C6400000000000000000000000000000000000000000000000000000000 DUP2 MSTORE POP PUSH1 0x5A PUSH1 0x3F PUSH3 0x815178 PUSH1 0x8 PUSH2 0xBF2 PUSH1 0x20 SHL PUSH1 0x20 SHR JUMP JUMPDEST PUSH2 0x642 PUSH1 0x40 MLOAD DUP1 PUSH1 0x40 ADD PUSH1 0x40 MSTORE DUP1 PUSH1 0x6 DUP2 MSTORE PUSH1 0x20 ADD PUSH32 0x4C6170746F700000000000000000000000000000000000000000000000000000 DUP2 MSTORE POP PUSH1 0x40 MLOAD DUP1 PUSH1 0x40 ADD PUSH1 0x40 MSTORE DUP1 PUSH1 0x6 DUP2 MSTORE PUSH1 0x20 ADD PUSH32 0x53696C7665720000000000000000000000000000000000000000000000000000 DUP2 MSTORE POP PUSH1 0xC8 PUSH1 0x3F PUSH3 0x1782C PUSH1 0x8 PUSH2 0xBF2 PUSH1 0x20 SHL PUSH1 0x20 SHR JUMP JUMPDEST PUSH2 0x6C7 PUSH1 0x40 MLOAD DUP1 PUSH1 0x40 ADD PUSH1 0x40 MSTORE DUP1 PUSH1 0x6 DUP2 MSTORE PUSH1 0x20 ADD PUSH32 0x4C6170746F700000000000000000000000000000000000000000000000000000 DUP2 MSTORE POP PUSH1 0x40 MLOAD DUP1 PUSH1 0x40 ADD PUSH1 0x40 MSTORE DUP1 PUSH1 0x6 DUP2 MSTORE PUSH1 0x20 ADD PUSH32 0x436F707065720000000000000000000000000000000000000000000000000000 DUP2 MSTORE POP PUSH3 0x10B94 PUSH1 0x55 PUSH2 0x38B PUSH1 0x14 PUSH2 0xBF2 PUSH1 0x20 SHL PUSH1 0x20 SHR JUMP JUMPDEST PUSH2 0x74B PUSH1 0x40 MLOAD DUP1 PUSH1 0x40 ADD PUSH1 0x40 MSTORE DUP1 PUSH1 0x6 DUP2 MSTORE PUSH1 0x20 ADD PUSH32 0x4C6170746F700000000000000000000000000000000000000000000000000000 DUP2 MSTORE POP PUSH1 0x40 MLOAD DUP1 PUSH1 0x40 ADD PUSH1 0x40 MSTORE DUP1 PUSH1 0x9 DUP2 MSTORE PUSH1 0x20 ADD PUSH32 0x50616C6C616469756D0000000000000000000000000000000000000000000000 DUP2 MSTORE POP PUSH1 0x32 PUSH1 0x3F PUSH3 0x2BF200 PUSH1 0x8 PUSH2 0xBF2 PUSH1 0x20 SHL PUSH1 0x20 SHR JUMP JUMPDEST PUSH2 0x7CF PUSH1 0x40 MLOAD DUP1 PUSH1 0x40 ADD PUSH1 0x40 MSTORE DUP1 PUSH1 0x6 DUP2 MSTORE PUSH1 0x20 ADD PUSH32 0x4C6170746F700000000000000000000000000000000000000000000000000000 DUP2 MSTORE POP PUSH1 0x40 MLOAD DUP1 PUSH1 0x40 ADD PUSH1 0x40 MSTORE DUP1 PUSH1 0x9 DUP2 MSTORE PUSH1 0x20 ADD PUSH32 0x416C756D696E69756D0000000000000000000000000000000000000000000000 DUP2 MSTORE POP PUSH3 0x149B0 PUSH1 0x4B PUSH1 0xF9 PUSH1 0x14 PUSH2 0xBF2 PUSH1 0x20 SHL PUSH1 0x20 SHR JUMP JUMPDEST PUSH2 0x853 PUSH1 0x40 MLOAD DUP1 PUSH1 0x40 ADD PUSH1 0x40 MSTORE DUP1 PUSH1 0x6 DUP2 MSTORE PUSH1 0x20 ADD PUSH32 0x4C6170746F700000000000000000000000000000000000000000000000000000 DUP2 MSTORE POP PUSH1 0x40 MLOAD DUP1 PUSH1 0x40 ADD PUSH1 0x40 MSTORE DUP1 PUSH1 0x4 DUP2 MSTORE PUSH1 0x20 ADD PUSH32 0x49726F6E00000000000000000000000000000000000000000000000000000000 DUP2 MSTORE POP PUSH3 0x22AB0 PUSH1 0x56 PUSH1 0xA PUSH1 0x14 PUSH2 0xBF2 PUSH1 0x20 SHL PUSH1 0x20 SHR JUMP JUMPDEST PUSH2 0x8D7 PUSH1 0x40 MLOAD DUP1 PUSH1 0x40 ADD PUSH1 0x40 MSTORE DUP1 PUSH1 0x6 DUP2 MSTORE PUSH1 0x20 ADD PUSH32 0x4C6170746F700000000000000000000000000000000000000000000000000000 DUP2 MSTORE POP PUSH1 0x40 MLOAD DUP1 PUSH1 0x40 ADD PUSH1 0x40 MSTORE DUP1 PUSH1 0x6 DUP2 MSTORE PUSH1 0x20 ADD PUSH32 0x4E69636B656C0000000000000000000000000000000000000000000000000000 DUP2 MSTORE POP PUSH2 0x61A8 PUSH1 0x5A PUSH2 0x5F1 PUSH1 0x14 PUSH2 0xBF2 PUSH1 0x20 SHL PUSH1 0x20 SHR JUMP JUMPDEST PUSH2 0x95B PUSH1 0x40 MLOAD DUP1 PUSH1 0x40 ADD PUSH1 0x40 MSTORE DUP1 PUSH1 0x6 DUP2 MSTORE PUSH1 0x20 ADD PUSH32 0x4C6170746F700000000000000000000000000000000000000000000000000000 DUP2 MSTORE POP PUSH1 0x40 MLOAD DUP1 PUSH1 0x40 ADD PUSH1 0x40 MSTORE DUP1 PUSH1 0x4 DUP2 MSTORE PUSH1 0x20 ADD PUSH32 0x5A696E6300000000000000000000000000000000000000000000000000000000 DUP2 MSTORE POP PUSH2 0xFA0 PUSH1 0x5A PUSH2 0x122 PUSH1 0x14 PUSH2 0xBF2 PUSH1 0x20 SHL PUSH1 0x20 SHR JUMP JUMPDEST PUSH2 0x9DE PUSH1 0x40 MLOAD DUP1 PUSH1 0x40 ADD PUSH1 0x40 MSTORE DUP1 PUSH1 0x6 DUP2 MSTORE PUSH1 0x20 ADD PUSH32 0x4C6170746F700000000000000000000000000000000000000000000000000000 DUP2 MSTORE POP PUSH1 0x40 MLOAD DUP1 PUSH1 0x40 ADD PUSH1 0x40 MSTORE DUP1 PUSH1 0x4 DUP2 MSTORE PUSH1 0x20 ADD PUSH32 0x4C65616400000000000000000000000000000000000000000000000000000000 DUP2 MSTORE POP PUSH2 0x1388 PUSH1 0x5A PUSH1 0xC2 PUSH1 0x14 PUSH2 0xBF2 PUSH1 0x20 SHL PUSH1 0x20 SHR JUMP JUMPDEST PUSH2 0xA62 PUSH1 0x40 MLOAD DUP1 PUSH1 0x40 ADD PUSH1 0x40 MSTORE DUP1 PUSH1 0x6 DUP2 MSTORE PUSH1 0x20 ADD PUSH32 0x4C6170746F700000000000000000000000000000000000000000000000000000 DUP2 MSTORE POP PUSH1 0x40 MLOAD DUP1 PUSH1 0x40 ADD PUSH1 0x40 MSTORE DUP1 PUSH1 0x3 DUP2 MSTORE PUSH1 0x20 ADD PUSH32 0x54696E0000000000000000000000000000000000000000000000000000000000 DUP2 MSTORE POP PUSH2 0x1F40 PUSH1 0x5A PUSH2 0xBB2 PUSH1 0x14 PUSH2 0xBF2 PUSH1 0x20 SHL PUSH1 0x20 SHR JUMP JUMPDEST PUSH2 0xAE6 PUSH1 0x40 MLOAD DUP1 PUSH1 0x40 ADD PUSH1 0x40 MSTORE DUP1 PUSH1 0x6 DUP2 MSTORE PUSH1 0x20 ADD PUSH32 0x4C6170746F700000000000000000000000000000000000000000000000000000 DUP2 MSTORE POP PUSH1 0x40 MLOAD DUP1 PUSH1 0x40 ADD PUSH1 0x40 MSTORE DUP1 PUSH1 0x6 DUP2 MSTORE PUSH1 0x20 ADD PUSH32 0x436F62616C740000000000000000000000000000000000000000000000000000 DUP2 MSTORE POP PUSH2 0x4E20 PUSH1 0x5A PUSH2 0x5F1 PUSH1 0x14 PUSH2 0xBF2 PUSH1 0x20 SHL PUSH1 0x20 SHR JUMP JUMPDEST PUSH2 0xB6A PUSH1 0x40 MLOAD DUP1 PUSH1 0x40 ADD PUSH1 0x40 MSTORE DUP1 PUSH1 0x6 DUP2 MSTORE PUSH1 0x20 ADD PUSH32 0x4C6170746F700000000000000000000000000000000000000000000000000000 DUP2 MSTORE POP PUSH1 0x40 MLOAD DUP1 PUSH1 0x40 ADD PUSH1 0x40 MSTORE DUP1 PUSH1 0x8 DUP2 MSTORE PUSH1 0x20 ADD PUSH32 0x4368726F6D69756D000000000000000000000000000000000000000000000000 DUP2 MSTORE POP PUSH2 0x7D0 PUSH1 0x5A PUSH2 0x5F1 PUSH1 0x14 PUSH2 0xBF2 PUSH1 0x20 SHL PUSH1 0x20 SHR JUMP JUMPDEST PUSH2 0xBED PUSH1 0x40 MLOAD DUP1 PUSH1 0x40 ADD PUSH1 0x40 MSTORE DUP1 PUSH1 0x6 DUP2 MSTORE PUSH1 0x20 ADD PUSH32 0x4C6170746F700000000000000000000000000000000000000000000000000000 DUP2 MSTORE POP PUSH1 0x40 MLOAD DUP1 PUSH1 0x40 ADD PUSH1 0x40 MSTORE DUP1 PUSH1 0x9 DUP2 MSTORE PUSH1 0x20 ADD PUSH32 0x4D61676E657369756D0000000000000000000000000000000000000000000000 DUP2 MSTORE POP PUSH2 0x2710 PUSH1 0x5A PUSH1 0xF9 PUSH1 0x14 PUSH2 0xBF2 PUSH1 0x20 SHL PUSH1 0x20 SHR JUMP JUMPDEST PUSH2 0x10EE JUMP JUMPDEST PUSH1 0x0 PUSH1 0x40 MLOAD DUP1 PUSH1 0xC0 ADD PUSH1 0x40 MSTORE DUP1 DUP8 DUP2 MSTORE PUSH1 0x20 ADD DUP9 DUP2 MSTORE PUSH1 0x20 ADD DUP7 DUP2 MSTORE PUSH1 0x20 ADD DUP6 DUP2 MSTORE PUSH1 0x20 ADD DUP5 DUP2 MSTORE PUSH1 0x20 ADD DUP4 DUP2 MSTORE POP SWAP1 DUP1 PUSH1 0x1 DUP2 SLOAD ADD DUP1 DUP3 SSTORE DUP1 SWAP2 POP POP PUSH1 0x1 SWAP1 SUB SWAP1 PUSH1 0x0 MSTORE PUSH1 0x20 PUSH1 0x0 KECCAK256 SWAP1 PUSH1 0x6 MUL ADD PUSH1 0x0 SWAP1 SWAP2 SWAP1 SWAP2 SWAP1 SWAP2 POP PUSH1 0x0 DUP3 ADD MLOAD DUP2 PUSH1 0x0 ADD SWAP1 DUP2 PUSH2 0xC5F SWAP2 SWAP1 PUSH2 0xF35 JUMP JUMPDEST POP PUSH1 0x20 DUP3 ADD MLOAD DUP2 PUSH1 0x1 ADD SWAP1 DUP2 PUSH2 0xC75 SWAP2 SWAP1 PUSH2 0xF35 JUMP JUMPDEST POP PUSH1 0x40 DUP3 ADD MLOAD DUP2 PUSH1 0x2 ADD SSTORE PUSH1 0x60 DUP3 ADD MLOAD DUP2 PUSH1 0x3 ADD SSTORE PUSH1 0x80 DUP3 ADD MLOAD DUP2 PUSH1 0x4 ADD SSTORE PUSH1 0xA0 DUP3 ADD MLOAD DUP2 PUSH1 0x5 ADD SSTORE POP POP PUSH32 0xD3FC49C979DA257B3D58B4D31FF673185EF4383E57DCC8CB9AC754E7BCC8C618 DUP7 DUP7 DUP7 DUP6 PUSH1 0x40 MLOAD PUSH2 0xCD5 SWAP5 SWAP4 SWAP3 SWAP2 SWAP1 PUSH2 0x109B JUMP JUMPDEST PUSH1 0x40 MLOAD DUP1 SWAP2 SUB SWAP1 LOG1 POP POP POP POP POP POP JUMP JUMPDEST PUSH1 0x0 DUP2 MLOAD SWAP1 POP SWAP2 SWAP1 POP JUMP JUMPDEST PUSH32 0x4E487B7100000000000000000000000000000000000000000000000000000000 PUSH1 0x0 MSTORE PUSH1 0x41 PUSH1 0x4 MSTORE PUSH1 0x24 PUSH1 0x0 REVERT JUMPDEST PUSH32 0x4E487B7100000000000000000000000000000000000000000000000000000000 PUSH1 0x0 MSTORE PUSH1 0x22 PUSH1 0x4 MSTORE PUSH1 0x24 PUSH1 0x0 REVERT JUMPDEST PUSH1 0x0 PUSH1 0x2 DUP3 DIV SWAP1 POP PUSH1 0x1 DUP3 AND DUP1 PUSH2 0xD66 JUMPI PUSH1 0x7F DUP3 AND SWAP2 POP JUMPDEST PUSH1 0x20 DUP3 LT DUP2 SUB PUSH2 0xD79 JUMPI PUSH2 0xD78 PUSH2 0xD1F JUMP JUMPDEST JUMPDEST POP SWAP2 SWAP1 POP JUMP JUMPDEST PUSH1 0x0 DUP2 SWAP1 POP DUP2 PUSH1 0x0 MSTORE PUSH1 0x20 PUSH1 0x0 KECCAK256 SWAP1 POP SWAP2 SWAP1 POP JUMP JUMPDEST PUSH1 0x0 PUSH1 0x20 PUSH1 0x1F DUP4 ADD DIV SWAP1 POP SWAP2 SWAP1 POP JUMP JUMPDEST PUSH1 0x0 DUP3 DUP3 SHL SWAP1 POP SWAP3 SWAP2 POP POP JUMP JUMPDEST PUSH1 0x0 PUSH1 0x8 DUP4 MUL PUSH2 0xDE1 PUSH32 0xFFFFFFFFFFFFFFFFFFFFFFFFFFFFFFFFFFFFFFFFFFFFFFFFFFFFFFFFFFFFFFFF DUP3 PUSH2 0xDA4 JUMP JUMPDEST PUSH2 0xDEB DUP7 DUP4 PUSH2 0xDA4 JUMP JUMPDEST SWAP6 POP DUP1 NOT DUP5 AND SWAP4 POP DUP1 DUP7 AND DUP5 OR SWAP3 POP POP POP SWAP4 SWAP3 POP POP POP JUMP JUMPDEST PUSH1 0x0 DUP2 SWAP1 POP SWAP2 SWAP1 POP JUMP JUMPDEST PUSH1 0x0 DUP2 SWAP1 POP SWAP2 SWAP1 POP JUMP JUMPDEST PUSH1 0x0 PUSH2 0xE32 PUSH2 0xE2D PUSH2 0xE28 DUP5 PUSH2 0xE03 JUMP JUMPDEST PUSH2 0xE0D JUMP JUMPDEST PUSH2 0xE03 JUMP JUMPDEST SWAP1 POP SWAP2 SWAP1 POP JUMP JUMPDEST PUSH1 0x0 DUP2 SWAP1 POP SWAP2 SWAP1 POP JUMP JUMPDEST PUSH2 0xE4C DUP4 PUSH2 0xE17 JUMP JUMPDEST PUSH2 0xE60 PUSH2 0xE58 DUP3 PUSH2 0xE39 JUMP JUMPDEST DUP5 DUP5 SLOAD PUSH2 0xDB1 JUMP JUMPDEST DUP3 SSTORE POP POP POP POP JUMP JUMPDEST PUSH1 0x0 SWAP1 JUMP JUMPDEST PUSH2 0xE75 PUSH2 0xE68 JUMP JUMPDEST PUSH2 0xE80 DUP2 DUP5 DUP5 PUSH2 0xE43 JUMP JUMPDEST POP POP POP JUMP JUMPDEST JUMPDEST DUP2 DUP2 LT ISZERO PUSH2 0xEA4 JUMPI PUSH2 0xE99 PUSH1 0x0 DUP3 PUSH2 0xE6D JUMP JUMPDEST PUSH1 0x1 DUP2 ADD SWAP1 POP PUSH2 0xE86 JUMP JUMPDEST POP POP JUMP JUMPDEST PUSH1 0x1F DUP3 GT ISZERO PUSH2 0xEE9 JUMPI PUSH2 0xEBA DUP2 PUSH2 0xD7F JUMP JUMPDEST PUSH2 0xEC3 DUP5 PUSH2 0xD94 JUMP JUMPDEST DUP2 ADD PUSH1 0x20 DUP6 LT ISZERO PUSH2 0xED2 JUMPI DUP2 SWAP1 POP JUMPDEST PUSH2 0xEE6 PUSH2 0xEDE DUP6 PUSH2 0xD94 JUMP JUMPDEST DUP4 ADD DUP3 PUSH2 0xE85 JUMP JUMPDEST POP POP JUMPDEST POP POP POP JUMP JUMPDEST PUSH1 0x0 DUP3 DUP3 SHR SWAP1 POP SWAP3 SWAP2 POP POP JUMP JUMPDEST PUSH1 0x0 PUSH2 0xF0C PUSH1 0x0 NOT DUP5 PUSH1 0x8 MUL PUSH2 0xEEE JUMP JUMPDEST NOT DUP1 DUP4 AND SWAP2 POP POP SWAP3 SWAP2 POP POP JUMP JUMPDEST PUSH1 0x0 PUSH2 0xF25 DUP4 DUP4 PUSH2 0xEFB JUMP JUMPDEST SWAP2 POP DUP3 PUSH1 0x2 MUL DUP3 OR SWAP1 POP SWAP3 SWAP2 POP POP JUMP JUMPDEST PUSH2 0xF3E DUP3 PUSH2 0xCE5 JUMP JUMPDEST PUSH8 0xFFFFFFFFFFFFFFFF DUP2 GT ISZERO PUSH2 0xF57 JUMPI PUSH2 0xF56 PUSH2 0xCF0 JUMP JUMPDEST JUMPDEST PUSH2 0xF61 DUP3 SLOAD PUSH2 0xD4E JUMP JUMPDEST PUSH2 0xF6C DUP3 DUP3 DUP6 PUSH2 0xEA8 JUMP JUMPDEST PUSH1 0x0 PUSH1 0x20 SWAP1 POP PUSH1 0x1F DUP4 GT PUSH1 0x1 DUP2 EQ PUSH2 0xF9F JUMPI PUSH1 0x0 DUP5 ISZERO PUSH2 0xF8D JUMPI DUP3 DUP8 ADD MLOAD SWAP1 POP JUMPDEST PUSH2 0xF97 DUP6 DUP3 PUSH2 0xF19 JUMP JUMPDEST DUP7 SSTORE POP PUSH2 0xFFF JUMP JUMPDEST PUSH1 0x1F NOT DUP5 AND PUSH2 0xFAD DUP7 PUSH2 0xD7F JUMP JUMPDEST PUSH1 0x0 JUMPDEST DUP3 DUP2 LT ISZERO PUSH2 0xFD5 JUMPI DUP5 DUP10 ADD MLOAD DUP3 SSTORE PUSH1 0x1 DUP3 ADD SWAP2 POP PUSH1 0x20 DUP6 ADD SWAP5 POP PUSH1 0x20 DUP2 ADD SWAP1 POP PUSH2 0xFB0 JUMP JUMPDEST DUP7 DUP4 LT ISZERO PUSH2 0xFF2 JUMPI DUP5 DUP10 ADD MLOAD PUSH2 0xFEE PUSH1 0x1F DUP10 AND DUP3 PUSH2 0xEFB JUMP JUMPDEST DUP4 SSTORE POP JUMPDEST PUSH1 0x1 PUSH1 0x2 DUP9 MUL ADD DUP9 SSTORE POP POP POP JUMPDEST POP POP POP POP POP POP JUMP JUMPDEST PUSH1 0x0 DUP3 DUP3 MSTORE PUSH1 0x20 DUP3 ADD SWAP1 POP SWAP3 SWAP2 POP POP JUMP JUMPDEST PUSH1 0x0 JUMPDEST DUP4 DUP2 LT ISZERO PUSH2 0x1036 JUMPI DUP1 DUP3 ADD MLOAD DUP2 DUP5 ADD MSTORE PUSH1 0x20 DUP2 ADD SWAP1 POP PUSH2 0x101B JUMP JUMPDEST PUSH1 0x0 DUP5 DUP5 ADD MSTORE POP POP POP POP JUMP JUMPDEST PUSH1 0x0 PUSH1 0x1F NOT PUSH1 0x1F DUP4 ADD AND SWAP1 POP SWAP2 SWAP1 POP JUMP JUMPDEST PUSH1 0x0 PUSH2 0x105E DUP3 PUSH2 0xCE5 JUMP JUMPDEST PUSH2 0x1068 DUP2 DUP6 PUSH2 0x1007 JUMP JUMPDEST SWAP4 POP PUSH2 0x1078 DUP2 DUP6 PUSH1 0x20 DUP7 ADD PUSH2 0x1018 JUMP JUMPDEST PUSH2 0x1081 DUP2 PUSH2 0x1042 JUMP JUMPDEST DUP5 ADD SWAP2 POP POP SWAP3 SWAP2 POP POP JUMP JUMPDEST PUSH2 0x1095 DUP2 PUSH2 0xE03 JUMP JUMPDEST DUP3 MSTORE POP POP JUMP JUMPDEST PUSH1 0x0 PUSH1 0x80 DUP3 ADD SWAP1 POP DUP2 DUP2 SUB PUSH1 0x0 DUP4 ADD MSTORE PUSH2 0x10B5 DUP2 DUP8 PUSH2 0x1053 JUMP JUMPDEST SWAP1 POP DUP2 DUP2 SUB PUSH1 0x20 DUP4 ADD MSTORE PUSH2 0x10C9 DUP2 DUP7 PUSH2 0x1053 JUMP JUMPDEST SWAP1 POP PUSH2 0x10D8 PUSH1 0x40 DUP4 ADD DUP6 PUSH2 0x108C JUMP JUMPDEST PUSH2 0x10E5 PUSH1 0x60 DUP4 ADD DUP5 PUSH2 0x108C JUMP JUMPDEST SWAP6 SWAP5 POP POP POP POP POP JUMP JUMPDEST PUSH2 0x173E DUP1 PUSH2 0x10FD PUSH1 0x0 CODECOPY PUSH1 0x0 RETURN INVALID PUSH1 0x80 PUSH1 0x40 MSTORE CALLVALUE DUP1 ISZERO PUSH2 0x10 JUMPI PUSH1 0x0 DUP1 REVERT JUMPDEST POP PUSH1 0x4 CALLDATASIZE LT PUSH2 0x7D JUMPI PUSH1 0x0 CALLDATALOAD PUSH1 0xE0 SHR DUP1 PUSH4 0x32D8DB6E GT PUSH2 0x5B JUMPI DUP1 PUSH4 0x32D8DB6E EQ PUSH2 0xFF JUMPI DUP1 PUSH4 0x8AF85F91 EQ PUSH2 0x134 JUMPI DUP1 PUSH4 0xAE65E327 EQ PUSH2 0x150 JUMPI DUP1 PUSH4 0xF359BC23 EQ PUSH2 0x180 JUMPI PUSH2 0x7D JUMP JUMPDEST DUP1 PUSH4 0x261EC32 EQ PUSH2 0x82 JUMPI DUP1 PUSH4 0x417D997 EQ PUSH2 0xB2 JUMPI DUP1 PUSH4 0x16C0E2D9 EQ PUSH2 0xE3 JUMPI JUMPDEST PUSH1 0x0 DUP1 REVERT JUMPDEST PUSH2 0x9C PUSH1 0x4 DUP1 CALLDATASIZE SUB DUP2 ADD SWAP1 PUSH2 0x97 SWAP2 SWAP1 PUSH2 0xD78 JUMP JUMPDEST PUSH2 0x19E JUMP JUMPDEST PUSH1 0x40 MLOAD PUSH2 0xA9 SWAP2 SWAP1 PUSH2 0xF02 JUMP JUMPDEST PUSH1 0x40 MLOAD DUP1 SWAP2 SUB SWAP1 RETURN JUMPDEST PUSH2 0xCC PUSH1 0x4 DUP1 CALLDATASIZE SUB DUP2 ADD SWAP1 PUSH2 0xC7 SWAP2 SWAP1 PUSH2 0xF5A JUMP JUMPDEST PUSH2 0x5A2 JUMP JUMPDEST PUSH1 0x40 MLOAD PUSH2 0xDA SWAP3 SWAP2 SWAP1 PUSH2 0xFE0 JUMP JUMPDEST PUSH1 0x40 MLOAD DUP1 SWAP2 SUB SWAP1 RETURN JUMPDEST PUSH2 0xFD PUSH1 0x4 DUP1 CALLDATASIZE SUB DUP2 ADD SWAP1 PUSH2 0xF8 SWAP2 SWAP1 PUSH2 0x1010 JUMP JUMPDEST PUSH2 0x65E JUMP JUMPDEST STOP JUMPDEST PUSH2 0x119 PUSH1 0x4 DUP1 CALLDATASIZE SUB DUP2 ADD SWAP1 PUSH2 0x114 SWAP2 SWAP1 PUSH2 0xF5A JUMP JUMPDEST PUSH2 0x751 JUMP JUMPDEST PUSH1 0x40 MLOAD PUSH2 0x12B SWAP7 SWAP6 SWAP5 SWAP4 SWAP3 SWAP2 SWAP1 PUSH2 0x10D5 JUMP JUMPDEST PUSH1 0x40 MLOAD DUP1 SWAP2 SUB SWAP1 RETURN JUMPDEST PUSH2 0x14E PUSH1 0x4 DUP1 CALLDATASIZE SUB DUP2 ADD SWAP1 PUSH2 0x149 SWAP2 SWAP1 PUSH2 0x1144 JUMP JUMPDEST PUSH2 0x8AD JUMP JUMPDEST STOP JUMPDEST PUSH2 0x16A PUSH1 0x4 DUP1 CALLDATASIZE SUB DUP2 ADD SWAP1 PUSH2 0x165 SWAP2 SWAP1 PUSH2 0x1144 JUMP JUMPDEST PUSH2 0x98E JUMP JUMPDEST PUSH1 0x40 MLOAD PUSH2 0x177 SWAP2 SWAP1 PUSH2 0x11A0 JUMP JUMPDEST PUSH1 0x40 MLOAD DUP1 SWAP2 SUB SWAP1 RETURN JUMPDEST PUSH2 0x188 PUSH2 0xC12 JUMP JUMPDEST PUSH1 0x40 MLOAD PUSH2 0x195 SWAP2 SWAP1 PUSH2 0x11A0 JUMP JUMPDEST PUSH1 0x40 MLOAD DUP1 SWAP2 SUB SWAP1 RETURN JUMPDEST PUSH1 0x60 PUSH1 0x0 DUP1 JUMPDEST PUSH1 0x0 DUP1 SLOAD SWAP1 POP DUP2 LT ISZERO PUSH2 0x363 JUMPI PUSH1 0x0 DUP1 DUP3 DUP2 SLOAD DUP2 LT PUSH2 0x1C6 JUMPI PUSH2 0x1C5 PUSH2 0x11BB JUMP JUMPDEST JUMPDEST SWAP1 PUSH1 0x0 MSTORE PUSH1 0x20 PUSH1 0x0 KECCAK256 SWAP1 PUSH1 0x6 MUL ADD PUSH1 0x40 MLOAD DUP1 PUSH1 0xC0 ADD PUSH1 0x40 MSTORE SWAP1 DUP2 PUSH1 0x0 DUP3 ADD DUP1 SLOAD PUSH2 0x1EF SWAP1 PUSH2 0x1219 JUMP JUMPDEST DUP1 PUSH1 0x1F ADD PUSH1 0x20 DUP1 SWAP2 DIV MUL PUSH1 0x20 ADD PUSH1 0x40 MLOAD SWAP1 DUP2 ADD PUSH1 0x40 MSTORE DUP1 SWAP3 SWAP2 SWAP1 DUP2 DUP2 MSTORE PUSH1 0x20 ADD DUP3 DUP1 SLOAD PUSH2 0x21B SWAP1 PUSH2 0x1219 JUMP JUMPDEST DUP1 ISZERO PUSH2 0x268 JUMPI DUP1 PUSH1 0x1F LT PUSH2 0x23D JUMPI PUSH2 0x100 DUP1 DUP4 SLOAD DIV MUL DUP4 MSTORE SWAP2 PUSH1 0x20 ADD SWAP2 PUSH2 0x268 JUMP JUMPDEST DUP3 ADD SWAP2 SWAP1 PUSH1 0x0 MSTORE PUSH1 0x20 PUSH1 0x0 KECCAK256 SWAP1 JUMPDEST DUP2 SLOAD DUP2 MSTORE SWAP1 PUSH1 0x1 ADD SWAP1 PUSH1 0x20 ADD DUP1 DUP4 GT PUSH2 0x24B JUMPI DUP3 SWAP1 SUB PUSH1 0x1F AND DUP3 ADD SWAP2 JUMPDEST POP POP POP POP POP DUP2 MSTORE PUSH1 0x20 ADD PUSH1 0x1 DUP3 ADD DUP1 SLOAD PUSH2 0x281 SWAP1 PUSH2 0x1219 JUMP JUMPDEST DUP1 PUSH1 0x1F ADD PUSH1 0x20 DUP1 SWAP2 DIV MUL PUSH1 0x20 ADD PUSH1 0x40 MLOAD SWAP1 DUP2 ADD PUSH1 0x40 MSTORE DUP1 SWAP3 SWAP2 SWAP1 DUP2 DUP2 MSTORE PUSH1 0x20 ADD DUP3 DUP1 SLOAD PUSH2 0x2AD SWAP1 PUSH2 0x1219 JUMP JUMPDEST DUP1 ISZERO PUSH2 0x2FA JUMPI DUP1 PUSH1 0x1F LT PUSH2 0x2CF JUMPI PUSH2 0x100 DUP1 DUP4 SLOAD DIV MUL DUP4 MSTORE SWAP2 PUSH1 0x20 ADD SWAP2 PUSH2 0x2FA JUMP JUMPDEST DUP3 ADD SWAP2 SWAP1 PUSH1 0x0 MSTORE PUSH1 0x20 PUSH1 0x0 KECCAK256 SWAP1 JUMPDEST DUP2 SLOAD DUP2 MSTORE SWAP1 PUSH1 0x1 ADD SWAP1 PUSH1 0x20 ADD DUP1 DUP4 GT PUSH2 0x2DD JUMPI DUP3 SWAP1 SUB PUSH1 0x1F AND DUP3 ADD SWAP2 JUMPDEST POP POP POP POP POP DUP2 MSTORE PUSH1 0x20 ADD PUSH1 0x2 DUP3 ADD SLOAD DUP2 MSTORE PUSH1 0x20 ADD PUSH1 0x3 DUP3 ADD SLOAD DUP2 MSTORE PUSH1 0x20 ADD PUSH1 0x4 DUP3 ADD SLOAD DUP2 MSTORE PUSH1 0x20 ADD PUSH1 0x5 DUP3 ADD SLOAD DUP2 MSTORE POP POP SWAP1 POP DUP5 DUP1 MLOAD SWAP1 PUSH1 0x20 ADD KECCAK256 DUP2 PUSH1 0x20 ADD MLOAD DUP1 MLOAD SWAP1 PUSH1 0x20 ADD KECCAK256 SUB PUSH2 0x355 JUMPI DUP3 DUP1 PUSH2 0x351 SWAP1 PUSH2 0x1279 JUMP JUMPDEST SWAP4 POP POP JUMPDEST POP DUP1 DUP1 PUSH1 0x1 ADD SWAP2 POP POP PUSH2 0x1A4 JUMP JUMPDEST POP DUP1 PUSH8 0xFFFFFFFFFFFFFFFF DUP2 GT ISZERO PUSH2 0x37E JUMPI PUSH2 0x37D PUSH2 0xC4D JUMP JUMPDEST JUMPDEST PUSH1 0x40 MLOAD SWAP1 DUP1 DUP3 MSTORE DUP1 PUSH1 0x20 MUL PUSH1 0x20 ADD DUP3 ADD PUSH1 0x40 MSTORE DUP1 ISZERO PUSH2 0x3B1 JUMPI DUP2 PUSH1 0x20 ADD JUMPDEST PUSH1 0x60 DUP2 MSTORE PUSH1 0x20 ADD SWAP1 PUSH1 0x1 SWAP1 SUB SWAP1 DUP2 PUSH2 0x39C JUMPI SWAP1 POP JUMPDEST POP SWAP2 POP PUSH1 0x0 DUP1 JUMPDEST PUSH1 0x0 DUP1 SLOAD SWAP1 POP DUP2 LT ISZERO PUSH2 0x59A JUMPI PUSH1 0x0 DUP1 DUP3 DUP2 SLOAD DUP2 LT PUSH2 0x3DA JUMPI PUSH2 0x3D9 PUSH2 0x11BB JUMP JUMPDEST JUMPDEST SWAP1 PUSH1 0x0 MSTORE PUSH1 0x20 PUSH1 0x0 KECCAK256 SWAP1 PUSH1 0x6 MUL ADD PUSH1 0x40 MLOAD DUP1 PUSH1 0xC0 ADD PUSH1 0x40 MSTORE SWAP1 DUP2 PUSH1 0x0 DUP3 ADD DUP1 SLOAD PUSH2 0x403 SWAP1 PUSH2 0x1219 JUMP JUMPDEST DUP1 PUSH1 0x1F ADD PUSH1 0x20 DUP1 SWAP2 DIV MUL PUSH1 0x20 ADD PUSH1 0x40 MLOAD SWAP1 DUP2 ADD PUSH1 0x40 MSTORE DUP1 SWAP3 SWAP2 SWAP1 DUP2 DUP2 MSTORE PUSH1 0x20 ADD DUP3 DUP1 SLOAD PUSH2 0x42F SWAP1 PUSH2 0x1219 JUMP JUMPDEST DUP1 ISZERO PUSH2 0x47C JUMPI DUP1 PUSH1 0x1F LT PUSH2 0x451 JUMPI PUSH2 0x100 DUP1 DUP4 SLOAD DIV MUL DUP4 MSTORE SWAP2 PUSH1 0x20 ADD SWAP2 PUSH2 0x47C JUMP JUMPDEST DUP3 ADD SWAP2 SWAP1 PUSH1 0x0 MSTORE PUSH1 0x20 PUSH1 0x0 KECCAK256 SWAP1 JUMPDEST DUP2 SLOAD DUP2 MSTORE SWAP1 PUSH1 0x1 ADD SWAP1 PUSH1 0x20 ADD DUP1 DUP4 GT PUSH2 0x45F JUMPI DUP3 SWAP1 SUB PUSH1 0x1F AND DUP3 ADD SWAP2 JUMPDEST POP POP POP POP POP DUP2 MSTORE PUSH1 0x20 ADD PUSH1 0x1 DUP3 ADD DUP1 SLOAD PUSH2 0x495 SWAP1 PUSH2 0x1219 JUMP JUMPDEST DUP1 PUSH1 0x1F ADD PUSH1 0x20 DUP1 SWAP2 DIV MUL PUSH1 0x20 ADD PUSH1 0x40 MLOAD SWAP1 DUP2 ADD PUSH1 0x40 MSTORE DUP1 SWAP3 SWAP2 SWAP1 DUP2 DUP2 MSTORE PUSH1 0x20 ADD DUP3 DUP1 SLOAD PUSH2 0x4C1 SWAP1 PUSH2 0x1219 JUMP JUMPDEST DUP1 ISZERO PUSH2 0x50E JUMPI DUP1 PUSH1 0x1F LT PUSH2 0x4E3 JUMPI PUSH2 0x100 DUP1 DUP4 SLOAD DIV MUL DUP4 MSTORE SWAP2 PUSH1 0x20 ADD SWAP2 PUSH2 0x50E JUMP JUMPDEST DUP3 ADD SWAP2 SWAP1 PUSH1 0x0 MSTORE PUSH1 0x20 PUSH1 0x0 KECCAK256 SWAP1 JUMPDEST DUP2 SLOAD DUP2 MSTORE SWAP1 PUSH1 0x1 ADD SWAP1 PUSH1 0x20 ADD DUP1 DUP4 GT PUSH2 0x4F1 JUMPI DUP3 SWAP1 SUB PUSH1 0x1F AND DUP3 ADD SWAP2 JUMPDEST POP POP POP POP POP DUP2 MSTORE PUSH1 0x20 ADD PUSH1 0x2 DUP3 ADD SLOAD DUP2 MSTORE PUSH1 0x20 ADD PUSH1 0x3 DUP3 ADD SLOAD DUP2 MSTORE PUSH1 0x20 ADD PUSH1 0x4 DUP3 ADD SLOAD DUP2 MSTORE PUSH1 0x20 ADD PUSH1 0x5 DUP3 ADD SLOAD DUP2 MSTORE POP POP SWAP1 POP DUP6 DUP1 MLOAD SWAP1 PUSH1 0x20 ADD KECCAK256 DUP2 PUSH1 0x20 ADD MLOAD DUP1 MLOAD SWAP1 PUSH1 0x20 ADD KECCAK256 SUB PUSH2 0x58C JUMPI DUP1 PUSH1 0x0 ADD MLOAD DUP6 DUP5 DUP2 MLOAD DUP2 LT PUSH2 0x572 JUMPI PUSH2 0x571 PUSH2 0x11BB JUMP JUMPDEST JUMPDEST PUSH1 0x20 MUL PUSH1 0x20 ADD ADD DUP2 SWAP1 MSTORE POP DUP3 DUP1 PUSH2 0x588 SWAP1 PUSH2 0x1279 JUMP JUMPDEST SWAP4 POP POP JUMPDEST POP DUP1 DUP1 PUSH1 0x1 ADD SWAP2 POP POP PUSH2 0x3B8 JUMP JUMPDEST POP POP POP SWAP2 SWAP1 POP JUMP JUMPDEST PUSH1 0x1 DUP2 DUP2 SLOAD DUP2 LT PUSH2 0x5B2 JUMPI PUSH1 0x0 DUP1 REVERT JUMPDEST SWAP1 PUSH1 0x0 MSTORE PUSH1 0x20 PUSH1 0x0 KECCAK256 SWAP1 PUSH1 0x2 MUL ADD PUSH1 0x0 SWAP2 POP SWAP1 POP DUP1 PUSH1 0x0 ADD DUP1 SLOAD PUSH2 0x5D5 SWAP1 PUSH2 0x1219 JUMP JUMPDEST DUP1 PUSH1 0x1F ADD PUSH1 0x20 DUP1 SWAP2 DIV MUL PUSH1 0x20 ADD PUSH1 0x40 MLOAD SWAP1 DUP2 ADD PUSH1 0x40 MSTORE DUP1 SWAP3 SWAP2 SWAP1 DUP2 DUP2 MSTORE PUSH1 0x20 ADD DUP3 DUP1 SLOAD PUSH2 0x601 SWAP1 PUSH2 0x1219 JUMP JUMPDEST DUP1 ISZERO PUSH2 0x64E JUMPI DUP1 PUSH1 0x1F LT PUSH2 0x623 JUMPI PUSH2 0x100 DUP1 DUP4 SLOAD DIV MUL DUP4 MSTORE SWAP2 PUSH1 0x20 ADD SWAP2 PUSH2 0x64E JUMP JUMPDEST DUP3 ADD SWAP2 SWAP1 PUSH1 0x0 MSTORE PUSH1 0x20 PUSH1 0x0 KECCAK256 SWAP1 JUMPDEST DUP2 SLOAD DUP2 MSTORE SWAP1 PUSH1 0x1 ADD SWAP1 PUSH1 0x20 ADD DUP1 DUP4 GT PUSH2 0x631 JUMPI DUP3 SWAP1 SUB PUSH1 0x1F AND DUP3 ADD SWAP2 JUMPDEST POP POP POP POP POP SWAP1 DUP1 PUSH1 0x1 ADD SLOAD SWAP1 POP DUP3 JUMP JUMPDEST PUSH1 0x0 PUSH1 0x40 MLOAD DUP1 PUSH1 0xC0 ADD PUSH1 0x40 MSTORE DUP1 DUP8 DUP2 MSTORE PUSH1 0x20 ADD DUP9 DUP2 MSTORE PUSH1 0x20 ADD DUP7 DUP2 MSTORE PUSH1 0x20 ADD DUP6 DUP2 MSTORE PUSH1 0x20 ADD DUP5 DUP2 MSTORE PUSH1 0x20 ADD DUP4 DUP2 MSTORE POP SWAP1 DUP1 PUSH1 0x1 DUP2 SLOAD ADD DUP1 DUP3 SSTORE DUP1 SWAP2 POP POP PUSH1 0x1 SWAP1 SUB SWAP1 PUSH1 0x0 MSTORE PUSH1 0x20 PUSH1 0x0 KECCAK256 SWAP1 PUSH1 0x6 MUL ADD PUSH1 0x0 SWAP1 SWAP2 SWAP1 SWAP2 SWAP1 SWAP2 POP PUSH1 0x0 DUP3 ADD MLOAD DUP2 PUSH1 0x0 ADD SWAP1 DUP2 PUSH2 0x6CB SWAP2 SWAP1 PUSH2 0x146D JUMP JUMPDEST POP PUSH1 0x20 DUP3 ADD MLOAD DUP2 PUSH1 0x1 ADD SWAP1 DUP2 PUSH2 0x6E1 SWAP2 SWAP1 PUSH2 0x146D JUMP JUMPDEST POP PUSH1 0x40 DUP3 ADD MLOAD DUP2 PUSH1 0x2 ADD SSTORE PUSH1 0x60 DUP3 ADD MLOAD DUP2 PUSH1 0x3 ADD SSTORE PUSH1 0x80 DUP3 ADD MLOAD DUP2 PUSH1 0x4 ADD SSTORE PUSH1 0xA0 DUP3 ADD MLOAD DUP2 PUSH1 0x5 ADD SSTORE POP POP PUSH32 0xD3FC49C979DA257B3D58B4D31FF673185EF4383E57DCC8CB9AC754E7BCC8C618 DUP7 DUP7 DUP7 DUP6 PUSH1 0x40 MLOAD PUSH2 0x741 SWAP5 SWAP4 SWAP3 SWAP2 SWAP1 PUSH2 0x153F JUMP JUMPDEST PUSH1 0x40 MLOAD DUP1 SWAP2 SUB SWAP1 LOG1 POP POP POP POP POP POP JUMP JUMPDEST PUSH1 0x0 DUP2 DUP2 SLOAD DUP2 LT PUSH2 0x761 JUMPI PUSH1 0x0 DUP1 REVERT JUMPDEST SWAP1 PUSH1 0x0 MSTORE PUSH1 0x20 PUSH1 0x0 KECCAK256 SWAP1 PUSH1 0x6 MUL ADD PUSH1 0x0 SWAP2 POP SWAP1 POP DUP1 PUSH1 0x0 ADD DUP1 SLOAD PUSH2 0x784 SWAP1 PUSH2 0x1219 JUMP JUMPDEST DUP1 PUSH1 0x1F ADD PUSH1 0x20 DUP1 SWAP2 DIV MUL PUSH1 0x20 ADD PUSH1 0x40 MLOAD SWAP1 DUP2 ADD PUSH1 0x40 MSTORE DUP1 SWAP3 SWAP2 SWAP1 DUP2 DUP2 MSTORE PUSH1 0x20 ADD DUP3 DUP1 SLOAD PUSH2 0x7B0 SWAP1 PUSH2 0x1219 JUMP JUMPDEST DUP1 ISZERO PUSH2 0x7FD JUMPI DUP1 PUSH1 0x1F LT PUSH2 0x7D2 JUMPI PUSH2 0x100 DUP1 DUP4 SLOAD DIV MUL DUP4 MSTORE SWAP2 PUSH1 0x20 ADD SWAP2 PUSH2 0x7FD JUMP JUMPDEST DUP3 ADD SWAP2 SWAP1 PUSH1 0x0 MSTORE PUSH1 0x20 PUSH1 0x0 KECCAK256 SWAP1 JUMPDEST DUP2 SLOAD DUP2 MSTORE SWAP1 PUSH1 0x1 ADD SWAP1 PUSH1 0x20 ADD DUP1 DUP4 GT PUSH2 0x7E0 JUMPI DUP3 SWAP1 SUB PUSH1 0x1F AND DUP3 ADD SWAP2 JUMPDEST POP POP POP POP POP SWAP1 DUP1 PUSH1 0x1 ADD DUP1 SLOAD PUSH2 0x812 SWAP1 PUSH2 0x1219 JUMP JUMPDEST DUP1 PUSH1 0x1F ADD PUSH1 0x20 DUP1 SWAP2 DIV MUL PUSH1 0x20 ADD PUSH1 0x40 MLOAD SWAP1 DUP2 ADD PUSH1 0x40 MSTORE DUP1 SWAP3 SWAP2 SWAP1 DUP2 DUP2 MSTORE PUSH1 0x20 ADD DUP3 DUP1 SLOAD PUSH2 0x83E SWAP1 PUSH2 0x1219 JUMP JUMPDEST DUP1 ISZERO PUSH2 0x88B JUMPI DUP1 PUSH1 0x1F LT PUSH2 0x860 JUMPI PUSH2 0x100 DUP1 DUP4 SLOAD DIV MUL DUP4 MSTORE SWAP2 PUSH1 0x20 ADD SWAP2 PUSH2 0x88B JUMP JUMPDEST DUP3 ADD SWAP2 SWAP1 PUSH1 0x0 MSTORE PUSH1 0x20 PUSH1 0x0 KECCAK256 SWAP1 JUMPDEST DUP2 SLOAD DUP2 MSTORE SWAP1 PUSH1 0x1 ADD SWAP1 PUSH1 0x20 ADD DUP1 DUP4 GT PUSH2 0x86E JUMPI DUP3 SWAP1 SUB PUSH1 0x1F AND DUP3 ADD SWAP2 JUMPDEST POP POP POP POP POP SWAP1 DUP1 PUSH1 0x2 ADD SLOAD SWAP1 DUP1 PUSH1 0x3 ADD SLOAD SWAP1 DUP1 PUSH1 0x4 ADD SLOAD SWAP1 DUP1 PUSH1 0x5 ADD SLOAD SWAP1 POP DUP7 JUMP JUMPDEST PUSH1 0x0 DUP2 GT PUSH2 0x8F0 JUMPI PUSH1 0x40 MLOAD PUSH32 0x8C379A000000000000000000000000000000000000000000000000000000000 DUP2 MSTORE PUSH1 0x4 ADD PUSH2 0x8E7 SWAP1 PUSH2 0x15DE JUMP JUMPDEST PUSH1 0x40 MLOAD DUP1 SWAP2 SUB SWAP1 REVERT JUMPDEST PUSH1 0x1 PUSH1 0x40 MLOAD DUP1 PUSH1 0x40 ADD PUSH1 0x40 MSTORE DUP1 DUP5 DUP2 MSTORE PUSH1 0x20 ADD DUP4 DUP2 MSTORE POP SWAP1 DUP1 PUSH1 0x1 DUP2 SLOAD ADD DUP1 DUP3 SSTORE DUP1 SWAP2 POP POP PUSH1 0x1 SWAP1 SUB SWAP1 PUSH1 0x0 MSTORE PUSH1 0x20 PUSH1 0x0 KECCAK256 SWAP1 PUSH1 0x2 MUL ADD PUSH1 0x0 SWAP1 SWAP2 SWAP1 SWAP2 SWAP1 SWAP2 POP PUSH1 0x0 DUP3 ADD MLOAD DUP2 PUSH1 0x0 ADD SWAP1 DUP2 PUSH2 0x945 SWAP2 SWAP1 PUSH2 0x146D JUMP JUMPDEST POP PUSH1 0x20 DUP3 ADD MLOAD DUP2 PUSH1 0x1 ADD SSTORE POP POP PUSH31 0x9E153F5209863356300C774FE4B7B1E96B4DED6E3DB316E37AA6E6A0BD6E04 DUP3 DUP3 PUSH1 0x40 MLOAD PUSH2 0x982 SWAP3 SWAP2 SWAP1 PUSH2 0xFE0 JUMP JUMPDEST PUSH1 0x40 MLOAD DUP1 SWAP2 SUB SWAP1 LOG1 POP POP JUMP JUMPDEST PUSH1 0x0 PUSH2 0x3E8 DUP3 GT PUSH2 0x9D4 JUMPI PUSH1 0x40 MLOAD PUSH32 0x8C379A000000000000000000000000000000000000000000000000000000000 DUP2 MSTORE PUSH1 0x4 ADD PUSH2 0x9CB SWAP1 PUSH2 0x15DE JUMP JUMPDEST PUSH1 0x40 MLOAD DUP1 SWAP2 SUB SWAP1 REVERT JUMPDEST PUSH1 0x0 SWAP1 POP PUSH1 0x0 JUMPDEST PUSH1 0x0 DUP1 SLOAD SWAP1 POP DUP2 LT ISZERO PUSH2 0xC0B JUMPI PUSH1 0x0 DUP1 DUP3 DUP2 SLOAD DUP2 LT PUSH2 0x9FD JUMPI PUSH2 0x9FC PUSH2 0x11BB JUMP JUMPDEST JUMPDEST SWAP1 PUSH1 0x0 MSTORE PUSH1 0x20 PUSH1 0x0 KECCAK256 SWAP1 PUSH1 0x6 MUL ADD PUSH1 0x40 MLOAD DUP1 PUSH1 0xC0 ADD PUSH1 0x40 MSTORE SWAP1 DUP2 PUSH1 0x0 DUP3 ADD DUP1 SLOAD PUSH2 0xA26 SWAP1 PUSH2 0x1219 JUMP JUMPDEST DUP1 PUSH1 0x1F ADD PUSH1 0x20 DUP1 SWAP2 DIV MUL PUSH1 0x20 ADD PUSH1 0x40 MLOAD SWAP1 DUP2 ADD PUSH1 0x40 MSTORE DUP1 SWAP3 SWAP2 SWAP1 DUP2 DUP2 MSTORE PUSH1 0x20 ADD DUP3 DUP1 SLOAD PUSH2 0xA52 SWAP1 PUSH2 0x1219 JUMP JUMPDEST DUP1 ISZERO PUSH2 0xA9F JUMPI DUP1 PUSH1 0x1F LT PUSH2 0xA74 JUMPI PUSH2 0x100 DUP1 DUP4 SLOAD DIV MUL DUP4 MSTORE SWAP2 PUSH1 0x20 ADD SWAP2 PUSH2 0xA9F JUMP JUMPDEST DUP3 ADD SWAP2 SWAP1 PUSH1 0x0 MSTORE PUSH1 0x20 PUSH1 0x0 KECCAK256 SWAP1 JUMPDEST DUP2 SLOAD DUP2 MSTORE SWAP1 PUSH1 0x1 ADD SWAP1 PUSH1 0x20 ADD DUP1 DUP4 GT PUSH2 0xA82 JUMPI DUP3 SWAP1 SUB PUSH1 0x1F AND DUP3 ADD SWAP2 JUMPDEST POP POP POP POP POP DUP2 MSTORE PUSH1 0x20 ADD PUSH1 0x1 DUP3 ADD DUP1 SLOAD PUSH2 0xAB8 SWAP1 PUSH2 0x1219 JUMP JUMPDEST DUP1 PUSH1 0x1F ADD PUSH1 0x20 DUP1 SWAP2 DIV MUL PUSH1 0x20 ADD PUSH1 0x40 MLOAD SWAP1 DUP2 ADD PUSH1 0x40 MSTORE DUP1 SWAP3 SWAP2 SWAP1 DUP2 DUP2 MSTORE PUSH1 0x20 ADD DUP3 DUP1 SLOAD PUSH2 0xAE4 SWAP1 PUSH2 0x1219 JUMP JUMPDEST DUP1 ISZERO PUSH2 0xB31 JUMPI DUP1 PUSH1 0x1F LT PUSH2 0xB06 JUMPI PUSH2 0x100 DUP1 DUP4 SLOAD DIV MUL DUP4 MSTORE SWAP2 PUSH1 0x20 ADD SWAP2 PUSH2 0xB31 JUMP JUMPDEST DUP3 ADD SWAP2 SWAP1 PUSH1 0x0 MSTORE PUSH1 0x20 PUSH1 0x0 KECCAK256 SWAP1 JUMPDEST DUP2 SLOAD DUP2 MSTORE SWAP1 PUSH1 0x1 ADD SWAP1 PUSH1 0x20 ADD DUP1 DUP4 GT PUSH2 0xB14 JUMPI DUP3 SWAP1 SUB PUSH1 0x1F AND DUP3 ADD SWAP2 JUMPDEST POP POP POP POP POP DUP2 MSTORE PUSH1 0x20 ADD PUSH1 0x2 DUP3 ADD SLOAD DUP2 MSTORE PUSH1 0x20 ADD PUSH1 0x3 DUP3 ADD SLOAD DUP2 MSTORE PUSH1 0x20 ADD PUSH1 0x4 DUP3 ADD SLOAD DUP2 MSTORE PUSH1 0x20 ADD PUSH1 0x5 DUP3 ADD SLOAD DUP2 MSTORE POP POP SWAP1 POP DUP5 DUP1 MLOAD SWAP1 PUSH1 0x20 ADD KECCAK256 DUP2 PUSH1 0x20 ADD MLOAD DUP1 MLOAD SWAP1 PUSH1 0x20 ADD KECCAK256 SUB PUSH2 0xBFD JUMPI PUSH1 0x0 PUSH1 0x64 DUP3 PUSH1 0x60 ADD MLOAD DUP4 PUSH1 0x40 ADD MLOAD DUP8 PUSH2 0xB96 SWAP2 SWAP1 PUSH2 0x15FE JUMP JUMPDEST PUSH2 0xBA0 SWAP2 SWAP1 PUSH2 0x15FE JUMP JUMPDEST PUSH2 0xBAA SWAP2 SWAP1 PUSH2 0x166F JUMP JUMPDEST SWAP1 POP PUSH1 0x0 DUP3 PUSH1 0x80 ADD MLOAD DUP3 PUSH2 0xBBE SWAP2 SWAP1 PUSH2 0x15FE JUMP JUMPDEST SWAP1 POP PUSH1 0x0 PUSH1 0x64 DUP5 PUSH1 0xA0 ADD MLOAD DUP4 PUSH2 0xBD4 SWAP2 SWAP1 PUSH2 0x15FE JUMP JUMPDEST PUSH2 0xBDE SWAP2 SWAP1 PUSH2 0x166F JUMP JUMPDEST SWAP1 POP DUP1 DUP3 PUSH2 0xBEC SWAP2 SWAP1 PUSH2 0x16A0 JUMP JUMPDEST DUP7 PUSH2 0xBF7 SWAP2 SWAP1 PUSH2 0x16D4 JUMP JUMPDEST SWAP6 POP POP POP POP JUMPDEST POP DUP1 DUP1 PUSH1 0x1 ADD SWAP2 POP POP PUSH2 0x9DB JUMP JUMPDEST POP SWAP3 SWAP2 POP POP JUMP JUMPDEST PUSH1 0x0 DUP1 DUP1 SLOAD SWAP1 POP SWAP1 POP SWAP1 JUMP JUMPDEST PUSH1 0x0 PUSH1 0x40 MLOAD SWAP1 POP SWAP1 JUMP JUMPDEST PUSH1 0x0 DUP1 REVERT JUMPDEST PUSH1 0x0 DUP1 REVERT JUMPDEST PUSH1 0x0 DUP1 REVERT JUMPDEST PUSH1 0x0 DUP1 REVERT JUMPDEST PUSH1 0x0 PUSH1 0x1F NOT PUSH1 0x1F DUP4 ADD AND SWAP1 POP SWAP2 SWAP1 POP JUMP JUMPDEST PUSH32 0x4E487B7100000000000000000000000000000000000000000000000000000000 PUSH1 0x0 MSTORE PUSH1 0x41 PUSH1 0x4 MSTORE PUSH1 0x24 PUSH1 0x0 REVERT JUMPDEST PUSH2 0xC85 DUP3 PUSH2 0xC3C JUMP JUMPDEST DUP2 ADD DUP2 DUP2 LT PUSH8 0xFFFFFFFFFFFFFFFF DUP3 GT OR ISZERO PUSH2 0xCA4 JUMPI PUSH2 0xCA3 PUSH2 0xC4D JUMP JUMPDEST JUMPDEST DUP1 PUSH1 0x40 MSTORE POP POP POP JUMP JUMPDEST PUSH1 0x0 PUSH2 0xCB7 PUSH2 0xC1E JUMP JUMPDEST SWAP1 POP PUSH2 0xCC3 DUP3 DUP3 PUSH2 0xC7C JUMP JUMPDEST SWAP2 SWAP1 POP JUMP JUMPDEST PUSH1 0x0 PUSH8 0xFFFFFFFFFFFFFFFF DUP3 GT ISZERO PUSH2 0xCE3 JUMPI PUSH2 0xCE2 PUSH2 0xC4D JUMP JUMPDEST JUMPDEST PUSH2 0xCEC DUP3 PUSH2 0xC3C JUMP JUMPDEST SWAP1 POP PUSH1 0x20 DUP2 ADD SWAP1 POP SWAP2 SWAP1 POP JUMP JUMPDEST DUP3 DUP2 DUP4 CALLDATACOPY PUSH1 0x0 DUP4 DUP4 ADD MSTORE POP POP POP JUMP JUMPDEST PUSH1 0x0 PUSH2 0xD1B PUSH2 0xD16 DUP5 PUSH2 0xCC8 JUMP JUMPDEST PUSH2 0xCAD JUMP JUMPDEST SWAP1 POP DUP3 DUP2 MSTORE PUSH1 0x20 DUP2 ADD DUP5 DUP5 DUP5 ADD GT ISZERO PUSH2 0xD37 JUMPI PUSH2 0xD36 PUSH2 0xC37 JUMP JUMPDEST JUMPDEST PUSH2 0xD42 DUP5 DUP3 DUP6 PUSH2 0xCF9 JUMP JUMPDEST POP SWAP4 SWAP3 POP POP POP JUMP JUMPDEST PUSH1 0x0 DUP3 PUSH1 0x1F DUP4 ADD SLT PUSH2 0xD5F JUMPI PUSH2 0xD5E PUSH2 0xC32 JUMP JUMPDEST JUMPDEST DUP2 CALLDATALOAD PUSH2 0xD6F DUP5 DUP3 PUSH1 0x20 DUP7 ADD PUSH2 0xD08 JUMP JUMPDEST SWAP2 POP POP SWAP3 SWAP2 POP POP JUMP JUMPDEST PUSH1 0x0 PUSH1 0x20 DUP3 DUP5 SUB SLT ISZERO PUSH2 0xD8E JUMPI PUSH2 0xD8D PUSH2 0xC28 JUMP JUMPDEST JUMPDEST PUSH1 0x0 DUP3 ADD CALLDATALOAD PUSH8 0xFFFFFFFFFFFFFFFF DUP2 GT ISZERO PUSH2 0xDAC JUMPI PUSH2 0xDAB PUSH2 0xC2D JUMP JUMPDEST JUMPDEST PUSH2 0xDB8 DUP5 DUP3 DUP6 ADD PUSH2 0xD4A JUMP JUMPDEST SWAP2 POP POP SWAP3 SWAP2 POP POP JUMP JUMPDEST PUSH1 0x0 DUP2 MLOAD SWAP1 POP SWAP2 SWAP1 POP JUMP JUMPDEST PUSH1 0x0 DUP3 DUP3 MSTORE PUSH1 0x20 DUP3 ADD SWAP1 POP SWAP3 SWAP2 POP POP JUMP JUMPDEST PUSH1 0x0 DUP2 SWAP1 POP PUSH1 0x20 DUP3 ADD SWAP1 POP SWAP2 SWAP1 POP JUMP JUMPDEST PUSH1 0x0 DUP2 MLOAD SWAP1 POP SWAP2 SWAP1 POP JUMP JUMPDEST PUSH1 0x0 DUP3 DUP3 MSTORE PUSH1 0x20 DUP3 ADD SWAP1 POP SWAP3 SWAP2 POP POP JUMP JUMPDEST PUSH1 0x0 JUMPDEST DUP4 DUP2 LT ISZERO PUSH2 0xE27 JUMPI DUP1 DUP3 ADD MLOAD DUP2 DUP5 ADD MSTORE PUSH1 0x20 DUP2 ADD SWAP1 POP PUSH2 0xE0C JUMP JUMPDEST PUSH1 0x0 DUP5 DUP5 ADD MSTORE POP POP POP POP JUMP JUMPDEST PUSH1 0x0 PUSH2 0xE3E DUP3 PUSH2 0xDED JUMP JUMPDEST PUSH2 0xE48 DUP2 DUP6 PUSH2 0xDF8 JUMP JUMPDEST SWAP4 POP PUSH2 0xE58 DUP2 DUP6 PUSH1 0x20 DUP7 ADD PUSH2 0xE09 JUMP JUMPDEST PUSH2 0xE61 DUP2 PUSH2 0xC3C JUMP JUMPDEST DUP5 ADD SWAP2 POP POP SWAP3 SWAP2 POP POP JUMP JUMPDEST PUSH1 0x0 PUSH2 0xE78 DUP4 DUP4 PUSH2 0xE33 JUMP JUMPDEST SWAP1 POP SWAP3 SWAP2 POP POP JUMP JUMPDEST PUSH1 0x0 PUSH1 0x20 DUP3 ADD SWAP1 POP SWAP2 SWAP1 POP JUMP JUMPDEST PUSH1 0x0 PUSH2 0xE98 DUP3 PUSH2 0xDC1 JUMP JUMPDEST PUSH2 0xEA2 DUP2 DUP6 PUSH2 0xDCC JUMP JUMPDEST SWAP4 POP DUP4 PUSH1 0x20 DUP3 MUL DUP6 ADD PUSH2 0xEB4 DUP6 PUSH2 0xDDD JUMP JUMPDEST DUP1 PUSH1 0x0 JUMPDEST DUP6 DUP2 LT ISZERO PUSH2 0xEF0 JUMPI DUP5 DUP5 SUB DUP10 MSTORE DUP2 MLOAD PUSH2 0xED1 DUP6 DUP3 PUSH2 0xE6C JUMP JUMPDEST SWAP5 POP PUSH2 0xEDC DUP4 PUSH2 0xE80 JUMP JUMPDEST SWAP3 POP PUSH1 0x20 DUP11 ADD SWAP10 POP POP PUSH1 0x1 DUP2 ADD SWAP1 POP PUSH2 0xEB8 JUMP JUMPDEST POP DUP3 SWAP8 POP DUP8 SWAP6 POP POP POP POP POP POP SWAP3 SWAP2 POP POP JUMP JUMPDEST PUSH1 0x0 PUSH1 0x20 DUP3 ADD SWAP1 POP DUP2 DUP2 SUB PUSH1 0x0 DUP4 ADD MSTORE PUSH2 0xF1C DUP2 DUP5 PUSH2 0xE8D JUMP JUMPDEST SWAP1 POP SWAP3 SWAP2 POP POP JUMP JUMPDEST PUSH1 0x0 DUP2 SWAP1 POP SWAP2 SWAP1 POP JUMP JUMPDEST PUSH2 0xF37 DUP2 PUSH2 0xF24 JUMP JUMPDEST DUP2 EQ PUSH2 0xF42 JUMPI PUSH1 0x0 DUP1 REVERT JUMPDEST POP JUMP JUMPDEST PUSH1 0x0 DUP2 CALLDATALOAD SWAP1 POP PUSH2 0xF54 DUP2 PUSH2 0xF2E JUMP JUMPDEST SWAP3 SWAP2 POP POP JUMP JUMPDEST PUSH1 0x0 PUSH1 0x20 DUP3 DUP5 SUB SLT ISZERO PUSH2 0xF70 JUMPI PUSH2 0xF6F PUSH2 0xC28 JUMP JUMPDEST JUMPDEST PUSH1 0x0 PUSH2 0xF7E DUP5 DUP3 DUP6 ADD PUSH2 0xF45 JUMP JUMPDEST SWAP2 POP POP SWAP3 SWAP2 POP POP JUMP JUMPDEST PUSH1 0x0 DUP3 DUP3 MSTORE PUSH1 0x20 DUP3 ADD SWAP1 POP SWAP3 SWAP2 POP POP JUMP JUMPDEST PUSH1 0x0 PUSH2 0xFA3 DUP3 PUSH2 0xDED JUMP JUMPDEST PUSH2 0xFAD DUP2 DUP6 PUSH2 0xF87 JUMP JUMPDEST SWAP4 POP PUSH2 0xFBD DUP2 DUP6 PUSH1 0x20 DUP7 ADD PUSH2 0xE09 JUMP JUMPDEST PUSH2 0xFC6 DUP2 PUSH2 0xC3C JUMP JUMPDEST DUP5 ADD SWAP2 POP POP SWAP3 SWAP2 POP POP JUMP JUMPDEST PUSH2 0xFDA DUP2 PUSH2 0xF24 JUMP JUMPDEST DUP3 MSTORE POP POP JUMP JUMPDEST PUSH1 0x0 PUSH1 0x40 DUP3 ADD SWAP1 POP DUP2 DUP2 SUB PUSH1 0x0 DUP4 ADD MSTORE PUSH2 0xFFA DUP2 DUP6 PUSH2 0xF98 JUMP JUMPDEST SWAP1 POP PUSH2 0x1009 PUSH1 0x20 DUP4 ADD DUP5 PUSH2 0xFD1 JUMP JUMPDEST SWAP4 SWAP3 POP POP POP JUMP JUMPDEST PUSH1 0x0 DUP1 PUSH1 0x0 DUP1 PUSH1 0x0 DUP1 PUSH1 0xC0 DUP8 DUP10 SUB SLT ISZERO PUSH2 0x102D JUMPI PUSH2 0x102C PUSH2 0xC28 JUMP JUMPDEST JUMPDEST PUSH1 0x0 DUP8 ADD CALLDATALOAD PUSH8 0xFFFFFFFFFFFFFFFF DUP2 GT ISZERO PUSH2 0x104B JUMPI PUSH2 0x104A PUSH2 0xC2D JUMP JUMPDEST JUMPDEST PUSH2 0x1057 DUP10 DUP3 DUP11 ADD PUSH2 0xD4A JUMP JUMPDEST SWAP7 POP POP PUSH1 0x20 DUP8 ADD CALLDATALOAD PUSH8 0xFFFFFFFFFFFFFFFF DUP2 GT ISZERO PUSH2 0x1078 JUMPI PUSH2 0x1077 PUSH2 0xC2D JUMP JUMPDEST JUMPDEST PUSH2 0x1084 DUP10 DUP3 DUP11 ADD PUSH2 0xD4A JUMP JUMPDEST SWAP6 POP POP PUSH1 0x40 PUSH2 0x1095 DUP10 DUP3 DUP11 ADD PUSH2 0xF45 JUMP JUMPDEST SWAP5 POP POP PUSH1 0x60 PUSH2 0x10A6 DUP10 DUP3 DUP11 ADD PUSH2 0xF45 JUMP JUMPDEST SWAP4 POP POP PUSH1 0x80 PUSH2 0x10B7 DUP10 DUP3 DUP11 ADD PUSH2 0xF45 JUMP JUMPDEST SWAP3 POP POP PUSH1 0xA0 PUSH2 0x10C8 DUP10 DUP3 DUP11 ADD PUSH2 0xF45 JUMP JUMPDEST SWAP2 POP POP SWAP3 SWAP6 POP SWAP3 SWAP6 POP SWAP3 SWAP6 JUMP JUMPDEST PUSH1 0x0 PUSH1 0xC0 DUP3 ADD SWAP1 POP DUP2 DUP2 SUB PUSH1 0x0 DUP4 ADD MSTORE PUSH2 0x10EF DUP2 DUP10 PUSH2 0xF98 JUMP JUMPDEST SWAP1 POP DUP2 DUP2 SUB PUSH1 0x20 DUP4 ADD MSTORE PUSH2 0x1103 DUP2 DUP9 PUSH2 0xF98 JUMP JUMPDEST SWAP1 POP PUSH2 0x1112 PUSH1 0x40 DUP4 ADD DUP8 PUSH2 0xFD1 JUMP JUMPDEST PUSH2 0x111F PUSH1 0x60 DUP4 ADD DUP7 PUSH2 0xFD1 JUMP JUMPDEST PUSH2 0x112C PUSH1 0x80 DUP4 ADD DUP6 PUSH2 0xFD1 JUMP JUMPDEST PUSH2 0x1139 PUSH1 0xA0 DUP4 ADD DUP5 PUSH2 0xFD1 JUMP JUMPDEST SWAP8 SWAP7 POP POP POP POP POP POP POP JUMP JUMPDEST PUSH1 0x0 DUP1 PUSH1 0x40 DUP4 DUP6 SUB SLT ISZERO PUSH2 0x115B JUMPI PUSH2 0x115A PUSH2 0xC28 JUMP JUMPDEST JUMPDEST PUSH1 0x0 DUP4 ADD CALLDATALOAD PUSH8 0xFFFFFFFFFFFFFFFF DUP2 GT ISZERO PUSH2 0x1179 JUMPI PUSH2 0x1178 PUSH2 0xC2D JUMP JUMPDEST JUMPDEST PUSH2 0x1185 DUP6 DUP3 DUP7 ADD PUSH2 0xD4A JUMP JUMPDEST SWAP3 POP POP PUSH1 0x20 PUSH2 0x1196 DUP6 DUP3 DUP7 ADD PUSH2 0xF45 JUMP JUMPDEST SWAP2 POP POP SWAP3 POP SWAP3 SWAP1 POP JUMP JUMPDEST PUSH1 0x0 PUSH1 0x20 DUP3 ADD SWAP1 POP PUSH2 0x11B5 PUSH1 0x0 DUP4 ADD DUP5 PUSH2 0xFD1 JUMP JUMPDEST SWAP3 SWAP2 POP POP JUMP JUMPDEST PUSH32 0x4E487B7100000000000000000000000000000000000000000000000000000000 PUSH1 0x0 MSTORE PUSH1 0x32 PUSH1 0x4 MSTORE PUSH1 0x24 PUSH1 0x0 REVERT JUMPDEST PUSH32 0x4E487B7100000000000000000000000000000000000000000000000000000000 PUSH1 0x0 MSTORE PUSH1 0x22 PUSH1 0x4 MSTORE PUSH1 0x24 PUSH1 0x0 REVERT JUMPDEST PUSH1 0x0 PUSH1 0x2 DUP3 DIV SWAP1 POP PUSH1 0x1 DUP3 AND DUP1 PUSH2 0x1231 JUMPI PUSH1 0x7F DUP3 AND SWAP2 POP JUMPDEST PUSH1 0x20 DUP3 LT DUP2 SUB PUSH2 0x1244 JUMPI PUSH2 0x1243 PUSH2 0x11EA JUMP JUMPDEST JUMPDEST POP SWAP2 SWAP1 POP JUMP JUMPDEST PUSH32 0x4E487B7100000000000000000000000000000000000000000000000000000000 PUSH1 0x0 MSTORE PUSH1 0x11 PUSH1 0x4 MSTORE PUSH1 0x24 PUSH1 0x0 REVERT JUMPDEST PUSH1 0x0 PUSH2 0x1284 DUP3 PUSH2 0xF24 JUMP JUMPDEST SWAP2 POP PUSH32 0xFFFFFFFFFFFFFFFFFFFFFFFFFFFFFFFFFFFFFFFFFFFFFFFFFFFFFFFFFFFFFFFF DUP3 SUB PUSH2 0x12B6 JUMPI PUSH2 0x12B5 PUSH2 0x124A JUMP JUMPDEST JUMPDEST PUSH1 0x1 DUP3 ADD SWAP1 POP SWAP2 SWAP1 POP JUMP JUMPDEST PUSH1 0x0 DUP2 SWAP1 POP DUP2 PUSH1 0x0 MSTORE PUSH1 0x20 PUSH1 0x0 KECCAK256 SWAP1 POP SWAP2 SWAP1 POP JUMP JUMPDEST PUSH1 0x0 PUSH1 0x20 PUSH1 0x1F DUP4 ADD DIV SWAP1 POP SWAP2 SWAP1 POP JUMP JUMPDEST PUSH1 0x0 DUP3 DUP3 SHL SWAP1 POP SWAP3 SWAP2 POP POP JUMP JUMPDEST PUSH1 0x0 PUSH1 0x8 DUP4 MUL PUSH2 0x1323 PUSH32 0xFFFFFFFFFFFFFFFFFFFFFFFFFFFFFFFFFFFFFFFFFFFFFFFFFFFFFFFFFFFFFFFF DUP3 PUSH2 0x12E6 JUMP JUMPDEST PUSH2 0x132D DUP7 DUP4 PUSH2 0x12E6 JUMP JUMPDEST SWAP6 POP DUP1 NOT DUP5 AND SWAP4 POP DUP1 DUP7 AND DUP5 OR SWAP3 POP POP POP SWAP4 SWAP3 POP POP POP JUMP JUMPDEST PUSH1 0x0 DUP2 SWAP1 POP SWAP2 SWAP1 POP JUMP JUMPDEST PUSH1 0x0 PUSH2 0x136A PUSH2 0x1365 PUSH2 0x1360 DUP5 PUSH2 0xF24 JUMP JUMPDEST PUSH2 0x1345 JUMP JUMPDEST PUSH2 0xF24 JUMP JUMPDEST SWAP1 POP SWAP2 SWAP1 POP JUMP JUMPDEST PUSH1 0x0 DUP2 SWAP1 POP SWAP2 SWAP1 POP JUMP JUMPDEST PUSH2 0x1384 DUP4 PUSH2 0x134F JUMP JUMPDEST PUSH2 0x1398 PUSH2 0x1390 DUP3 PUSH2 0x1371 JUMP JUMPDEST DUP5 DUP5 SLOAD PUSH2 0x12F3 JUMP JUMPDEST DUP3 SSTORE POP POP POP POP JUMP JUMPDEST PUSH1 0x0 SWAP1 JUMP JUMPDEST PUSH2 0x13AD PUSH2 0x13A0 JUMP JUMPDEST PUSH2 0x13B8 DUP2 DUP5 DUP5 PUSH2 0x137B JUMP JUMPDEST POP POP POP JUMP JUMPDEST JUMPDEST DUP2 DUP2 LT ISZERO PUSH2 0x13DC JUMPI PUSH2 0x13D1 PUSH1 0x0 DUP3 PUSH2 0x13A5 JUMP JUMPDEST PUSH1 0x1 DUP2 ADD SWAP1 POP PUSH2 0x13BE JUMP JUMPDEST POP POP JUMP JUMPDEST PUSH1 0x1F DUP3 GT ISZERO PUSH2 0x1421 JUMPI PUSH2 0x13F2 DUP2 PUSH2 0x12C1 JUMP JUMPDEST PUSH2 0x13FB DUP5 PUSH2 0x12D6 JUMP JUMPDEST DUP2 ADD PUSH1 0x20 DUP6 LT ISZERO PUSH2 0x140A JUMPI DUP2 SWAP1 POP JUMPDEST PUSH2 0x141E PUSH2 0x1416 DUP6 PUSH2 0x12D6 JUMP JUMPDEST DUP4 ADD DUP3 PUSH2 0x13BD JUMP JUMPDEST POP POP JUMPDEST POP POP POP JUMP JUMPDEST PUSH1 0x0 DUP3 DUP3 SHR SWAP1 POP SWAP3 SWAP2 POP POP JUMP JUMPDEST PUSH1 0x0 PUSH2 0x1444 PUSH1 0x0 NOT DUP5 PUSH1 0x8 MUL PUSH2 0x1426 JUMP JUMPDEST NOT DUP1 DUP4 AND SWAP2 POP POP SWAP3 SWAP2 POP POP JUMP JUMPDEST PUSH1 0x0 PUSH2 0x145D DUP4 DUP4 PUSH2 0x1433 JUMP JUMPDEST SWAP2 POP DUP3 PUSH1 0x2 MUL DUP3 OR SWAP1 POP SWAP3 SWAP2 POP POP JUMP JUMPDEST PUSH2 0x1476 DUP3 PUSH2 0xDED JUMP JUMPDEST PUSH8 0xFFFFFFFFFFFFFFFF DUP2 GT ISZERO PUSH2 0x148F JUMPI PUSH2 0x148E PUSH2 0xC4D JUMP JUMPDEST JUMPDEST PUSH2 0x1499 DUP3 SLOAD PUSH2 0x1219 JUMP JUMPDEST PUSH2 0x14A4 DUP3 DUP3 DUP6 PUSH2 0x13E0 JUMP JUMPDEST PUSH1 0x0 PUSH1 0x20 SWAP1 POP PUSH1 0x1F DUP4 GT PUSH1 0x1 DUP2 EQ PUSH2 0x14D7 JUMPI PUSH1 0x0 DUP5 ISZERO PUSH2 0x14C5 JUMPI DUP3 DUP8 ADD MLOAD SWAP1 POP JUMPDEST PUSH2 0x14CF DUP6 DUP3 PUSH2 0x1451 JUMP JUMPDEST DUP7 SSTORE POP PUSH2 0x1537 JUMP JUMPDEST PUSH1 0x1F NOT DUP5 AND PUSH2 0x14E5 DUP7 PUSH2 0x12C1 JUMP JUMPDEST PUSH1 0x0 JUMPDEST DUP3 DUP2 LT ISZERO PUSH2 0x150D JUMPI DUP5 DUP10 ADD MLOAD DUP3 SSTORE PUSH1 0x1 DUP3 ADD SWAP2 POP PUSH1 0x20 DUP6 ADD SWAP5 POP PUSH1 0x20 DUP2 ADD SWAP1 POP PUSH2 0x14E8 JUMP JUMPDEST DUP7 DUP4 LT ISZERO PUSH2 0x152A JUMPI DUP5 DUP10 ADD MLOAD PUSH2 0x1526 PUSH1 0x1F DUP10 AND DUP3 PUSH2 0x1433 JUMP JUMPDEST DUP4 SSTORE POP JUMPDEST PUSH1 0x1 PUSH1 0x2 DUP9 MUL ADD DUP9 SSTORE POP POP POP JUMPDEST POP POP POP POP POP POP JUMP JUMPDEST PUSH1 0x0 PUSH1 0x80 DUP3 ADD SWAP1 POP DUP2 DUP2 SUB PUSH1 0x0 DUP4 ADD MSTORE PUSH2 0x1559 DUP2 DUP8 PUSH2 0xF98 JUMP JUMPDEST SWAP1 POP DUP2 DUP2 SUB PUSH1 0x20 DUP4 ADD MSTORE PUSH2 0x156D DUP2 DUP7 PUSH2 0xF98 JUMP JUMPDEST SWAP1 POP PUSH2 0x157C PUSH1 0x40 DUP4 ADD DUP6 PUSH2 0xFD1 JUMP JUMPDEST PUSH2 0x1589 PUSH1 0x60 DUP4 ADD DUP5 PUSH2 0xFD1 JUMP JUMPDEST SWAP6 SWAP5 POP POP POP POP POP JUMP JUMPDEST PUSH32 0x416D6F756E74206D7573742062652067726561746572207468616E207A65726F PUSH1 0x0 DUP3 ADD MSTORE POP JUMP JUMPDEST PUSH1 0x0 PUSH2 0x15C8 PUSH1 0x20 DUP4 PUSH2 0xF87 JUMP JUMPDEST SWAP2 POP PUSH2 0x15D3 DUP3 PUSH2 0x1592 JUMP JUMPDEST PUSH1 0x20 DUP3 ADD SWAP1 POP SWAP2 SWAP1 POP JUMP JUMPDEST PUSH1 0x0 PUSH1 0x20 DUP3 ADD SWAP1 POP DUP2 DUP2 SUB PUSH1 0x0 DUP4 ADD MSTORE PUSH2 0x15F7 DUP2 PUSH2 0x15BB JUMP JUMPDEST SWAP1 POP SWAP2 SWAP1 POP JUMP JUMPDEST PUSH1 0x0 PUSH2 0x1609 DUP3 PUSH2 0xF24 JUMP JUMPDEST SWAP2 POP PUSH2 0x1614 DUP4 PUSH2 0xF24 JUMP JUMPDEST SWAP3 POP DUP3 DUP3 MUL PUSH2 0x1622 DUP2 PUSH2 0xF24 JUMP JUMPDEST SWAP2 POP DUP3 DUP3 DIV DUP5 EQ DUP4 ISZERO OR PUSH2 0x1639 JUMPI PUSH2 0x1638 PUSH2 0x124A JUMP JUMPDEST JUMPDEST POP SWAP3 SWAP2 POP POP JUMP JUMPDEST PUSH32 0x4E487B7100000000000000000000000000000000000000000000000000000000 PUSH1 0x0 MSTORE PUSH1 0x12 PUSH1 0x4 MSTORE PUSH1 0x24 PUSH1 0x0 REVERT JUMPDEST PUSH1 0x0 PUSH2 0x167A DUP3 PUSH2 0xF24 JUMP JUMPDEST SWAP2 POP PUSH2 0x1685 DUP4 PUSH2 0xF24 JUMP JUMPDEST SWAP3 POP DUP3 PUSH2 0x1695 JUMPI PUSH2 0x1694 PUSH2 0x1640 JUMP JUMPDEST JUMPDEST DUP3 DUP3 DIV SWAP1 POP SWAP3 SWAP2 POP POP JUMP JUMPDEST PUSH1 0x0 PUSH2 0x16AB DUP3 PUSH2 0xF24 JUMP JUMPDEST SWAP2 POP PUSH2 0x16B6 DUP4 PUSH2 0xF24 JUMP JUMPDEST SWAP3 POP DUP3 DUP3 SUB SWAP1 POP DUP2 DUP2 GT ISZERO PUSH2 0x16CE JUMPI PUSH2 0x16CD PUSH2 0x124A JUMP JUMPDEST JUMPDEST SWAP3 SWAP2 POP POP JUMP JUMPDEST PUSH1 0x0 PUSH2 0x16DF DUP3 PUSH2 0xF24 JUMP JUMPDEST SWAP2 POP PUSH2 0x16EA DUP4 PUSH2 0xF24 JUMP JUMPDEST SWAP3 POP DUP3 DUP3 ADD SWAP1 POP DUP1 DUP3 GT ISZERO PUSH2 0x1702 JUMPI PUSH2 0x1701 PUSH2 0x124A JUMP JUMPDEST JUMPDEST SWAP3 SWAP2 POP POP JUMP INVALID LOG2 PUSH5 0x6970667358 0x22 SLT KECCAK256 0xDB 0xC0 EXTCODEHASH 0xD4 0xB5 0xAA CALLDATACOPY 0xE9 ADD PUSH24 0x8A5419D9D7F98FFFE2CFDA769D75A07FE35E013BAD0C6473 PUSH16 0x6C634300081C00330000000000000000 "},"methodIdentifiers":{"addEWasteBatch(string,uint256)":"8af85f91","addMetal(string,string,uint256,uint256,uint256,uint256)":"16c0e2d9","calculateNetValueForDevice(string,uint256)":"ae65e327","eWasteBatches(uint256)":"0417d997","getMetalsCount()":"f359bc23","getMetalsForDevice(string)":"0261ec32","metals(uint256)":"32d8db6e"}}}}}