{"contracts/EWasteProcessing.sol":{"EWasteProcessing":{"abi":[{"anonymous":false,"inputs":[{"indexed":false,"internalType":"string","name":"deviceType","type":"string"},{"indexed":false,"internalType":"uint256","name":"amountKg","type":"uint256"}],"name":"EWasteBatchAdded","type":"event"},{"anonymous":false,"inputs":[{"indexed":false,"internalType":"string","name":"name","type":"string"},{"indexed":false,"internalType":"uint256","name":"contentKgPerTon","type":"uint256"},{"indexed":false,"internalType":"uint256","name":"marketPriceUsdPerKg","type":"uint256"}],"name":"MetalAdded","type":"event"},{"stateMutability":"nonpayable","type":"fallback"},{"inputs":[{"internalType":"string","name":"_deviceType","type":"string"},{"internalType":"uint256","name":"_amountKg","type":"uint256"}],"name":"addEWasteBatch","outputs":[],"stateMutability":"nonpayable","type":"function"},{"inputs":[{"internalType":"string","name":"_name","type":"string"},{"internalType":"uint256","name":"_contentKgPerTon","type":"uint256"},{"internalType":"uint256","name":"_recoveryEfficiencyPercent","type":"uint256"},{"internalType":"uint256","name":"_marketPriceUsdPerKg","type":"uint256"},{"internalType":"uint256","name":"_recoveryCostPercent","type":"uint256"}],"name":"addMetal","outputs":[],"stateMutability":"nonpayable","type":"function"},{"inputs":[{"internalType":"uint256","name":"","type":"uint256"}],"name":"eWasteBatches","outputs":[{"internalType":"string","name":"deviceType","type":"string"},{"internalType":"uint256","name":"amountKg","type":"uint256"}],"stateMutability":"view","type":"function"},{"inputs":[{"internalType":"uint256","name":"index","type":"uint256"}],"name":"getMetalDetails","outputs":[{"internalType":"string","name":"name","type":"string"},{"internalType":"uint256","name":"contentKgPerTon","type":"uint256"},{"internalType":"uint256","name":"recoveryEfficiencyPercent","type":"uint256"},{"internalType":"uint256","name":"recoverableAmountKg","type":"uint256"},{"internalType":"uint256","name":"marketPriceUsdPerKg","type":"uint256"},{"internalType":"uint256","name":"valueUsd","type":"uint256"},{"internalType":"uint256","name":"recoveryCostPercent","type":"uint256"},{"internalType":"uint256","name":"recoveryCostUsd","type":"uint256"},{"internalType":"uint256","name":"netValueUsd","type":"uint256"},{"internalType":"string","name":"processMessage","type":"string"}],"stateMutability":"view","type":"function"},{"inputs":[{"internalType":"uint256","name":"","type":"uint256"}],"name":"metals","outputs":[{"internalType":"string","name":"name","type":"string"},{"internalType":"uint256","name":"contentKgPerTon","type":"uint256"},{"internalType":"uint256","name":"recoveryEfficiencyPercent","type":"uint256"},{"internalType":"uint256","name":"recoverableAmountKg","type":"uint256"},{"internalType":"uint256","name":"marketPriceUsdPerKg","type":"uint256"},{"internalType":"uint256","name":"valueUsd","type":"uint256"},{"internalType":"uint256","name":"recoveryCostPercent","type":"uint256"},{"internalType":"uint256","name":"recoveryCostUsd","type":"uint256"},{"internalType":"uint256","name":"netValueUsd","type":"uint256"}],"stateMutability":"view","type":"function"}],"evm":{"bytecode":{"linkReferences":{},"object":"6080604052348015600f57600080fd5b506112ce8061001f6000396000f3fe608060405234801561001057600080fd5b506004361061005b5760003560e01c80630417d9971461009757806332d8db6e146100c857806380edbb5f146101005780638af85f9114610139578063c3cbc80d146101555761005c565b5b6040517f08c379a000000000000000000000000000000000000000000000000000000000815260040161008e906107a7565b60405180910390fd5b6100b160048036038101906100ac9190610811565b610171565b6040516100bf9291906108cc565b60405180910390f35b6100e260048036038101906100dd9190610811565b61022d565b6040516100f7999897969594939291906108fc565b60405180910390f35b61011a60048036038101906101159190610811565b610313565b6040516101309a99989796959493929190610990565b60405180910390f35b610153600480360381019061014e9190610b6f565b6104f7565b005b61016f600480360381019061016a9190610bcb565b6105d8565b005b6001818154811061018157600080fd5b90600052602060002090600202016000915090508060000180546101a490610c91565b80601f01602080910402602001604051908101604052809291908181526020018280546101d090610c91565b801561021d5780601f106101f25761010080835404028352916020019161021d565b820191906000526020600020905b81548152906001019060200180831161020057829003601f168201915b5050505050908060010154905082565b6000818154811061023d57600080fd5b906000526020600020906009020160009150905080600001805461026090610c91565b80601f016020809104026020016040519081016040528092919081815260200182805461028c90610c91565b80156102d95780601f106102ae576101008083540402835291602001916102d9565b820191906000526020600020905b8154815290600101906020018083116102bc57829003601f168201915b5050505050908060010154908060020154908060030154908060040154908060050154908060060154908060070154908060080154905089565b606060008060008060008060008060606000805490508b1061036a576040517f08c379a000000000000000000000000000000000000000000000000000000000815260040161036190610d0e565b60405180910390fd5b6000808c8154811061037f5761037e610d2e565b5b9060005260206000209060090201604051806101200160405290816000820180546103a990610c91565b80601f01602080910402602001604051908101604052809291908181526020018280546103d590610c91565b80156104225780601f106103f757610100808354040283529160200191610422565b820191906000526020600020905b81548152906001019060200180831161040557829003601f168201915b5050505050815260200160018201548152602001600282015481526020016003820154815260200160048201548152602001600582015481526020016006820154815260200160078201548152602001600882015481525050905080600001518160000151604051602001610498929190610e31565b6040516020818303038152906040529150806000015181602001518260400151836060015184608001518560a001518660c001518760e001518861010001519a509a509a509a509a509a509a509a509a50509193959799509193959799565b6000811161053a576040517f08c379a000000000000000000000000000000000000000000000000000000000815260040161053190610eb7565b60405180910390fd5b60016040518060400160405280848152602001838152509080600181540180825580915050600190039060005260206000209060020201600090919091909150600082015181600001908161058f9190611083565b506020820151816001015550507e9e153f5209863356300c774fe4b7b1e96b4ded6e3db316e37aa6e6a0bd6e0482826040516105cc9291906108cc565b60405180910390a15050565b6000606484866105e89190611184565b6105f291906111f5565b9050600083826106029190611184565b90506000606484836106149190611184565b61061e91906111f5565b90506000818361062e9190611226565b905060006040518061012001604052808b81526020018a815260200189815260200186815260200188815260200185815260200187815260200184815260200183815250908060018154018082558091505060019003906000526020600020906009020160009091909190915060008201518160000190816106b09190611083565b506020820151816001015560408201518160020155606082015181600301556080820151816004015560a0820151816005015560c0820151816006015560e08201518160070155610100820151816008015550507fc521fb4560a3cc7e303ab9c7ffd14336126955fdab3c7db4a326173839cac50d8989886040516107379392919061125a565b60405180910390a1505050505050505050565b600082825260208201905092915050565b7f496e76616c69642066756e6374696f6e2063616c6c0000000000000000000000600082015250565b600061079160158361074a565b915061079c8261075b565b602082019050919050565b600060208201905081810360008301526107c081610784565b9050919050565b6000604051905090565b600080fd5b600080fd5b6000819050919050565b6107ee816107db565b81146107f957600080fd5b50565b60008135905061080b816107e5565b92915050565b600060208284031215610827576108266107d1565b5b6000610835848285016107fc565b91505092915050565b600081519050919050565b60005b8381101561086757808201518184015260208101905061084c565b60008484015250505050565b6000601f19601f8301169050919050565b600061088f8261083e565b610899818561074a565b93506108a9818560208601610849565b6108b281610873565b840191505092915050565b6108c6816107db565b82525050565b600060408201905081810360008301526108e68185610884565b90506108f560208301846108bd565b9392505050565b6000610120820190508181036000830152610917818c610884565b9050610926602083018b6108bd565b610933604083018a6108bd565b61094060608301896108bd565b61094d60808301886108bd565b61095a60a08301876108bd565b61096760c08301866108bd565b61097460e08301856108bd565b6109826101008301846108bd565b9a9950505050505050505050565b60006101408201905081810360008301526109ab818d610884565b90506109ba602083018c6108bd565b6109c7604083018b6108bd565b6109d4606083018a6108bd565b6109e160808301896108bd565b6109ee60a08301886108bd565b6109fb60c08301876108bd565b610a0860e08301866108bd565b610a166101008301856108bd565b818103610120830152610a298184610884565b90509b9a5050505050505050505050565b600080fd5b600080fd5b7f4e487b7100000000000000000000000000000000000000000000000000000000600052604160045260246000fd5b610a7c82610873565b810181811067ffffffffffffffff82111715610a9b57610a9a610a44565b5b80604052505050565b6000610aae6107c7565b9050610aba8282610a73565b919050565b600067ffffffffffffffff821115610ada57610ad9610a44565b5b610ae382610873565b9050602081019050919050565b82818337600083830152505050565b6000610b12610b0d84610abf565b610aa4565b905082815260208101848484011115610b2e57610b2d610a3f565b5b610b39848285610af0565b509392505050565b600082601f830112610b5657610b55610a3a565b5b8135610b66848260208601610aff565b91505092915050565b60008060408385031215610b8657610b856107d1565b5b600083013567ffffffffffffffff811115610ba457610ba36107d6565b5b610bb085828601610b41565b9250506020610bc1858286016107fc565b9150509250929050565b600080600080600060a08688031215610be757610be66107d1565b5b600086013567ffffffffffffffff811115610c0557610c046107d6565b5b610c1188828901610b41565b9550506020610c22888289016107fc565b9450506040610c33888289016107fc565b9350506060610c44888289016107fc565b9250506080610c55888289016107fc565b9150509295509295909350565b7f4e487b7100000000000000000000000000000000000000000000000000000000600052602260045260246000fd5b60006002820490506001821680610ca957607f821691505b602082108103610cbc57610cbb610c62565b5b50919050565b7f496e76616c6964206d6574616c20696e64657800000000000000000000000000600082015250565b6000610cf860138361074a565b9150610d0382610cc2565b602082019050919050565b60006020820190508181036000830152610d2781610ceb565b9050919050565b7f4e487b7100000000000000000000000000000000000000000000000000000000600052603260045260246000fd5b600081905092915050565b6000610d738261083e565b610d7d8185610d5d565b9350610d8d818560208601610849565b80840191505092915050565b7f20697320616c6c6f636174656420746f20000000000000000000000000000000600082015250565b6000610dcf601183610d5d565b9150610dda82610d99565b601182019050919050565b7f207265636f766572792070726f636573732e0000000000000000000000000000600082015250565b6000610e1b601283610d5d565b9150610e2682610de5565b601282019050919050565b6000610e3d8285610d68565b9150610e4882610dc2565b9150610e548284610d68565b9150610e5f82610e0e565b91508190509392505050565b7f416d6f756e74206d7573742062652067726561746572207468616e207a65726f600082015250565b6000610ea160208361074a565b9150610eac82610e6b565b602082019050919050565b60006020820190508181036000830152610ed081610e94565b9050919050565b60008190508160005260206000209050919050565b60006020601f8301049050919050565b600082821b905092915050565b600060088302610f397fffffffffffffffffffffffffffffffffffffffffffffffffffffffffffffffff82610efc565b610f438683610efc565b95508019841693508086168417925050509392505050565b6000819050919050565b6000610f80610f7b610f76846107db565b610f5b565b6107db565b9050919050565b6000819050919050565b610f9a83610f65565b610fae610fa682610f87565b848454610f09565b825550505050565b600090565b610fc3610fb6565b610fce818484610f91565b505050565b5b81811015610ff257610fe7600082610fbb565b600181019050610fd4565b5050565b601f8211156110375761100881610ed7565b61101184610eec565b81016020851015611020578190505b61103461102c85610eec565b830182610fd3565b50505b505050565b600082821c905092915050565b600061105a6000198460080261103c565b1980831691505092915050565b60006110738383611049565b9150826002028217905092915050565b61108c8261083e565b67ffffffffffffffff8111156110a5576110a4610a44565b5b6110af8254610c91565b6110ba828285610ff6565b600060209050601f8311600181146110ed57600084156110db578287015190505b6110e58582611067565b86555061114d565b601f1984166110fb86610ed7565b60005b82811015611123578489015182556001820191506020850194506020810190506110fe565b86831015611140578489015161113c601f891682611049565b8355505b6001600288020188555050505b505050505050565b7f4e487b7100000000000000000000000000000000000000000000000000000000600052601160045260246000fd5b600061118f826107db565b915061119a836107db565b92508282026111a8816107db565b915082820484148315176111bf576111be611155565b5b5092915050565b7f4e487b7100000000000000000000000000000000000000000000000000000000600052601260045260246000fd5b6000611200826107db565b915061120b836107db565b92508261121b5761121a6111c6565b5b828204905092915050565b6000611231826107db565b915061123c836107db565b925082820390508181111561125457611253611155565b5b92915050565b600060608201905081810360008301526112748186610884565b905061128360208301856108bd565b61129060408301846108bd565b94935050505056fea26469706673582212202f9e037c2cee1fc91b655b7861d63886edf7c91f3c59a3559aae9d1dfff26cb364736f6c634300081c0033","opcodes":"PUSH1 0x80 PUSH1 0x40 MSTORE CALLVALUE DUP1 ISZERO PUSH1 0xF JUMPI PUSH1 0x0 DUP1 REVERT JUMPDEST POP PUSH2 0x12CE DUP1 PUSH2 0x1F PUSH1 0x0 CODECOPY PUSH1 0x0 RETURN INVALID PUSH1 0x80 PUSH1 0x40 MSTORE CALLVALUE DUP1 ISZERO PUSH2 0x10 JUMPI PUSH1 0x0 DUP1 REVERT JUMPDEST POP PUSH1 0x4 CALLDATASIZE LT PUSH2 0x5B JUMPI PUSH1 0x0 CALLDATALOAD PUSH1 0xE0 SHR DUP1 PUSH4 0x417D997 EQ PUSH2 0x97 JUMPI DUP1 PUSH4 0x32D8DB6E EQ PUSH2 0xC8 JUMPI DUP1 PUSH4 0x80EDBB5F EQ PUSH2 0x100 JUMPI DUP1 PUSH4 0x8AF85F91 EQ PUSH2 0x139 JUMPI DUP1 PUSH4 0xC3CBC80D EQ PUSH2 0x155 JUMPI PUSH2 0x5C JUMP JUMPDEST JUMPDEST PUSH1 0x40 MLOAD PUSH32 0x8C379A000000000000000000000000000000000000000000000000000000000 DUP2 MSTORE PUSH1 0x4 ADD PUSH2 0x8E SWAP1 PUSH2 0x7A7 JUMP JUMPDEST PUSH1 0x40 MLOAD DUP1 SWAP2 SUB SWAP1 REVERT JUMPDEST PUSH2 0xB1 PUSH1 0x4 DUP1 CALLDATASIZE SUB DUP2 ADD SWAP1 PUSH2 0xAC SWAP2 SWAP1 PUSH2 0x811 JUMP JUMPDEST PUSH2 0x171 JUMP JUMPDEST PUSH1 0x40 MLOAD PUSH2 0xBF SWAP3 SWAP2 SWAP1 PUSH2 0x8CC JUMP JUMPDEST PUSH1 0x40 MLOAD DUP1 SWAP2 SUB SWAP1 RETURN JUMPDEST PUSH2 0xE2 PUSH1 0x4 DUP1 CALLDATASIZE SUB DUP2 ADD SWAP1 PUSH2 0xDD SWAP2 SWAP1 PUSH2 0x811 JUMP JUMPDEST PUSH2 0x22D JUMP JUMPDEST PUSH1 0x40 MLOAD PUSH2 0xF7 SWAP10 SWAP9 SWAP8 SWAP7 SWAP6 SWAP5 SWAP4 SWAP3 SWAP2 SWAP1 PUSH2 0x8FC JUMP JUMPDEST PUSH1 0x40 MLOAD DUP1 SWAP2 SUB SWAP1 RETURN JUMPDEST PUSH2 0x11A PUSH1 0x4 DUP1 CALLDATASIZE SUB DUP2 ADD SWAP1 PUSH2 0x115 SWAP2 SWAP1 PUSH2 0x811 JUMP JUMPDEST PUSH2 0x313 JUMP JUMPDEST PUSH1 0x40 MLOAD PUSH2 0x130 SWAP11 SWAP10 SWAP9 SWAP8 SWAP7 SWAP6 SWAP5 SWAP4 SWAP3 SWAP2 SWAP1 PUSH2 0x990 JUMP JUMPDEST PUSH1 0x40 MLOAD DUP1 SWAP2 SUB SWAP1 RETURN JUMPDEST PUSH2 0x153 PUSH1 0x4 DUP1 CALLDATASIZE SUB DUP2 ADD SWAP1 PUSH2 0x14E SWAP2 SWAP1 PUSH2 0xB6F JUMP JUMPDEST PUSH2 0x4F7 JUMP JUMPDEST STOP JUMPDEST PUSH2 0x16F PUSH1 0x4 DUP1 CALLDATASIZE SUB DUP2 ADD SWAP1 PUSH2 0x16A SWAP2 SWAP1 PUSH2 0xBCB JUMP JUMPDEST PUSH2 0x5D8 JUMP JUMPDEST STOP JUMPDEST PUSH1 0x1 DUP2 DUP2 SLOAD DUP2 LT PUSH2 0x181 JUMPI PUSH1 0x0 DUP1 REVERT JUMPDEST SWAP1 PUSH1 0x0 MSTORE PUSH1 0x20 PUSH1 0x0 KECCAK256 SWAP1 PUSH1 0x2 MUL ADD PUSH1 0x0 SWAP2 POP SWAP1 POP DUP1 PUSH1 0x0 ADD DUP1 SLOAD PUSH2 0x1A4 SWAP1 PUSH2 0xC91 JUMP JUMPDEST DUP1 PUSH1 0x1F ADD PUSH1 0x20 DUP1 SWAP2 DIV MUL PUSH1 0x20 ADD PUSH1 0x40 MLOAD SWAP1 DUP2 ADD PUSH1 0x40 MSTORE DUP1 SWAP3 SWAP2 SWAP1 DUP2 DUP2 MSTORE PUSH1 0x20 ADD DUP3 DUP1 SLOAD PUSH2 0x1D0 SWAP1 PUSH2 0xC91 JUMP JUMPDEST DUP1 ISZERO PUSH2 0x21D JUMPI DUP1 PUSH1 0x1F LT PUSH2 0x1F2 JUMPI PUSH2 0x100 DUP1 DUP4 SLOAD DIV MUL DUP4 MSTORE SWAP2 PUSH1 0x20 ADD SWAP2 PUSH2 0x21D JUMP JUMPDEST DUP3 ADD SWAP2 SWAP1 PUSH1 0x0 MSTORE PUSH1 0x20 PUSH1 0x0 KECCAK256 SWAP1 JUMPDEST DUP2 SLOAD DUP2 MSTORE SWAP1 PUSH1 0x1 ADD SWAP1 PUSH1 0x20 ADD DUP1 DUP4 GT PUSH2 0x200 JUMPI DUP3 SWAP1 SUB PUSH1 0x1F AND DUP3 ADD SWAP2 JUMPDEST POP POP POP POP POP SWAP1 DUP1 PUSH1 0x1 ADD SLOAD SWAP1 POP DUP3 JUMP JUMPDEST PUSH1 0x0 DUP2 DUP2 SLOAD DUP2 LT PUSH2 0x23D JUMPI PUSH1 0x0 DUP1 REVERT JUMPDEST SWAP1 PUSH1 0x0 MSTORE PUSH1 0x20 PUSH1 0x0 KECCAK256 SWAP1 PUSH1 0x9 MUL ADD PUSH1 0x0 SWAP2 POP SWAP1 POP DUP1 PUSH1 0x0 ADD DUP1 SLOAD PUSH2 0x260 SWAP1 PUSH2 0xC91 JUMP JUMPDEST DUP1 PUSH1 0x1F ADD PUSH1 0x20 DUP1 SWAP2 DIV MUL PUSH1 0x20 ADD PUSH1 0x40 MLOAD SWAP1 DUP2 ADD PUSH1 0x40 MSTORE DUP1 SWAP3 SWAP2 SWAP1 DUP2 DUP2 MSTORE PUSH1 0x20 ADD DUP3 DUP1 SLOAD PUSH2 0x28C SWAP1 PUSH2 0xC91 JUMP JUMPDEST DUP1 ISZERO PUSH2 0x2D9 JUMPI DUP1 PUSH1 0x1F LT PUSH2 0x2AE JUMPI PUSH2 0x100 DUP1 DUP4 SLOAD DIV MUL DUP4 MSTORE SWAP2 PUSH1 0x20 ADD SWAP2 PUSH2 0x2D9 JUMP JUMPDEST DUP3 ADD SWAP2 SWAP1 PUSH1 0x0 MSTORE PUSH1 0x20 PUSH1 0x0 KECCAK256 SWAP1 JUMPDEST DUP2 SLOAD DUP2 MSTORE SWAP1 PUSH1 0x1 ADD SWAP1 PUSH1 0x20 ADD DUP1 DUP4 GT PUSH2 0x2BC JUMPI DUP3 SWAP1 SUB PUSH1 0x1F AND DUP3 ADD SWAP2 JUMPDEST POP POP POP POP POP SWAP1 DUP1 PUSH1 0x1 ADD SLOAD SWAP1 DUP1 PUSH1 0x2 ADD SLOAD SWAP1 DUP1 PUSH1 0x3 ADD SLOAD SWAP1 DUP1 PUSH1 0x4 ADD SLOAD SWAP1 DUP1 PUSH1 0x5 ADD SLOAD SWAP1 DUP1 PUSH1 0x6 ADD SLOAD SWAP1 DUP1 PUSH1 0x7 ADD SLOAD SWAP1 DUP1 PUSH1 0x8 ADD SLOAD SWAP1 POP DUP10 JUMP JUMPDEST PUSH1 0x60 PUSH1 0x0 DUP1 PUSH1 0x0 DUP1 PUSH1 0x0 DUP1 PUSH1 0x0 DUP1 PUSH1 0x60 PUSH1 0x0 DUP1 SLOAD SWAP1 POP DUP12 LT PUSH2 0x36A JUMPI PUSH1 0x40 MLOAD PUSH32 0x8C379A000000000000000000000000000000000000000000000000000000000 DUP2 MSTORE PUSH1 0x4 ADD PUSH2 0x361 SWAP1 PUSH2 0xD0E JUMP JUMPDEST PUSH1 0x40 MLOAD DUP1 SWAP2 SUB SWAP1 REVERT JUMPDEST PUSH1 0x0 DUP1 DUP13 DUP2 SLOAD DUP2 LT PUSH2 0x37F JUMPI PUSH2 0x37E PUSH2 0xD2E JUMP JUMPDEST JUMPDEST SWAP1 PUSH1 0x0 MSTORE PUSH1 0x20 PUSH1 0x0 KECCAK256 SWAP1 PUSH1 0x9 MUL ADD PUSH1 0x40 MLOAD DUP1 PUSH2 0x120 ADD PUSH1 0x40 MSTORE SWAP1 DUP2 PUSH1 0x0 DUP3 ADD DUP1 SLOAD PUSH2 0x3A9 SWAP1 PUSH2 0xC91 JUMP JUMPDEST DUP1 PUSH1 0x1F ADD PUSH1 0x20 DUP1 SWAP2 DIV MUL PUSH1 0x20 ADD PUSH1 0x40 MLOAD SWAP1 DUP2 ADD PUSH1 0x40 MSTORE DUP1 SWAP3 SWAP2 SWAP1 DUP2 DUP2 MSTORE PUSH1 0x20 ADD DUP3 DUP1 SLOAD PUSH2 0x3D5 SWAP1 PUSH2 0xC91 JUMP JUMPDEST DUP1 ISZERO PUSH2 0x422 JUMPI DUP1 PUSH1 0x1F LT PUSH2 0x3F7 JUMPI PUSH2 0x100 DUP1 DUP4 SLOAD DIV MUL DUP4 MSTORE SWAP2 PUSH1 0x20 ADD SWAP2 PUSH2 0x422 JUMP JUMPDEST DUP3 ADD SWAP2 SWAP1 PUSH1 0x0 MSTORE PUSH1 0x20 PUSH1 0x0 KECCAK256 SWAP1 JUMPDEST DUP2 SLOAD DUP2 MSTORE SWAP1 PUSH1 0x1 ADD SWAP1 PUSH1 0x20 ADD DUP1 DUP4 GT PUSH2 0x405 JUMPI DUP3 SWAP1 SUB PUSH1 0x1F AND DUP3 ADD SWAP2 JUMPDEST POP POP POP POP POP DUP2 MSTORE PUSH1 0x20 ADD PUSH1 0x1 DUP3 ADD SLOAD DUP2 MSTORE PUSH1 0x20 ADD PUSH1 0x2 DUP3 ADD SLOAD DUP2 MSTORE PUSH1 0x20 ADD PUSH1 0x3 DUP3 ADD SLOAD DUP2 MSTORE PUSH1 0x20 ADD PUSH1 0x4 DUP3 ADD SLOAD DUP2 MSTORE PUSH1 0x20 ADD PUSH1 0x5 DUP3 ADD SLOAD DUP2 MSTORE PUSH1 0x20 ADD PUSH1 0x6 DUP3 ADD SLOAD DUP2 MSTORE PUSH1 0x20 ADD PUSH1 0x7 DUP3 ADD SLOAD DUP2 MSTORE PUSH1 0x20 ADD PUSH1 0x8 DUP3 ADD SLOAD DUP2 MSTORE POP POP SWAP1 POP DUP1 PUSH1 0x0 ADD MLOAD DUP2 PUSH1 0x0 ADD MLOAD PUSH1 0x40 MLOAD PUSH1 0x20 ADD PUSH2 0x498 SWAP3 SWAP2 SWAP1 PUSH2 0xE31 JUMP JUMPDEST PUSH1 0x40 MLOAD PUSH1 0x20 DUP2 DUP4 SUB SUB DUP2 MSTORE SWAP1 PUSH1 0x40 MSTORE SWAP2 POP DUP1 PUSH1 0x0 ADD MLOAD DUP2 PUSH1 0x20 ADD MLOAD DUP3 PUSH1 0x40 ADD MLOAD DUP4 PUSH1 0x60 ADD MLOAD DUP5 PUSH1 0x80 ADD MLOAD DUP6 PUSH1 0xA0 ADD MLOAD DUP7 PUSH1 0xC0 ADD MLOAD DUP8 PUSH1 0xE0 ADD MLOAD DUP9 PUSH2 0x100 ADD MLOAD SWAP11 POP SWAP11 POP SWAP11 POP SWAP11 POP SWAP11 POP SWAP11 POP SWAP11 POP SWAP11 POP SWAP11 POP POP SWAP2 SWAP4 SWAP6 SWAP8 SWAP10 POP SWAP2 SWAP4 SWAP6 SWAP8 SWAP10 JUMP JUMPDEST PUSH1 0x0 DUP2 GT PUSH2 0x53A JUMPI PUSH1 0x40 MLOAD PUSH32 0x8C379A000000000000000000000000000000000000000000000000000000000 DUP2 MSTORE PUSH1 0x4 ADD PUSH2 0x531 SWAP1 PUSH2 0xEB7 JUMP JUMPDEST PUSH1 0x40 MLOAD DUP1 SWAP2 SUB SWAP1 REVERT JUMPDEST PUSH1 0x1 PUSH1 0x40 MLOAD DUP1 PUSH1 0x40 ADD PUSH1 0x40 MSTORE DUP1 DUP5 DUP2 MSTORE PUSH1 0x20 ADD DUP4 DUP2 MSTORE POP SWAP1 DUP1 PUSH1 0x1 DUP2 SLOAD ADD DUP1 DUP3 SSTORE DUP1 SWAP2 POP POP PUSH1 0x1 SWAP1 SUB SWAP1 PUSH1 0x0 MSTORE PUSH1 0x20 PUSH1 0x0 KECCAK256 SWAP1 PUSH1 0x2 MUL ADD PUSH1 0x0 SWAP1 SWAP2 SWAP1 SWAP2 SWAP1 SWAP2 POP PUSH1 0x0 DUP3 ADD MLOAD DUP2 PUSH1 0x0 ADD SWAP1 DUP2 PUSH2 0x58F SWAP2 SWAP1 PUSH2 0x1083 JUMP JUMPDEST POP PUSH1 0x20 DUP3 ADD MLOAD DUP2 PUSH1 0x1 ADD SSTORE POP POP PUSH31 0x9E153F5209863356300C774FE4B7B1E96B4DED6E3DB316E37AA6E6A0BD6E04 DUP3 DUP3 PUSH1 0x40 MLOAD PUSH2 0x5CC SWAP3 SWAP2 SWAP1 PUSH2 0x8CC JUMP JUMPDEST PUSH1 0x40 MLOAD DUP1 SWAP2 SUB SWAP1 LOG1 POP POP JUMP JUMPDEST PUSH1 0x0 PUSH1 0x64 DUP5 DUP7 PUSH2 0x5E8 SWAP2 SWAP1 PUSH2 0x1184 JUMP JUMPDEST PUSH2 0x5F2 SWAP2 SWAP1 PUSH2 0x11F5 JUMP JUMPDEST SWAP1 POP PUSH1 0x0 DUP4 DUP3 PUSH2 0x602 SWAP2 SWAP1 PUSH2 0x1184 JUMP JUMPDEST SWAP1 POP PUSH1 0x0 PUSH1 0x64 DUP5 DUP4 PUSH2 0x614 SWAP2 SWAP1 PUSH2 0x1184 JUMP JUMPDEST PUSH2 0x61E SWAP2 SWAP1 PUSH2 0x11F5 JUMP JUMPDEST SWAP1 POP PUSH1 0x0 DUP2 DUP4 PUSH2 0x62E SWAP2 SWAP1 PUSH2 0x1226 JUMP JUMPDEST SWAP1 POP PUSH1 0x0 PUSH1 0x40 MLOAD DUP1 PUSH2 0x120 ADD PUSH1 0x40 MSTORE DUP1 DUP12 DUP2 MSTORE PUSH1 0x20 ADD DUP11 DUP2 MSTORE PUSH1 0x20 ADD DUP10 DUP2 MSTORE PUSH1 0x20 ADD DUP7 DUP2 MSTORE PUSH1 0x20 ADD DUP9 DUP2 MSTORE PUSH1 0x20 ADD DUP6 DUP2 MSTORE PUSH1 0x20 ADD DUP8 DUP2 MSTORE PUSH1 0x20 ADD DUP5 DUP2 MSTORE PUSH1 0x20 ADD DUP4 DUP2 MSTORE POP SWAP1 DUP1 PUSH1 0x1 DUP2 SLOAD ADD DUP1 DUP3 SSTORE DUP1 SWAP2 POP POP PUSH1 0x1 SWAP1 SUB SWAP1 PUSH1 0x0 MSTORE PUSH1 0x20 PUSH1 0x0 KECCAK256 SWAP1 PUSH1 0x9 MUL ADD PUSH1 0x0 SWAP1 SWAP2 SWAP1 SWAP2 SWAP1 SWAP2 POP PUSH1 0x0 DUP3 ADD MLOAD DUP2 PUSH1 0x0 ADD SWAP1 DUP2 PUSH2 0x6B0 SWAP2 SWAP1 PUSH2 0x1083 JUMP JUMPDEST POP PUSH1 0x20 DUP3 ADD MLOAD DUP2 PUSH1 0x1 ADD SSTORE PUSH1 0x40 DUP3 ADD MLOAD DUP2 PUSH1 0x2 ADD SSTORE PUSH1 0x60 DUP3 ADD MLOAD DUP2 PUSH1 0x3 ADD SSTORE PUSH1 0x80 DUP3 ADD MLOAD DUP2 PUSH1 0x4 ADD SSTORE PUSH1 0xA0 DUP3 ADD MLOAD DUP2 PUSH1 0x5 ADD SSTORE PUSH1 0xC0 DUP3 ADD MLOAD DUP2 PUSH1 0x6 ADD SSTORE PUSH1 0xE0 DUP3 ADD MLOAD DUP2 PUSH1 0x7 ADD SSTORE PUSH2 0x100 DUP3 ADD MLOAD DUP2 PUSH1 0x8 ADD SSTORE POP POP PUSH32 0xC521FB4560A3CC7E303AB9C7FFD14336126955FDAB3C7DB4A326173839CAC50D DUP10 DUP10 DUP9 PUSH1 0x40 MLOAD PUSH2 0x737 SWAP4 SWAP3 SWAP2 SWAP1 PUSH2 0x125A JUMP JUMPDEST PUSH1 0x40 MLOAD DUP1 SWAP2 SUB SWAP1 LOG1 POP POP POP POP POP POP POP POP POP JUMP JUMPDEST PUSH1 0x0 DUP3 DUP3 MSTORE PUSH1 0x20 DUP3 ADD SWAP1 POP SWAP3 SWAP2 POP POP JUMP JUMPDEST PUSH32 0x496E76616C69642066756E6374696F6E2063616C6C0000000000000000000000 PUSH1 0x0 DUP3 ADD MSTORE POP JUMP JUMPDEST PUSH1 0x0 PUSH2 0x791 PUSH1 0x15 DUP4 PUSH2 0x74A JUMP JUMPDEST SWAP2 POP PUSH2 0x79C DUP3 PUSH2 0x75B JUMP JUMPDEST PUSH1 0x20 DUP3 ADD SWAP1 POP SWAP2 SWAP1 POP JUMP JUMPDEST PUSH1 0x0 PUSH1 0x20 DUP3 ADD SWAP1 POP DUP2 DUP2 SUB PUSH1 0x0 DUP4 ADD MSTORE PUSH2 0x7C0 DUP2 PUSH2 0x784 JUMP JUMPDEST SWAP1 POP SWAP2 SWAP1 POP JUMP JUMPDEST PUSH1 0x0 PUSH1 0x40 MLOAD SWAP1 POP SWAP1 JUMP JUMPDEST PUSH1 0x0 DUP1 REVERT JUMPDEST PUSH1 0x0 DUP1 REVERT JUMPDEST PUSH1 0x0 DUP2 SWAP1 POP SWAP2 SWAP1 POP JUMP JUMPDEST PUSH2 0x7EE DUP2 PUSH2 0x7DB JUMP JUMPDEST DUP2 EQ PUSH2 0x7F9 JUMPI PUSH1 0x0 DUP1 REVERT JUMPDEST POP JUMP JUMPDEST PUSH1 0x0 DUP2 CALLDATALOAD SWAP1 POP PUSH2 0x80B DUP2 PUSH2 0x7E5 JUMP JUMPDEST SWAP3 SWAP2 POP POP JUMP JUMPDEST PUSH1 0x0 PUSH1 0x20 DUP3 DUP5 SUB SLT ISZERO PUSH2 0x827 JUMPI PUSH2 0x826 PUSH2 0x7D1 JUMP JUMPDEST JUMPDEST PUSH1 0x0 PUSH2 0x835 DUP5 DUP3 DUP6 ADD PUSH2 0x7FC JUMP JUMPDEST SWAP2 POP POP SWAP3 SWAP2 POP POP JUMP JUMPDEST PUSH1 0x0 DUP2 MLOAD SWAP1 POP SWAP2 SWAP1 POP JUMP JUMPDEST PUSH1 0x0 JUMPDEST DUP4 DUP2 LT ISZERO PUSH2 0x867 JUMPI DUP1 DUP3 ADD MLOAD DUP2 DUP5 ADD MSTORE PUSH1 0x20 DUP2 ADD SWAP1 POP PUSH2 0x84C JUMP JUMPDEST PUSH1 0x0 DUP5 DUP5 ADD MSTORE POP POP POP POP JUMP JUMPDEST PUSH1 0x0 PUSH1 0x1F NOT PUSH1 0x1F DUP4 ADD AND SWAP1 POP SWAP2 SWAP1 POP JUMP JUMPDEST PUSH1 0x0 PUSH2 0x88F DUP3 PUSH2 0x83E JUMP JUMPDEST PUSH2 0x899 DUP2 DUP6 PUSH2 0x74A JUMP JUMPDEST SWAP4 POP PUSH2 0x8A9 DUP2 DUP6 PUSH1 0x20 DUP7 ADD PUSH2 0x849 JUMP JUMPDEST PUSH2 0x8B2 DUP2 PUSH2 0x873 JUMP JUMPDEST DUP5 ADD SWAP2 POP POP SWAP3 SWAP2 POP POP JUMP JUMPDEST PUSH2 0x8C6 DUP2 PUSH2 0x7DB JUMP JUMPDEST DUP3 MSTORE POP POP JUMP JUMPDEST PUSH1 0x0 PUSH1 0x40 DUP3 ADD SWAP1 POP DUP2 DUP2 SUB PUSH1 0x0 DUP4 ADD MSTORE PUSH2 0x8E6 DUP2 DUP6 PUSH2 0x884 JUMP JUMPDEST SWAP1 POP PUSH2 0x8F5 PUSH1 0x20 DUP4 ADD DUP5 PUSH2 0x8BD JUMP JUMPDEST SWAP4 SWAP3 POP POP POP JUMP JUMPDEST PUSH1 0x0 PUSH2 0x120 DUP3 ADD SWAP1 POP DUP2 DUP2 SUB PUSH1 0x0 DUP4 ADD MSTORE PUSH2 0x917 DUP2 DUP13 PUSH2 0x884 JUMP JUMPDEST SWAP1 POP PUSH2 0x926 PUSH1 0x20 DUP4 ADD DUP12 PUSH2 0x8BD JUMP JUMPDEST PUSH2 0x933 PUSH1 0x40 DUP4 ADD DUP11 PUSH2 0x8BD JUMP JUMPDEST PUSH2 0x940 PUSH1 0x60 DUP4 ADD DUP10 PUSH2 0x8BD JUMP JUMPDEST PUSH2 0x94D PUSH1 0x80 DUP4 ADD DUP9 PUSH2 0x8BD JUMP JUMPDEST PUSH2 0x95A PUSH1 0xA0 DUP4 ADD DUP8 PUSH2 0x8BD JUMP JUMPDEST PUSH2 0x967 PUSH1 0xC0 DUP4 ADD DUP7 PUSH2 0x8BD JUMP JUMPDEST PUSH2 0x974 PUSH1 0xE0 DUP4 ADD DUP6 PUSH2 0x8BD JUMP JUMPDEST PUSH2 0x982 PUSH2 0x100 DUP4 ADD DUP5 PUSH2 0x8BD JUMP JUMPDEST SWAP11 SWAP10 POP POP POP POP POP POP POP POP POP POP JUMP JUMPDEST PUSH1 0x0 PUSH2 0x140 DUP3 ADD SWAP1 POP DUP2 DUP2 SUB PUSH1 0x0 DUP4 ADD MSTORE PUSH2 0x9AB DUP2 DUP14 PUSH2 0x884 JUMP JUMPDEST SWAP1 POP PUSH2 0x9BA PUSH1 0x20 DUP4 ADD DUP13 PUSH2 0x8BD JUMP JUMPDEST PUSH2 0x9C7 PUSH1 0x40 DUP4 ADD DUP12 PUSH2 0x8BD JUMP JUMPDEST PUSH2 0x9D4 PUSH1 0x60 DUP4 ADD DUP11 PUSH2 0x8BD JUMP JUMPDEST PUSH2 0x9E1 PUSH1 0x80 DUP4 ADD DUP10 PUSH2 0x8BD JUMP JUMPDEST PUSH2 0x9EE PUSH1 0xA0 DUP4 ADD DUP9 PUSH2 0x8BD JUMP JUMPDEST PUSH2 0x9FB PUSH1 0xC0 DUP4 ADD DUP8 PUSH2 0x8BD JUMP JUMPDEST PUSH2 0xA08 PUSH1 0xE0 DUP4 ADD DUP7 PUSH2 0x8BD JUMP JUMPDEST PUSH2 0xA16 PUSH2 0x100 DUP4 ADD DUP6 PUSH2 0x8BD JUMP JUMPDEST DUP2 DUP2 SUB PUSH2 0x120 DUP4 ADD MSTORE PUSH2 0xA29 DUP2 DUP5 PUSH2 0x884 JUMP JUMPDEST SWAP1 POP SWAP12 SWAP11 POP POP POP POP POP POP POP POP POP POP POP JUMP JUMPDEST PUSH1 0x0 DUP1 REVERT JUMPDEST PUSH1 0x0 DUP1 REVERT JUMPDEST PUSH32 0x4E487B7100000000000000000000000000000000000000000000000000000000 PUSH1 0x0 MSTORE PUSH1 0x41 PUSH1 0x4 MSTORE PUSH1 0x24 PUSH1 0x0 REVERT JUMPDEST PUSH2 0xA7C DUP3 PUSH2 0x873 JUMP JUMPDEST DUP2 ADD DUP2 DUP2 LT PUSH8 0xFFFFFFFFFFFFFFFF DUP3 GT OR ISZERO PUSH2 0xA9B JUMPI PUSH2 0xA9A PUSH2 0xA44 JUMP JUMPDEST JUMPDEST DUP1 PUSH1 0x40 MSTORE POP POP POP JUMP JUMPDEST PUSH1 0x0 PUSH2 0xAAE PUSH2 0x7C7 JUMP JUMPDEST SWAP1 POP PUSH2 0xABA DUP3 DUP3 PUSH2 0xA73 JUMP JUMPDEST SWAP2 SWAP1 POP JUMP JUMPDEST PUSH1 0x0 PUSH8 0xFFFFFFFFFFFFFFFF DUP3 GT ISZERO PUSH2 0xADA JUMPI PUSH2 0xAD9 PUSH2 0xA44 JUMP JUMPDEST JUMPDEST PUSH2 0xAE3 DUP3 PUSH2 0x873 JUMP JUMPDEST SWAP1 POP PUSH1 0x20 DUP2 ADD SWAP1 POP SWAP2 SWAP1 POP JUMP JUMPDEST DUP3 DUP2 DUP4 CALLDATACOPY PUSH1 0x0 DUP4 DUP4 ADD MSTORE POP POP POP JUMP JUMPDEST PUSH1 0x0 PUSH2 0xB12 PUSH2 0xB0D DUP5 PUSH2 0xABF JUMP JUMPDEST PUSH2 0xAA4 JUMP JUMPDEST SWAP1 POP DUP3 DUP2 MSTORE PUSH1 0x20 DUP2 ADD DUP5 DUP5 DUP5 ADD GT ISZERO PUSH2 0xB2E JUMPI PUSH2 0xB2D PUSH2 0xA3F JUMP JUMPDEST JUMPDEST PUSH2 0xB39 DUP5 DUP3 DUP6 PUSH2 0xAF0 JUMP JUMPDEST POP SWAP4 SWAP3 POP POP POP JUMP JUMPDEST PUSH1 0x0 DUP3 PUSH1 0x1F DUP4 ADD SLT PUSH2 0xB56 JUMPI PUSH2 0xB55 PUSH2 0xA3A JUMP JUMPDEST JUMPDEST DUP2 CALLDATALOAD PUSH2 0xB66 DUP5 DUP3 PUSH1 0x20 DUP7 ADD PUSH2 0xAFF JUMP JUMPDEST SWAP2 POP POP SWAP3 SWAP2 POP POP JUMP JUMPDEST PUSH1 0x0 DUP1 PUSH1 0x40 DUP4 DUP6 SUB SLT ISZERO PUSH2 0xB86 JUMPI PUSH2 0xB85 PUSH2 0x7D1 JUMP JUMPDEST JUMPDEST PUSH1 0x0 DUP4 ADD CALLDATALOAD PUSH8 0xFFFFFFFFFFFFFFFF DUP2 GT ISZERO PUSH2 0xBA4 JUMPI PUSH2 0xBA3 PUSH2 0x7D6 JUMP JUMPDEST JUMPDEST PUSH2 0xBB0 DUP6 DUP3 DUP7 ADD PUSH2 0xB41 JUMP JUMPDEST SWAP3 POP POP PUSH1 0x20 PUSH2 0xBC1 DUP6 DUP3 DUP7 ADD PUSH2 0x7FC JUMP JUMPDEST SWAP2 POP POP SWAP3 POP SWAP3 SWAP1 POP JUMP JUMPDEST PUSH1 0x0 DUP1 PUSH1 0x0 DUP1 PUSH1 0x0 PUSH1 0xA0 DUP7 DUP9 SUB SLT ISZERO PUSH2 0xBE7 JUMPI PUSH2 0xBE6 PUSH2 0x7D1 JUMP JUMPDEST JUMPDEST PUSH1 0x0 DUP7 ADD CALLDATALOAD PUSH8 0xFFFFFFFFFFFFFFFF DUP2 GT ISZERO PUSH2 0xC05 JUMPI PUSH2 0xC04 PUSH2 0x7D6 JUMP JUMPDEST JUMPDEST PUSH2 0xC11 DUP9 DUP3 DUP10 ADD PUSH2 0xB41 JUMP JUMPDEST SWAP6 POP POP PUSH1 0x20 PUSH2 0xC22 DUP9 DUP3 DUP10 ADD PUSH2 0x7FC JUMP JUMPDEST SWAP5 POP POP PUSH1 0x40 PUSH2 0xC33 DUP9 DUP3 DUP10 ADD PUSH2 0x7FC JUMP JUMPDEST SWAP4 POP POP PUSH1 0x60 PUSH2 0xC44 DUP9 DUP3 DUP10 ADD PUSH2 0x7FC JUMP JUMPDEST SWAP3 POP POP PUSH1 0x80 PUSH2 0xC55 DUP9 DUP3 DUP10 ADD PUSH2 0x7FC JUMP JUMPDEST SWAP2 POP POP SWAP3 SWAP6 POP SWAP3 SWAP6 SWAP1 SWAP4 POP JUMP JUMPDEST PUSH32 0x4E487B7100000000000000000000000000000000000000000000000000000000 PUSH1 0x0 MSTORE PUSH1 0x22 PUSH1 0x4 MSTORE PUSH1 0x24 PUSH1 0x0 REVERT JUMPDEST PUSH1 0x0 PUSH1 0x2 DUP3 DIV SWAP1 POP PUSH1 0x1 DUP3 AND DUP1 PUSH2 0xCA9 JUMPI PUSH1 0x7F DUP3 AND SWAP2 POP JUMPDEST PUSH1 0x20 DUP3 LT DUP2 SUB PUSH2 0xCBC JUMPI PUSH2 0xCBB PUSH2 0xC62 JUMP JUMPDEST JUMPDEST POP SWAP2 SWAP1 POP JUMP JUMPDEST PUSH32 0x496E76616C6964206D6574616C20696E64657800000000000000000000000000 PUSH1 0x0 DUP3 ADD MSTORE POP JUMP JUMPDEST PUSH1 0x0 PUSH2 0xCF8 PUSH1 0x13 DUP4 PUSH2 0x74A JUMP JUMPDEST SWAP2 POP PUSH2 0xD03 DUP3 PUSH2 0xCC2 JUMP JUMPDEST PUSH1 0x20 DUP3 ADD SWAP1 POP SWAP2 SWAP1 POP JUMP JUMPDEST PUSH1 0x0 PUSH1 0x20 DUP3 ADD SWAP1 POP DUP2 DUP2 SUB PUSH1 0x0 DUP4 ADD MSTORE PUSH2 0xD27 DUP2 PUSH2 0xCEB JUMP JUMPDEST SWAP1 POP SWAP2 SWAP1 POP JUMP JUMPDEST PUSH32 0x4E487B7100000000000000000000000000000000000000000000000000000000 PUSH1 0x0 MSTORE PUSH1 0x32 PUSH1 0x4 MSTORE PUSH1 0x24 PUSH1 0x0 REVERT JUMPDEST PUSH1 0x0 DUP2 SWAP1 POP SWAP3 SWAP2 POP POP JUMP JUMPDEST PUSH1 0x0 PUSH2 0xD73 DUP3 PUSH2 0x83E JUMP JUMPDEST PUSH2 0xD7D DUP2 DUP6 PUSH2 0xD5D JUMP JUMPDEST SWAP4 POP PUSH2 0xD8D DUP2 DUP6 PUSH1 0x20 DUP7 ADD PUSH2 0x849 JUMP JUMPDEST DUP1 DUP5 ADD SWAP2 POP POP SWAP3 SWAP2 POP POP JUMP JUMPDEST PUSH32 0x20697320616C6C6F636174656420746F20000000000000000000000000000000 PUSH1 0x0 DUP3 ADD MSTORE POP JUMP JUMPDEST PUSH1 0x0 PUSH2 0xDCF PUSH1 0x11 DUP4 PUSH2 0xD5D JUMP JUMPDEST SWAP2 POP PUSH2 0xDDA DUP3 PUSH2 0xD99 JUMP JUMPDEST PUSH1 0x11 DUP3 ADD SWAP1 POP SWAP2 SWAP1 POP JUMP JUMPDEST PUSH32 0x207265636F766572792070726F636573732E0000000000000000000000000000 PUSH1 0x0 DUP3 ADD MSTORE POP JUMP JUMPDEST PUSH1 0x0 PUSH2 0xE1B PUSH1 0x12 DUP4 PUSH2 0xD5D JUMP JUMPDEST SWAP2 POP PUSH2 0xE26 DUP3 PUSH2 0xDE5 JUMP JUMPDEST PUSH1 0x12 DUP3 ADD SWAP1 POP SWAP2 SWAP1 POP JUMP JUMPDEST PUSH1 0x0 PUSH2 0xE3D DUP3 DUP6 PUSH2 0xD68 JUMP JUMPDEST SWAP2 POP PUSH2 0xE48 DUP3 PUSH2 0xDC2 JUMP JUMPDEST SWAP2 POP PUSH2 0xE54 DUP3 DUP5 PUSH2 0xD68 JUMP JUMPDEST SWAP2 POP PUSH2 0xE5F DUP3 PUSH2 0xE0E JUMP JUMPDEST SWAP2 POP DUP2 SWAP1 POP SWAP4 SWAP3 POP POP POP JUMP JUMPDEST PUSH32 0x416D6F756E74206D7573742062652067726561746572207468616E207A65726F PUSH1 0x0 DUP3 ADD MSTORE POP JUMP JUMPDEST PUSH1 0x0 PUSH2 0xEA1 PUSH1 0x20 DUP4 PUSH2 0x74A JUMP JUMPDEST SWAP2 POP PUSH2 0xEAC DUP3 PUSH2 0xE6B JUMP JUMPDEST PUSH1 0x20 DUP3 ADD SWAP1 POP SWAP2 SWAP1 POP JUMP JUMPDEST PUSH1 0x0 PUSH1 0x20 DUP3 ADD SWAP1 POP DUP2 DUP2 SUB PUSH1 0x0 DUP4 ADD MSTORE PUSH2 0xED0 DUP2 PUSH2 0xE94 JUMP JUMPDEST SWAP1 POP SWAP2 SWAP1 POP JUMP JUMPDEST PUSH1 0x0 DUP2 SWAP1 POP DUP2 PUSH1 0x0 MSTORE PUSH1 0x20 PUSH1 0x0 KECCAK256 SWAP1 POP SWAP2 SWAP1 POP JUMP JUMPDEST PUSH1 0x0 PUSH1 0x20 PUSH1 0x1F DUP4 ADD DIV SWAP1 POP SWAP2 SWAP1 POP JUMP JUMPDEST PUSH1 0x0 DUP3 DUP3 SHL SWAP1 POP SWAP3 SWAP2 POP POP JUMP JUMPDEST PUSH1 0x0 PUSH1 0x8 DUP4 MUL PUSH2 0xF39 PUSH32 0xFFFFFFFFFFFFFFFFFFFFFFFFFFFFFFFFFFFFFFFFFFFFFFFFFFFFFFFFFFFFFFFF DUP3 PUSH2 0xEFC JUMP JUMPDEST PUSH2 0xF43 DUP7 DUP4 PUSH2 0xEFC JUMP JUMPDEST SWAP6 POP DUP1 NOT DUP5 AND SWAP4 POP DUP1 DUP7 AND DUP5 OR SWAP3 POP POP POP SWAP4 SWAP3 POP POP POP JUMP JUMPDEST PUSH1 0x0 DUP2 SWAP1 POP SWAP2 SWAP1 POP JUMP JUMPDEST PUSH1 0x0 PUSH2 0xF80 PUSH2 0xF7B PUSH2 0xF76 DUP5 PUSH2 0x7DB JUMP JUMPDEST PUSH2 0xF5B JUMP JUMPDEST PUSH2 0x7DB JUMP JUMPDEST SWAP1 POP SWAP2 SWAP1 POP JUMP JUMPDEST PUSH1 0x0 DUP2 SWAP1 POP SWAP2 SWAP1 POP JUMP JUMPDEST PUSH2 0xF9A DUP4 PUSH2 0xF65 JUMP JUMPDEST PUSH2 0xFAE PUSH2 0xFA6 DUP3 PUSH2 0xF87 JUMP JUMPDEST DUP5 DUP5 SLOAD PUSH2 0xF09 JUMP JUMPDEST DUP3 SSTORE POP POP POP POP JUMP JUMPDEST PUSH1 0x0 SWAP1 JUMP JUMPDEST PUSH2 0xFC3 PUSH2 0xFB6 JUMP JUMPDEST PUSH2 0xFCE DUP2 DUP5 DUP5 PUSH2 0xF91 JUMP JUMPDEST POP POP POP JUMP JUMPDEST JUMPDEST DUP2 DUP2 LT ISZERO PUSH2 0xFF2 JUMPI PUSH2 0xFE7 PUSH1 0x0 DUP3 PUSH2 0xFBB JUMP JUMPDEST PUSH1 0x1 DUP2 ADD SWAP1 POP PUSH2 0xFD4 JUMP JUMPDEST POP POP JUMP JUMPDEST PUSH1 0x1F DUP3 GT ISZERO PUSH2 0x1037 JUMPI PUSH2 0x1008 DUP2 PUSH2 0xED7 JUMP JUMPDEST PUSH2 0x1011 DUP5 PUSH2 0xEEC JUMP JUMPDEST DUP2 ADD PUSH1 0x20 DUP6 LT ISZERO PUSH2 0x1020 JUMPI DUP2 SWAP1 POP JUMPDEST PUSH2 0x1034 PUSH2 0x102C DUP6 PUSH2 0xEEC JUMP JUMPDEST DUP4 ADD DUP3 PUSH2 0xFD3 JUMP JUMPDEST POP POP JUMPDEST POP POP POP JUMP JUMPDEST PUSH1 0x0 DUP3 DUP3 SHR SWAP1 POP SWAP3 SWAP2 POP POP JUMP JUMPDEST PUSH1 0x0 PUSH2 0x105A PUSH1 0x0 NOT DUP5 PUSH1 0x8 MUL PUSH2 0x103C JUMP JUMPDEST NOT DUP1 DUP4 AND SWAP2 POP POP SWAP3 SWAP2 POP POP JUMP JUMPDEST PUSH1 0x0 PUSH2 0x1073 DUP4 DUP4 PUSH2 0x1049 JUMP JUMPDEST SWAP2 POP DUP3 PUSH1 0x2 MUL DUP3 OR SWAP1 POP SWAP3 SWAP2 POP POP JUMP JUMPDEST PUSH2 0x108C DUP3 PUSH2 0x83E JUMP JUMPDEST PUSH8 0xFFFFFFFFFFFFFFFF DUP2 GT ISZERO PUSH2 0x10A5 JUMPI PUSH2 0x10A4 PUSH2 0xA44 JUMP JUMPDEST JUMPDEST PUSH2 0x10AF DUP3 SLOAD PUSH2 0xC91 JUMP JUMPDEST PUSH2 0x10BA DUP3 DUP3 DUP6 PUSH2 0xFF6 JUMP JUMPDEST PUSH1 0x0 PUSH1 0x20 SWAP1 POP PUSH1 0x1F DUP4 GT PUSH1 0x1 DUP2 EQ PUSH2 0x10ED JUMPI PUSH1 0x0 DUP5 ISZERO PUSH2 0x10DB JUMPI DUP3 DUP8 ADD MLOAD SWAP1 POP JUMPDEST PUSH2 0x10E5 DUP6 DUP3 PUSH2 0x1067 JUMP JUMPDEST DUP7 SSTORE POP PUSH2 0x114D JUMP JUMPDEST PUSH1 0x1F NOT DUP5 AND PUSH2 0x10FB DUP7 PUSH2 0xED7 JUMP JUMPDEST PUSH1 0x0 JUMPDEST DUP3 DUP2 LT ISZERO PUSH2 0x1123 JUMPI DUP5 DUP10 ADD MLOAD DUP3 SSTORE PUSH1 0x1 DUP3 ADD SWAP2 POP PUSH1 0x20 DUP6 ADD SWAP5 POP PUSH1 0x20 DUP2 ADD SWAP1 POP PUSH2 0x10FE JUMP JUMPDEST DUP7 DUP4 LT ISZERO PUSH2 0x1140 JUMPI DUP5 DUP10 ADD MLOAD PUSH2 0x113C PUSH1 0x1F DUP10 AND DUP3 PUSH2 0x1049 JUMP JUMPDEST DUP4 SSTORE POP JUMPDEST PUSH1 0x1 PUSH1 0x2 DUP9 MUL ADD DUP9 SSTORE POP POP POP JUMPDEST POP POP POP POP POP POP JUMP JUMPDEST PUSH32 0x4E487B7100000000000000000000000000000000000000000000000000000000 PUSH1 0x0 MSTORE PUSH1 0x11 PUSH1 0x4 MSTORE PUSH1 0x24 PUSH1 0x0 REVERT JUMPDEST PUSH1 0x0 PUSH2 0x118F DUP3 PUSH2 0x7DB JUMP JUMPDEST SWAP2 POP PUSH2 0x119A DUP4 PUSH2 0x7DB JUMP JUMPDEST SWAP3 POP DUP3 DUP3 MUL PUSH2 0x11A8 DUP2 PUSH2 0x7DB JUMP JUMPDEST SWAP2 POP DUP3 DUP3 DIV DUP5 EQ DUP4 ISZERO OR PUSH2 0x11BF JUMPI PUSH2 0x11BE PUSH2 0x1155 JUMP JUMPDEST JUMPDEST POP SWAP3 SWAP2 POP POP JUMP JUMPDEST PUSH32 0x4E487B7100000000000000000000000000000000000000000000000000000000 PUSH1 0x0 MSTORE PUSH1 0x12 PUSH1 0x4 MSTORE PUSH1 0x24 PUSH1 0x0 REVERT JUMPDEST PUSH1 0x0 PUSH2 0x1200 DUP3 PUSH2 0x7DB JUMP JUMPDEST SWAP2 POP PUSH2 0x120B DUP4 PUSH2 0x7DB JUMP JUMPDEST SWAP3 POP DUP3 PUSH2 0x121B JUMPI PUSH2 0x121A PUSH2 0x11C6 JUMP JUMPDEST JUMPDEST DUP3 DUP3 DIV SWAP1 POP SWAP3 SWAP2 POP POP JUMP JUMPDEST PUSH1 0x0 PUSH2 0x1231 DUP3 PUSH2 0x7DB JUMP JUMPDEST SWAP2 POP PUSH2 0x123C DUP4 PUSH2 0x7DB JUMP JUMPDEST SWAP3 POP DUP3 DUP3 SUB SWAP1 POP DUP2 DUP2 GT ISZERO PUSH2 0x1254 JUMPI PUSH2 0x1253 PUSH2 0x1155 JUMP JUMPDEST JUMPDEST SWAP3 SWAP2 POP POP JUMP JUMPDEST PUSH1 0x0 PUSH1 0x60 DUP3 ADD SWAP1 POP DUP2 DUP2 SUB PUSH1 0x0 DUP4 ADD MSTORE PUSH2 0x1274 DUP2 DUP7 PUSH2 0x884 JUMP JUMPDEST SWAP1 POP PUSH2 0x1283 PUSH1 0x20 DUP4 ADD DUP6 PUSH2 0x8BD JUMP JUMPDEST PUSH2 0x1290 PUSH1 0x40 DUP4 ADD DUP5 PUSH2 0x8BD JUMP JUMPDEST SWAP5 SWAP4 POP POP POP POP JUMP INVALID LOG2 PUSH5 0x6970667358 0x22 SLT KECCAK256 0x2F SWAP15 SUB PUSH29 0x2CEE1FC91B655B7861D63886EDF7C91F3C59A3559AAE9D1DFFF26CB364 PUSH20 0x6F6C634300081C00330000000000000000000000 "},"methodIdentifiers":{"addEWasteBatch(string,uint256)":"8af85f91","addMetal(string,uint256,uint256,uint256,uint256)":"c3cbc80d","eWasteBatches(uint256)":"0417d997","getMetalDetails(uint256)":"80edbb5f","metals(uint256)":"32d8db6e"}}}}}