{
  "_format": "hh-sol-artifact-1",
  "contractName": "EWasteProcessing",
  "sourceName": "contracts/EWasteProcessing.sol",
  "abi": [
    {
      "inputs": [],
      "stateMutability": "nonpayable",
      "type": "constructor"
    },
    {
      "anonymous": false,
      "inputs": [
        {
          "indexed": false,
          "internalType": "string",
          "name": "deviceType",
          "type": "string"
        },
        {
          "indexed": false,
          "internalType": "uint256",
          "name": "amountKg",
          "type": "uint256"
        }
      ],
      "name": "EWasteBatchAdded",
      "type": "event"
    },
    {
      "anonymous": false,
      "inputs": [
        {
          "indexed": false,
          "internalType": "string",
          "name": "deviceType",
          "type": "string"
        },
        {
          "indexed": false,
          "internalType": "string",
          "name": "name",
          "type": "string"
        },
        {
          "indexed": false,
          "internalType": "uint256",
          "name": "contentMgPerKg",
          "type": "uint256"
        },
        {
          "indexed": false,
          "internalType": "uint256",
          "name": "marketPriceCentsPerMg",
          "type": "uint256"
        }
      ],
      "name": "MetalAdded",
      "type": "event"
    },
    {
      "inputs": [
        {
          "internalType": "string",
          "name": "_deviceType",
          "type": "string"
        },
        {
          "internalType": "uint256",
          "name": "_amountKg",
          "type": "uint256"
        }
      ],
      "name": "addEWasteBatch",
      "outputs": [],
      "stateMutability": "nonpayable",
      "type": "function"
    },
    {
      "inputs": [
        {
          "internalType": "string",
          "name": "_deviceType",
          "type": "string"
        },
        {
          "internalType": "string",
          "name": "_name",
          "type": "string"
        },
        {
          "internalType": "uint256",
          "name": "_contentMgPerKg",
          "type": "uint256"
        },
        {
          "internalType": "uint256",
          "name": "_recoveryEfficiencyPercent",
          "type": "uint256"
        },
        {
          "internalType": "uint256",
          "name": "_marketPriceCentsPerMg",
          "type": "uint256"
        },
        {
          "internalType": "uint256",
          "name": "_recoveryCostPercent",
          "type": "uint256"
        }
      ],
      "name": "addMetal",
      "outputs": [],
      "stateMutability": "nonpayable",
      "type": "function"
    },
    {
      "inputs": [
        {
          "internalType": "string",
          "name": "_deviceType",
          "type": "string"
        },
        {
          "internalType": "uint256",
          "name": "_amountKg",
          "type": "uint256"
        }
      ],
      "name": "calculateNetValueForDevice",
      "outputs": [
        {
          "internalType": "uint256",
          "name": "totalNetValueCents",
          "type": "uint256"
        }
      ],
      "stateMutability": "view",
      "type": "function"
    },
    {
      "inputs": [
        {
          "internalType": "uint256",
          "name": "",
          "type": "uint256"
        }
      ],
      "name": "eWasteBatches",
      "outputs": [
        {
          "internalType": "string",
          "name": "deviceType",
          "type": "string"
        },
        {
          "internalType": "uint256",
          "name": "amountKg",
          "type": "uint256"
        }
      ],
      "stateMutability": "view",
      "type": "function"
    },
    {
      "inputs": [],
      "name": "getMetalsCount",
      "outputs": [
        {
          "internalType": "uint256",
          "name": "",
          "type": "uint256"
        }
      ],
      "stateMutability": "view",
      "type": "function"
    },
    {
      "inputs": [
        {
          "internalType": "string",
          "name": "_deviceType",
          "type": "string"
        }
      ],
      "name": "getMetalsForDevice",
      "outputs": [
        {
          "internalType": "string[]",
          "name": "metalNames",
          "type": "string[]"
        }
      ],
      "stateMutability": "view",
      "type": "function"
    },
    {
      "inputs": [
        {
          "internalType": "uint256",
          "name": "",
          "type": "uint256"
        }
      ],
      "name": "metals",
      "outputs": [
        {
          "internalType": "string",
          "name": "name",
          "type": "string"
        },
        {
          "internalType": "string",
          "name": "deviceType",
          "type": "string"
        },
        {
          "internalType": "uint256",
          "name": "contentMgPerKg",
          "type": "uint256"
        },
        {
          "internalType": "uint256",
          "name": "recoveryEfficiencyPercent",
          "type": "uint256"
        },
        {
          "internalType": "uint256",
          "name": "marketPriceCentsPerMg",
          "type": "uint256"
        },
        {
          "internalType": "uint256",
          "name": "recoveryCostPercent",
          "type": "uint256"
        }
      ],
      "stateMutability": "view",
      "type": "function"
    }
  ],
  "bytecode": "0x608060405234801561001057600080fd5b506100966040518060400160405280600c81526020017f4d6f62696c652050686f6e6500000000000000000000000000000000000000008152506040518060400160405280600481526020017f476f6c640000000000000000000000000000000000000000000000000000000081525061012c605f628151786008610bf260201b60201c565b61011b6040518060400160405280600c81526020017f4d6f62696c652050686f6e6500000000000000000000000000000000000000008152506040518060400160405280600681526020017f53696c76657200000000000000000000000000000000000000000000000000008152506103e8605a6201782c6008610bf260201b60201c565b6101a06040518060400160405280600c81526020017f4d6f62696c652050686f6e6500000000000000000000000000000000000000008152506040518060400160405280600681526020017f436f707065720000000000000000000000000000000000000000000000000000815250620249f0605561038b6014610bf260201b60201c565b6102246040518060400160405280600c81526020017f4d6f62696c652050686f6e6500000000000000000000000000000000000000008152506040518060400160405280600981526020017f50616c6c616469756d00000000000000000000000000000000000000000000008152506014605a622bf2006008610bf260201b60201c565b6102a76040518060400160405280600c81526020017f4d6f62696c652050686f6e6500000000000000000000000000000000000000008152506040518060400160405280600981526020017f416c756d696e69756d0000000000000000000000000000000000000000000000815250619c40605560f96014610bf260201b60201c565b61032b6040518060400160405280600c81526020017f4d6f62696c652050686f6e6500000000000000000000000000000000000000008152506040518060400160405280600481526020017f49726f6e0000000000000000000000000000000000000000000000000000000081525062030d40605a600a6014610bf260201b60201c565b6103af6040518060400160405280600c81526020017f4d6f62696c652050686f6e6500000000000000000000000000000000000000008152506040518060400160405280600681526020017f4e69636b656c000000000000000000000000000000000000000000000000000081525061138860506105f16014610bf260201b60201c565b6104336040518060400160405280600c81526020017f4d6f62696c652050686f6e6500000000000000000000000000000000000000008152506040518060400160405280600481526020017f5a696e6300000000000000000000000000000000000000000000000000000000815250610bb860506101226014610bf260201b60201c565b6104b66040518060400160405280600c81526020017f4d6f62696c652050686f6e6500000000000000000000000000000000000000008152506040518060400160405280600481526020017f4c656164000000000000000000000000000000000000000000000000000000008152506107d0604b60c26014610bf260201b60201c565b61053a6040518060400160405280600c81526020017f4d6f62696c652050686f6e6500000000000000000000000000000000000000008152506040518060400160405280600381526020017f54696e00000000000000000000000000000000000000000000000000000000008152506103e86046610bb26014610bf260201b60201c565b6105be6040518060400160405280600681526020017f4c6170746f7000000000000000000000000000000000000000000000000000008152506040518060400160405280600481526020017f476f6c6400000000000000000000000000000000000000000000000000000000815250605a603f628151786008610bf260201b60201c565b6106426040518060400160405280600681526020017f4c6170746f7000000000000000000000000000000000000000000000000000008152506040518060400160405280600681526020017f53696c766572000000000000000000000000000000000000000000000000000081525060c8603f6201782c6008610bf260201b60201c565b6106c76040518060400160405280600681526020017f4c6170746f7000000000000000000000000000000000000000000000000000008152506040518060400160405280600681526020017f436f70706572000000000000000000000000000000000000000000000000000081525062010b94605561038b6014610bf260201b60201c565b61074b6040518060400160405280600681526020017f4c6170746f7000000000000000000000000000000000000000000000000000008152506040518060400160405280600981526020017f50616c6c616469756d00000000000000000000000000000000000000000000008152506032603f622bf2006008610bf260201b60201c565b6107cf6040518060400160405280600681526020017f4c6170746f7000000000000000000000000000000000000000000000000000008152506040518060400160405280600981526020017f416c756d696e69756d0000000000000000000000000000000000000000000000815250620149b0604b60f96014610bf260201b60201c565b6108536040518060400160405280600681526020017f4c6170746f7000000000000000000000000000000000000000000000000000008152506040518060400160405280600481526020017f49726f6e0000000000000000000000000000000000000000000000000000000081525062022ab06056600a6014610bf260201b60201c565b6108d76040518060400160405280600681526020017f4c6170746f7000000000000000000000000000000000000000000000000000008152506040518060400160405280600681526020017f4e69636b656c00000000000000000000000000000000000000000000000000008152506161a8605a6105f16014610bf260201b60201c565b61095b6040518060400160405280600681526020017f4c6170746f7000000000000000000000000000000000000000000000000000008152506040518060400160405280600481526020017f5a696e6300000000000000000000000000000000000000000000000000000000815250610fa0605a6101226014610bf260201b60201c565b6109de6040518060400160405280600681526020017f4c6170746f7000000000000000000000000000000000000000000000000000008152506040518060400160405280600481526020017f4c65616400000000000000000000000000000000000000000000000000000000815250611388605a60c26014610bf260201b60201c565b610a626040518060400160405280600681526020017f4c6170746f7000000000000000000000000000000000000000000000000000008152506040518060400160405280600381526020017f54696e0000000000000000000000000000000000000000000000000000000000815250611f40605a610bb26014610bf260201b60201c565b610ae66040518060400160405280600681526020017f4c6170746f7000000000000000000000000000000000000000000000000000008152506040518060400160405280600681526020017f436f62616c740000000000000000000000000000000000000000000000000000815250614e20605a6105f16014610bf260201b60201c565b610b6a6040518060400160405280600681526020017f4c6170746f7000000000000000000000000000000000000000000000000000008152506040518060400160405280600881526020017f4368726f6d69756d0000000000000000000000000000000000000000000000008152506107d0605a6105f16014610bf260201b60201c565b610bed6040518060400160405280600681526020017f4c6170746f7000000000000000000000000000000000000000000000000000008152506040518060400160405280600981526020017f4d61676e657369756d0000000000000000000000000000000000000000000000815250612710605a60f96014610bf260201b60201c565b6110ee565b60006040518060c001604052808781526020018881526020018681526020018581526020018481526020018381525090806001815401808255809150506001900390600052602060002090600602016000909190919091506000820151816000019081610c5f9190610f35565b506020820151816001019081610c759190610f35565b5060408201518160020155606082015181600301556080820151816004015560a0820151816005015550507fd3fc49c979da257b3d58b4d31ff673185ef4383e57dcc8cb9ac754e7bcc8c61886868685604051610cd5949392919061109b565b60405180910390a1505050505050565b600081519050919050565b7f4e487b7100000000000000000000000000000000000000000000000000000000600052604160045260246000fd5b7f4e487b7100000000000000000000000000000000000000000000000000000000600052602260045260246000fd5b60006002820490506001821680610d6657607f821691505b602082108103610d7957610d78610d1f565b5b50919050565b60008190508160005260206000209050919050565b60006020601f8301049050919050565b600082821b905092915050565b600060088302610de17fffffffffffffffffffffffffffffffffffffffffffffffffffffffffffffffff82610da4565b610deb8683610da4565b95508019841693508086168417925050509392505050565b6000819050919050565b6000819050919050565b6000610e32610e2d610e2884610e03565b610e0d565b610e03565b9050919050565b6000819050919050565b610e4c83610e17565b610e60610e5882610e39565b848454610db1565b825550505050565b600090565b610e75610e68565b610e80818484610e43565b505050565b5b81811015610ea457610e99600082610e6d565b600181019050610e86565b5050565b601f821115610ee957610eba81610d7f565b610ec384610d94565b81016020851015610ed2578190505b610ee6610ede85610d94565b830182610e85565b50505b505050565b600082821c905092915050565b6000610f0c60001984600802610eee565b1980831691505092915050565b6000610f258383610efb565b9150826002028217905092915050565b610f3e82610ce5565b67ffffffffffffffff811115610f5757610f56610cf0565b5b610f618254610d4e565b610f6c828285610ea8565b600060209050601f831160018114610f9f5760008415610f8d578287015190505b610f978582610f19565b865550610fff565b601f198416610fad86610d7f565b60005b82811015610fd557848901518255600182019150602085019450602081019050610fb0565b86831015610ff25784890151610fee601f891682610efb565b8355505b6001600288020188555050505b505050505050565b600082825260208201905092915050565b60005b8381101561103657808201518184015260208101905061101b565b60008484015250505050565b6000601f19601f8301169050919050565b600061105e82610ce5565b6110688185611007565b9350611078818560208601611018565b61108181611042565b840191505092915050565b61109581610e03565b82525050565b600060808201905081810360008301526110b58187611053565b905081810360208301526110c98186611053565b90506110d8604083018561108c565b6110e5606083018461108c565b95945050505050565b61173e806110fd6000396000f3fe608060405234801561001057600080fd5b506004361061007d5760003560e01c806332d8db6e1161005b57806332d8db6e146100ff5780638af85f9114610134578063ae65e32714610150578063f359bc23146101805761007d565b80630261ec32146100825780630417d997146100b257806316c0e2d9146100e3575b600080fd5b61009c60048036038101906100979190610d78565b61019e565b6040516100a99190610f02565b60405180910390f35b6100cc60048036038101906100c79190610f5a565b6105a2565b6040516100da929190610fe0565b60405180910390f35b6100fd60048036038101906100f89190611010565b61065e565b005b61011960048036038101906101149190610f5a565b610751565b60405161012b969594939291906110d5565b60405180910390f35b61014e60048036038101906101499190611144565b6108ad565b005b61016a60048036038101906101659190611144565b61098e565b60405161017791906111a0565b60405180910390f35b610188610c12565b60405161019591906111a0565b60405180910390f35b60606000805b6000805490508110156103635760008082815481106101c6576101c56111bb565b5b90600052602060002090600602016040518060c00160405290816000820180546101ef90611219565b80601f016020809104026020016040519081016040528092919081815260200182805461021b90611219565b80156102685780601f1061023d57610100808354040283529160200191610268565b820191906000526020600020905b81548152906001019060200180831161024b57829003601f168201915b5050505050815260200160018201805461028190611219565b80601f01602080910402602001604051908101604052809291908181526020018280546102ad90611219565b80156102fa5780601f106102cf576101008083540402835291602001916102fa565b820191906000526020600020905b8154815290600101906020018083116102dd57829003601f168201915b50505050508152602001600282015481526020016003820154815260200160048201548152602001600582015481525050905084805190602001208160200151805190602001200361035557828061035190611279565b9350505b5080806001019150506101a4565b508067ffffffffffffffff81111561037e5761037d610c4d565b5b6040519080825280602002602001820160405280156103b157816020015b606081526020019060019003908161039c5790505b5091506000805b60008054905081101561059a5760008082815481106103da576103d96111bb565b5b90600052602060002090600602016040518060c001604052908160008201805461040390611219565b80601f016020809104026020016040519081016040528092919081815260200182805461042f90611219565b801561047c5780601f106104515761010080835404028352916020019161047c565b820191906000526020600020905b81548152906001019060200180831161045f57829003601f168201915b5050505050815260200160018201805461049590611219565b80601f01602080910402602001604051908101604052809291908181526020018280546104c190611219565b801561050e5780601f106104e35761010080835404028352916020019161050e565b820191906000526020600020905b8154815290600101906020018083116104f157829003601f168201915b50505050508152602001600282015481526020016003820154815260200160048201548152602001600582015481525050905085805190602001208160200151805190602001200361058c578060000151858481518110610572576105716111bb565b5b6020026020010181905250828061058890611279565b9350505b5080806001019150506103b8565b505050919050565b600181815481106105b257600080fd5b90600052602060002090600202016000915090508060000180546105d590611219565b80601f016020809104026020016040519081016040528092919081815260200182805461060190611219565b801561064e5780601f106106235761010080835404028352916020019161064e565b820191906000526020600020905b81548152906001019060200180831161063157829003601f168201915b5050505050908060010154905082565b60006040518060c0016040528087815260200188815260200186815260200185815260200184815260200183815250908060018154018082558091505060019003906000526020600020906006020160009091909190915060008201518160000190816106cb919061146d565b5060208201518160010190816106e1919061146d565b5060408201518160020155606082015181600301556080820151816004015560a0820151816005015550507fd3fc49c979da257b3d58b4d31ff673185ef4383e57dcc8cb9ac754e7bcc8c61886868685604051610741949392919061153f565b60405180910390a1505050505050565b6000818154811061076157600080fd5b906000526020600020906006020160009150905080600001805461078490611219565b80601f01602080910402602001604051908101604052809291908181526020018280546107b090611219565b80156107fd5780601f106107d2576101008083540402835291602001916107fd565b820191906000526020600020905b8154815290600101906020018083116107e057829003601f168201915b50505050509080600101805461081290611219565b80601f016020809104026020016040519081016040528092919081815260200182805461083e90611219565b801561088b5780601f106108605761010080835404028352916020019161088b565b820191906000526020600020905b81548152906001019060200180831161086e57829003601f168201915b5050505050908060020154908060030154908060040154908060050154905086565b600081116108f0576040517f08c379a00000000000000000000000000000000000000000000000000000000081526004016108e7906115de565b60405180910390fd5b600160405180604001604052808481526020018381525090806001815401808255809150506001900390600052602060002090600202016000909190919091506000820151816000019081610945919061146d565b506020820151816001015550507e9e153f5209863356300c774fe4b7b1e96b4ded6e3db316e37aa6e6a0bd6e048282604051610982929190610fe0565b60405180910390a15050565b60006103e882116109d4576040517f08c379a00000000000000000000000000000000000000000000000000000000081526004016109cb906115de565b60405180910390fd5b6000905060005b600080549050811015610c0b5760008082815481106109fd576109fc6111bb565b5b90600052602060002090600602016040518060c0016040529081600082018054610a2690611219565b80601f0160208091040260200160405190810160405280929190818152602001828054610a5290611219565b8015610a9f5780601f10610a7457610100808354040283529160200191610a9f565b820191906000526020600020905b815481529060010190602001808311610a8257829003601f168201915b50505050508152602001600182018054610ab890611219565b80601f0160208091040260200160405190810160405280929190818152602001828054610ae490611219565b8015610b315780601f10610b0657610100808354040283529160200191610b31565b820191906000526020600020905b815481529060010190602001808311610b1457829003601f168201915b505050505081526020016002820154815260200160038201548152602001600482015481526020016005820154815250509050848051906020012081602001518051906020012003610bfd57600060648260600151836040015187610b9691906115fe565b610ba091906115fe565b610baa919061166f565b90506000826080015182610bbe91906115fe565b9050600060648460a0015183610bd491906115fe565b610bde919061166f565b90508082610bec91906116a0565b86610bf791906116d4565b95505050505b5080806001019150506109db565b5092915050565b60008080549050905090565b6000604051905090565b600080fd5b600080fd5b600080fd5b600080fd5b6000601f19601f8301169050919050565b7f4e487b7100000000000000000000000000000000000000000000000000000000600052604160045260246000fd5b610c8582610c3c565b810181811067ffffffffffffffff82111715610ca457610ca3610c4d565b5b80604052505050565b6000610cb7610c1e565b9050610cc38282610c7c565b919050565b600067ffffffffffffffff821115610ce357610ce2610c4d565b5b610cec82610c3c565b9050602081019050919050565b82818337600083830152505050565b6000610d1b610d1684610cc8565b610cad565b905082815260208101848484011115610d3757610d36610c37565b5b610d42848285610cf9565b509392505050565b600082601f830112610d5f57610d5e610c32565b5b8135610d6f848260208601610d08565b91505092915050565b600060208284031215610d8e57610d8d610c28565b5b600082013567ffffffffffffffff811115610dac57610dab610c2d565b5b610db884828501610d4a565b91505092915050565b600081519050919050565b600082825260208201905092915050565b6000819050602082019050919050565b600081519050919050565b600082825260208201905092915050565b60005b83811015610e27578082015181840152602081019050610e0c565b60008484015250505050565b6000610e3e82610ded565b610e488185610df8565b9350610e58818560208601610e09565b610e6181610c3c565b840191505092915050565b6000610e788383610e33565b905092915050565b6000602082019050919050565b6000610e9882610dc1565b610ea28185610dcc565b935083602082028501610eb485610ddd565b8060005b85811015610ef05784840389528151610ed18582610e6c565b9450610edc83610e80565b925060208a01995050600181019050610eb8565b50829750879550505050505092915050565b60006020820190508181036000830152610f1c8184610e8d565b905092915050565b6000819050919050565b610f3781610f24565b8114610f4257600080fd5b50565b600081359050610f5481610f2e565b92915050565b600060208284031215610f7057610f6f610c28565b5b6000610f7e84828501610f45565b91505092915050565b600082825260208201905092915050565b6000610fa382610ded565b610fad8185610f87565b9350610fbd818560208601610e09565b610fc681610c3c565b840191505092915050565b610fda81610f24565b82525050565b60006040820190508181036000830152610ffa8185610f98565b90506110096020830184610fd1565b9392505050565b60008060008060008060c0878903121561102d5761102c610c28565b5b600087013567ffffffffffffffff81111561104b5761104a610c2d565b5b61105789828a01610d4a565b965050602087013567ffffffffffffffff81111561107857611077610c2d565b5b61108489828a01610d4a565b955050604061109589828a01610f45565b94505060606110a689828a01610f45565b93505060806110b789828a01610f45565b92505060a06110c889828a01610f45565b9150509295509295509295565b600060c08201905081810360008301526110ef8189610f98565b905081810360208301526111038188610f98565b90506111126040830187610fd1565b61111f6060830186610fd1565b61112c6080830185610fd1565b61113960a0830184610fd1565b979650505050505050565b6000806040838503121561115b5761115a610c28565b5b600083013567ffffffffffffffff81111561117957611178610c2d565b5b61118585828601610d4a565b925050602061119685828601610f45565b9150509250929050565b60006020820190506111b56000830184610fd1565b92915050565b7f4e487b7100000000000000000000000000000000000000000000000000000000600052603260045260246000fd5b7f4e487b7100000000000000000000000000000000000000000000000000000000600052602260045260246000fd5b6000600282049050600182168061123157607f821691505b602082108103611244576112436111ea565b5b50919050565b7f4e487b7100000000000000000000000000000000000000000000000000000000600052601160045260246000fd5b600061128482610f24565b91507fffffffffffffffffffffffffffffffffffffffffffffffffffffffffffffffff82036112b6576112b561124a565b5b600182019050919050565b60008190508160005260206000209050919050565b60006020601f8301049050919050565b600082821b905092915050565b6000600883026113237fffffffffffffffffffffffffffffffffffffffffffffffffffffffffffffffff826112e6565b61132d86836112e6565b95508019841693508086168417925050509392505050565b6000819050919050565b600061136a61136561136084610f24565b611345565b610f24565b9050919050565b6000819050919050565b6113848361134f565b61139861139082611371565b8484546112f3565b825550505050565b600090565b6113ad6113a0565b6113b881848461137b565b505050565b5b818110156113dc576113d16000826113a5565b6001810190506113be565b5050565b601f821115611421576113f2816112c1565b6113fb846112d6565b8101602085101561140a578190505b61141e611416856112d6565b8301826113bd565b50505b505050565b600082821c905092915050565b600061144460001984600802611426565b1980831691505092915050565b600061145d8383611433565b9150826002028217905092915050565b61147682610ded565b67ffffffffffffffff81111561148f5761148e610c4d565b5b6114998254611219565b6114a48282856113e0565b600060209050601f8311600181146114d757600084156114c5578287015190505b6114cf8582611451565b865550611537565b601f1984166114e5866112c1565b60005b8281101561150d578489015182556001820191506020850194506020810190506114e8565b8683101561152a5784890151611526601f891682611433565b8355505b6001600288020188555050505b505050505050565b600060808201905081810360008301526115598187610f98565b9050818103602083015261156d8186610f98565b905061157c6040830185610fd1565b6115896060830184610fd1565b95945050505050565b7f416d6f756e74206d7573742062652067726561746572207468616e207a65726f600082015250565b60006115c8602083610f87565b91506115d382611592565b602082019050919050565b600060208201905081810360008301526115f7816115bb565b9050919050565b600061160982610f24565b915061161483610f24565b925082820261162281610f24565b915082820484148315176116395761163861124a565b5b5092915050565b7f4e487b7100000000000000000000000000000000000000000000000000000000600052601260045260246000fd5b600061167a82610f24565b915061168583610f24565b92508261169557611694611640565b5b828204905092915050565b60006116ab82610f24565b91506116b683610f24565b92508282039050818111156116ce576116cd61124a565b5b92915050565b60006116df82610f24565b91506116ea83610f24565b92508282019050808211156117025761170161124a565b5b9291505056fea2646970667358221220dbc03fd4b5aa37e901778a5419d9d7f98fffe2cfda769d75a07fe35e013bad0c64736f6c634300081c0033",
  "linkReferences": {},
  "deployedLinkReferences": {}
}